:100000000C945D020C94A4020C94A4020C94A4021F
:100010000C94A4020C94A4020C94A4020C94A402C8
:100020000C94A4020C94A4020C9444270C9416285B
:100030000C940B1F0C94A4020C94A4020C94A40224
:100040000C94A4020C949D030C94A4020C94A4029E
:100050000C94C8030C94731F0C94A4020C94A40277
:100060000C94A4020C94A4020C94A4020C94A40278
:100070000C94A4020C94A4020C94A4020C94A40268
:100080000C94A4020C94A4020C94A4020C94A40258
:100090000C94A4020C94A4020C94A4020C94A40248
:1000A0000C94A4020C94A4020C94A40253055505CC
:1000B0006005570559055B055D055F05620564052B
:1000C0006605710568056A056C056E0570057305A2
:1000D000B214B214E414E4142D154B15C916C91644
:1000E0008D15C916261626169816A116C916C216FB
:1000F00033163316331633163316331633163316B8
:1001000033163316331633163316331633163316A7
:1001100044165216591660166A165A175A176C1753
:100120006C1763176C176C176C175A175A176817E8
:100130006C176C1768178328AA28A229AA28A22955
:10014000F6281929A22970297F2927001E001F00DF
:1001500020002100000022002300240025002600AA
:10016000040000047F3F1F643214643214783C1E84
:100170001E140A052223252628292A2C2D2F303249
:10018000333536383A3B3D3E4042434547494A4C79
:100190004E5051535557595A5C5E606264666869A7
:1001A0006B6D6F71737577797B7D7F8183858789AF
:1001B0008A8C8E90929496989A9C9E9FA1A3A5A7B4
:1001C000A8AAACAEAFB1B3B4B6B8B9BBBCBEBFC1E0
:1001D000C2C3C5C6C7C9CACBCCCDCED0D1D2D2D36B
:1001E000D4D5D6D7D7D8D9D9DADADBDBDBDCDCDC7F
:1001F000DCDCDDDDDDDDDCDCDCDCDCDBDBDBDADA42
:10020000D9D9D8D7D7D6D5D4D3D2D2D1D0CECDCCB8
:10021000CBCAC9C7C6C5C3C2C1BFBEBCBBB9B8B6CD
:10022000B4B3B1AFAEACAAA8A7A5A3A19F9E9C9A58
:1002300098969492908E8C8A89878583817F7D7B26
:1002400079777573716F6D6B6968666462605E5C07
:100250005A5957555351504E4C4A494745434240CD
:100260003E3D3B3A3836353332302F2D2C2A292863
:1002700026252322FFAA7F55400000000000000031
:10028000000000010101010101010101020202025D
:10029000020202020303030303030304040404042D
:1002A00005050505050606060606070707070808EB
:1002B00008080909090A0A0A0B0B0B0C0C0C0D0D96
:1002C0000D0E0E0E0F0F1010101111121213131429
:1002D00014151516161717181819191A1A1B1C1C9D
:1002E0001D1D1E1F1F2021212223232425252627F3
:1002F0002828292A2B2C2C2D2E2F30313132333423
:1003000035363738393A3B3C3D3E3F404142434425
:1003100045464748494B4C4D4E4F50525354555704
:1003200058595A5C5D5E606163646567686A6B6CAE
:100330006E6F7172747677797A7C7D7F8182848624
:1003400087898B8D8E9092949597999B9D9FA1A262
:10035000A4A6A8AAACAEB0B2B4B6B9BBBDBFC1C367
:10036000C5C8CACCCED0D3D5D7DADCDEE1E3E6E827
:10037000EAEDEFF2F4F7F9FCFF0403300000000EA1
:100380000347005A005200380039004400000012B0
:10039000036B0075007300680069006D0061003830
:1003A0000000000403090409023B00020100A0FA56
:1003B00009040000010301010009211101000122CB
:1003C00040000705810308000A0904010001030039
:1003D0000000092111010001228500070582032088
:1003E000000A1201100100000008EDFE00000100EB
:1003F0000102030105010902A10185020901A10011
:1004000005091901290515002501950575018102C8
:100410009501750381010501093009311581257F99
:1004200095027508810609381581257F95017508A3
:100430008106050C0A38021581257F950175088112
:1004400006C0C005010980A101850316010026032D
:10045000001A81002A8300751095018100C0050CE7
:100460000901A1018504160100269C021A01002A37
:100470009C02751095018100C005010906A10105C6
:100480000719E029E71500250195087501810295F6
:100490000175088101050819012905950575019166
:1004A000029501750391010507190029FF15002622
:1004B000FF00950675088100C00011241FBECFEF14
:1004C000DAE0DEBFCDBF04B603FE27C08091300264
:1004D00090913102A0913202B09133028730904B5B
:1004E000A740B04BD1F4109230021092310210921A
:1004F00032021092330214BE84B7877F84BF0FB6D6
:10050000F894A895809160008861809360001092B3
:1005100060000FBEE0E0F8E3099511E0A0E0B1E073
:10052000EEE4F5E502C005900D92A436B107D9F7C7
:1005300022E0A4E6B1E001C01D92A033B207E1F7CA
:100540000E946C240C94A52A0C940000662319F0D8
:1005500082E590E002C081E590E00C942F030895BD
:10056000089508950F931F93CF93DF939C013A95BD
:1005700021153F4148F5EB018C0190FF03C080EE4F
:10058000FB01099511FF03C081EEFE01099512FFE1
:1005900003C082EEFE01099513FF03C083EEFE0146
:1005A00009950115104180F084EEFE01099585EE54
:1005B000FE01099586EEFE01099587EEFE01DF91A9
:1005C000CF911F910F910994DF91CF911F910F91BE
:1005D0000895877091E001C0990F8A95EAF7892FF5
:1005E0000E94401D0C947B1D0C94E902877091E0E1
:1005F00001C0990F8A95EAF7892F0E94461D0C9435
:100600007B1D0C94F602CF93DF93EC01805E910981
:10061000089710F0209719F469EE72E002C064EFB9
:1006200072E0CE010E94B2028C2FDF91CF910C9428
:10063000D612CF93DF93EC010E94F413CE01805EBB
:100640009109089710F0209719F466EF72E002C044
:1006500061E073E0CE01DF91CF910C94B202CF93B1
:10066000DF93EC010E940303CE01DF91CF910C9444
:10067000190381E0089581E008950C943B031F93D2
:10068000CF93DF9300D000D01F92CDB7DEB7498360
:100690005A836B832091880189819A81211112C02C
:1006A000662349F00E94AC1C182F682F89819A811B
:1006B0000E94531C03C00E947F1C182F69817A81FD
:1006C000812F04C00E94AC1C69817A810F900F9029
:1006D0000F900F900F90DF91CF911F910C94E40633
:1006E000FC01408151816281738184810C943F03BC
:1006F0000E948D100C949109E82FE295EF70F0E0C4
:1007000032A1282F2F7081E090E001C0880F2A9538
:10071000EAF78095832382A30895E82FE295EF708E
:10072000F0E032A1282F2F7081E090E001C0880F07
:100730002A95EAF7832B82A308951F920F920FB692
:100740000F9211242F933F934F935F936F937F9357
:100750008F939F93AF93BF93EF93FF9386E60E948F
:100760008D0387E90E948D0385E30E948D03FF912D
:10077000EF91BF91AF919F918F917F916F915F9119
:100780004F913F912F910F900FBE0F901F90189592
:100790001F920F920FB60F9211242F933F934F93F6
:1007A0005F936F937F938F939F93AF93BF93EF93D9
:1007B000FF9380918800909189008130914048F0AA
:1007C00086E60E947C0387E90E947C0385E30E9401
:1007D0007C03FF91EF91BF91AF919F918F917F919A
:1007E0006F915F914F913F912F910F900FBE0F909E
:1007F0001F901895CF92DF92EF92FF92CF93C82F60
:100800008430E0F481111BC08091880090918900B0
:10081000892B29F180916F008D7F80936F008091EB
:100820006F008E7F80936F0086E60E948D0387E9BC
:100830000E948D0385E30E948D0311C0C3E0809167
:10084000880090918900892B51F480916F0082601B
:1008500080936F0080916F00816080936F002C2FD8
:1008600030E0AFEFBFEF0E94362A23E030E040E0F7
:1008700050E00E940E2AC9012C3764E1360728F4A3
:1008800069E070E00E94E62929C0DA01C9018A50B6
:10089000974DAF4FBF4F6627782F892F9A2F25EF9F
:1008A00038E241E050E00E940E2A69017A01CA0153
:1008B000B9010E94D6299B01AC01C701B6010E9473
:1008C000D629BB27A92F982F872F009721E0A207B1
:1008D000B10511F0BC0102C06FEF7FEF709389008A
:1008E00060938800CF91FF90EF90DF90CF900895B4
:1008F000EF92FF920F931F93CF93DF93C3E2D1E068
:1009000006E211E0EE24E394F12C8991E82FE295C0
:10091000EF70F0E091A1282F2F70A70102C0440FC3
:10092000551F2A95E2F79A01292B21A30E947C03E7
:100930000C171D0751F782E08093800089E18093B6
:1009400081008FEF9FEF9093870080938600DF9167
:10095000CF911F910F91FF90EF900C94E4210E9492
:10096000DE1D811102C00E946D1E0E9478040E944B
:100970007A100C948F090C94B1020C94BB04089566
:100980000E9448170E94BF042FEF84E39CE021508F
:1009900080409040E1F700C0000087E797E7909320
:1009A0000108809300080C94991F0F931F93CF9315
:1009B000DF938C010E947003EC01B8010E943D039B
:1009C000882309F4F7C1B801CE010E943E118823A3
:1009D00009F4F0C1CA3CFCE5DF0741F4F80182816B
:1009E000882309F4E7C10E943E0DE4C1CB3C8CE5AD
:1009F000D80708F012C1C33C9CE5D90761F4F8019F
:100A00008281882309F4D6C10E942D1D8272E1F0F3
:100A10000E94590FCFC1C43CECE5DE07C0F0C63CD4
:100A20009CE5D90709F4CAC008F0DCC0C43CFCE569
:100A3000DF0709F0CBC0F8018281882309F4BAC12D
:100A40000E942D1D827221F30E944C0FB3C1C5314B
:100A5000FCE5DF0708F07BC0C2308CE5D80708F45E
:100A600052C0F8018281882309F454C00E94DE1D1F
:100A7000811102C00E946D1E0E94F11D90E09093B2
:100A8000210280932002FE01E350FC45E231F10592
:100A900030F4EA5AFF4F809120020C94302A809162
:100AA0002002816027C0826025C0846023C08061ED
:100AB00021C080621FC080641DC080681BC084602C
:100AC000886018C08E7F16C08D7F14C08B7F12C0C7
:100AD0008F7E10C08F7D0EC08F7B0CC08F770AC0B9
:100AE0008B7F877F07C087FB222720F991E0922721
:100AF00090FB87F980932002809120020E94F51DCF
:100B00000E94481757C1C1159CE5D90751F0C13063
:100B1000DC4579F0C801DF91CF911F910F910C94C2
:100B20003903F8018281882309F444C10E94C0047A
:100B300041C1F8018281882309F43CC18091E00120
:100B4000982F909590FB80F98093E00133C1C631D6
:100B5000FCE5DF0739F50E942D1D982FF8018281F1
:100B60002091100130911101882379F09A7A81E067
:100B700009F480E080936401911102C069E201C030
:100B800065E3C9010E94A21E0AC08091640181111F
:100B900002C069E201C065E3C9010E94A41E0E946F
:100BA0007B1D08C1C23CDC4509F0B4CFF80182814D
:100BB000882309F4FFC00E94670FFCC0F8018281FE
:100BC000882309F4F7C00E94020DF4C0C53CDC453F
:100BD00009F0A0CFF8018281882309F4EBC00E94BC
:100BE000F50CE8C0F8018281C83CFCE5DF0731F470
:100BF000882309F4DFC00E94200DDCC0C93CDC451D
:100C000030F4882309F4D6C00E94110DD3C0882384
:100C100009F4D0C00E942F0DCDC0C13DECE5DE0728
:100C200091F4F8018281882309F4C4C00E94720BF8
:100C30008F3028F00E94720B843108F405CF8FE0CA
:100C40000E945C0FB7C0C23DFCE5DF0708F05AC048
:100C5000CD3C8CE5D80739F4F8018281882309F46A
:100C6000A9C081E0EDCFCE3C9CE5D907C0F4CB3CD8
:100C7000ECE5DE0741F4F8018281882309F49AC08B
:100C80000E947A0B97C0CC3CDC4509F043CFF801B9
:100C90008281882309F48EC00E948B0B8BC0F801DF
:100CA0008281CF3CFCE5DF0771F4882309F482C020
:100CB0000E94720B863028F00E94720B883008F474
:100CC000C3CE86E0BDCFC03DDC4570F4882309F477
:100CD00071C00E94720B823028F00E94720B853026
:100CE00008F4B2CE82E0ACCF882309F463C00E943E
:100CF000720B893028F00E94720B8E3008F4A4CE5B
:100D000089E09ECFC53DECE5DE0739F4F80182812C
:100D1000882309F44FC083E293CFC63DFCE5DF078B
:100D200040F5F8018281C33DFCE5DF0729F4882303
:100D300009F440C088E184CFC43DDC4568F48823D1
:100D4000C9F10E94720B853128F00E94720B873125
:100D500008F47ACE85E174CF882361F10E94720B8A
:100D6000893128F00E94720B823208F46DCE89E13D
:100D700067CFCD3DECE5DE0741F4F80182818823A1
:100D8000C9F082E00E940B2515C0CE3DFCE5DF07CF
:100D900039F4F8018281882369F00E946D1E0AC02F
:100DA000CC3DDC4509F0B6CEF8018281882311F0F4
:100DB00080E0E8CF80E0DF91CF911F910F910895FF
:100DC00080E090E0089508952CE0829FC0011124F6
:100DD000FC0126E0729FE00DF11D1124E60FF11DCC
:100DE000EE0FFF1FE65BFE4F859194910895880FEB
:100DF000991FFC01EE59FE4F859194910895CF9370
:100E0000DF930E94E4060E94F008EC01811521E5C1
:100E1000920708F042C0811540E5940708F02FC101
:100E2000883E910500F5803E910508F0D5C1883ACD
:100E3000910570F4853A910508F0A4C081309105C0
:100E400009F4CAC108F47BC1049708F0C5C177C191
:100E50008F3B910508F4A1C0803C910508F46FC157
:100E6000805C9109FBC0C11580E3D80780F4C115EF
:100E700020E2D20708F0F0C0C03FD10508F45FC1FE
:100E8000CF3FD10511F008F0A7C1D065A5C1C115AC
:100E900040E4D40708F0F0C0E5C0C11589E5D807E3
:100EA00060F5C11528E5D20708F035C1C11544E544
:100EB000D40778F4C11583E5D80708F011C1C1152E
:100EC00022E5D20708F0F6C0DC2FCC27C16FD06A2C
:100ED00083C1C11545E5D40708F418C1C11586E5DD
:100EE000D80708F02CC18C2F0E946C098F71C82F75
:100EF000D0E0DC2FCC27D0626FC1CD3B2CE5D207F0
:100F000009F414C1F0F4CB3B8CE5D80709F408C10F
:100F100008F009C1C1154AE5D40708F010C18C2FAB
:100F20008F700E946C0994E0D695C7959A95E1F769
:100F3000CF70D0E0DC2FCC27D06A8F70806EC82BAA
:100F40004BC1C03C8CE5D80709F4F6C060F4CE3B39
:100F50004CE5D40709F4EDC0CF3BDC4509F0EFC008
:100F6000C0E0D2ED39C1CE0190568115904208F013
:100F7000E6C08D2F8F710E946C09DD27D0628F71C2
:100F8000D82B2AC1853A910509F4DCC0863A91052F
:100F900009F0DBC0C2E8D0E41FC1883A910509F42A
:100FA000D7C0893A910509F4D6C08A3A910509F467
:100FB000D5C08B3A910509F4D4C08C3A910509F457
:100FC000D3C08B3B910509F4D2C08C3B910509F449
:100FD000D1C08D3A910509F4D0C0803B910509F448
:100FE000CFC08E3A910509F4CEC08F3A910509F42D
:100FF000CDC0813B910509F4CCC0823B910509F439
:10100000CBC0833B910509F4CAC0843B910509F428
:10101000C9C0853B910509F4C8C0863B910509F418
:10102000C7C0873B910509F4C6C0883B910509F408
:10103000C5C0893B910509F4C4C08D3B910509F4F5
:10104000C3C08E3B910509F4C2C08A3B910509F4E7
:10105000C1C0C0E0D4E4C0C0CE019F700E94F706BA
:10106000EC01BAC0CE019927D3FF03C0EC01D86CC4
:10107000B3C0EC01D06CB0C0DF70D06AADC074E01A
:10108000969587957A95E1F783709C2F937021E070
:1010900030E002C0220F331F9A95E2F73C68382BEC
:1010A000CF70C695C69540E2C49FE0011124C22BC3
:1010B000D32B92C0CE018370992721E030E002C08B
:1010C000220F331F8A95E2F78C2F8695869540E292
:1010D000849FC0011124E901C82BD92BDC687CC096
:1010E000CE018370992721E030E002C0220F331F28
:1010F0008A95E2F78C2F8695869540E2849FC00101
:101100001124E901C82BD92BDA6866C0DC2FCC2763
:10111000C46FD06A61C0DC2FCC27C06FD06A5CC0BE
:10112000C0E0D4ED59C0C0E0D5ED56C0C0E0D1ED6F
:1011300053C0C0E0D0ED50C0C0E0D3ED4DC0C0E022
:10114000D0E04AC0C1E8D0E447C0C3E8D0E444C01E
:10115000C2EED4E441C0C9EED4E43EC0CAEED4E449
:101160003BC0C5EBD4E438C0C6EBD4E435C0C3EB18
:10117000D4E432C0C4EBD4E42FC0C7EBD4E42CC019
:10118000CCECD4E429C0CDECD4E426C0C3E8D5E44B
:1011900023C0CAE8D5E420C0C2E9D5E41DC0C4E933
:1011A000D5E41AC0C1E2D6E417C0C3E2D6E414C045
:1011B000C4E2D6E411C0C5E2D6E40EC0C6E2D6E46D
:1011C0000BC0C7E2D6E408C0CFE6D4E405C0C0E750
:1011D000D4E402C0CAE2D6E4CE01DF91CF910895F3
:1011E0008238910549F1B0F48133910509F459C071
:1011F00048F48932910509F44FC08A32910509F407
:1012000055C008958533910509F441C0893391058E
:1012100099F00895833E910531F138F4803E9105AF
:1012200091F0823E9105A9F00895863E910501F165
:10123000873E910539F108952091200220FD3BC0A1
:1012400021FD39C008958091200280FF34C089E3D8
:1012500041C08091200282FF30C08091200284FD35
:101260002EC083EE37C08091200282FD26C0F5CFCC
:101270008091200283FF25C08091200284FD1FC041
:1012800087EE28C08091200283FD1BC0F5CF80919E
:10129000200285FD18C019C08091200285FD15C06F
:1012A00012C08091200286FD12C013C080912002DE
:1012B00086FD0FC00CC080EE0DC082EE0BC080E03A
:1012C00009C086EE07C089E205C085E303C08AE253
:1012D00001C081E390E008959091200292FF0DC03B
:1012E000282F2871283019F4877F846006C0282FA2
:1012F0002471243011F48B7F886093FF0DC0282F58
:101300002871283119F4877E846106C0282F247142
:10131000243111F48B7E886194FD877E08950C94AE
:10132000AF020C94B002E82FF0E0EB59FE4F808141
:1013300008950895CF93DF935198599A5098589AE9
:10134000A6E2B1E04CE251E061E070E08D91E82F5F
:10135000E295EF70F0E021A18F70EB0102C0CC0F9D
:10136000DD1F8A95E2F7CE019C2F9095922391A3E1
:1013700092A1892B82A34A175B0741F7109267015C
:1013800010926501109268011092660182E00E943D
:101390005B0ADF91CF910C94AF045F926F927F92C2
:1013A0008F929F92AF92BF92CF92DF92EF92FF9275
:1013B0000F931F93CF93DF936CE271E0A7E6B1E048
:1013C00029E6A22E21E0B22E612C01E010E06D0191
:1013D0005C901C92EB018991BE01E82FE295EF70C1
:1013E000F0E021A18F70A80102C0440F551F8A951B
:1013F000E2F7CA01242B21A322A1942E9094292143
:1014000022A350EA5A95F1F796E2E92E91E0F92EDF
:1014100040E050E0E70189907E01282D22952F7051
:1014200030E0E90128A17C9030E0D82DDF7002C0C7
:1014300035952795DA95E2F720FD08C0302F042E68
:1014400001C0330F0A94EAF7232F01C020E02729B7
:101450002C934F5F5F4F46305105E1F691A19922E1
:1014600091A292A1892B82A3119681E0F60190812D
:10147000951101C080E0682AAA16BB0609F0A7CF23
:10148000262D42E065E671E087E691E00E945C0A65
:101490000E947803862DDF91CF911F910F91FF90CD
:1014A000EF90DF90CF90BF90AF909F908F907F9004
:1014B0006F905F9008950895FF920F931F93CF93BD
:1014C000DF938C01F62ED72FC42F222349F081E021
:1014D00080936B010E943D1F90936A018093690184
:1014E00080916B018823C1F08091690190916A011C
:1014F0000E94491F069780F0EF2DFD2FD8014C2F39
:1015000050E0CD01801B910B841795071CF48D9141
:101510008193F7CF10926B01DF91CF911F910F91C3
:10152000FF900895CF92DF92EF92FF920F931F9357
:10153000CF93DF93362F472F282FE82FF0E071113C
:1015400006C0E758FD4F6491762F862F7BC0072F8A
:1015500010E056E0659FC0011124CFEFD0E0BE013E
:101560000E94E6295BEA5603C001579F900D1124A3
:10157000830F911D830F911D982F990F980F7E0156
:10158000E01AF10AEE9ED001EF9EB00DFE9EB00D66
:1015900011248B2F499FA0011124452F55277E012F
:1015A000E41AF50AEE9EA001EF9E500DFE9E500D2E
:1015B00011246E01C91AD108C09E7001C19EF00CA1
:1015C000D09EF00C11240F2D1127C01BD10BCE9FE4
:1015D0008001CF9F100DDE9F100D11246230710528
:1015E00091F048F461157105E1F061307105B1F4D5
:1015F0009B2FE52F0AC06430710569F040F066301A
:10160000710579F00BC0912FEB2F822F0DC0922F17
:10161000EB2F852F09C0922FE12F06C0952FE22FC7
:1016200003C09B2FE22F812FF0E0E758FD4F74910C
:10163000E82FF0E0E758FD4F6491E92FF0E0E7581C
:10164000FD4F8491DF91CF911F910F91FF90EF900B
:10165000DF90CF9008950895CF93DF93762FE9011F
:10166000682F842F0E94920A798368838A83DF918E
:10167000CF9108958091F701282F269530E021150C
:10168000310519F48170826005C02532310524F0DE
:10169000817088648093F701089588E090E00C944D
:1016A000652ACF92DF92EF92FF926B017C010E943C
:1016B0003A0BB701A60188E090E0FF90EF90DF9031
:1016C000CF900C94832AE7EFF1E083E080831182CE
:1016D0008FEF828383831482608171818281938101
:1016E0000C94510B8091F70180FF02C086950895FC
:1016F00080E008958091FB01833018F48F5F809320
:10170000FB016091F7017091F8018091F9019091CE
:10171000FA010C94510B8091FB01882319F0815040
:101720008093FB016091F7017091F8018091F901BC
:101730009091FA010C94510B6091040170E080913A
:10174000F70180FF0AC08091700123E0829FC001F1
:10175000112484509E4F0C94751080916F019091CC
:101760000301891780F7E82FF0E09F01220F331F54
:10177000E20FF31FE450FE4F1182108212828F5F3E
:10178000F0CF9091F70190FF16C090916F012091DA
:101790000301921770F4E92FF0E0DF01AA0FBB1FDD
:1017A000EA0FFB1FE450FE4F8183608342839F5FFB
:1017B000F0CF0C949C0B0895CF93DF9300D01F9231
:1017C000CDB7DEB79091F70190FF0AC09E012F5F61
:1017D0003F4F0E942C0B4B8169818A810E94C10B73
:1017E0000F900F900F90DF91CF910895CF93DF93DB
:1017F000EC01EC81F0E0EC58FE4F4491E7EFF1E0B2
:10180000628181810E94DC0B8C818F5F8C83DF91F0
:10181000CF910895CF93DF93EC01E7EFF1E043819F
:1018200062818C810E94DC0B8C818F5F8C83DF91C5
:10183000CF9108950F931F93CF93DF9300D01F9202
:10184000CDB7DEB78C0180916C0181110AC09E0179
:101850002F5F3F4F4FEF6FEF0E942C0B8A818093D9
:101860006C01F8018481813051F028F0823061F4FC
:1018700040916C010AC080916C0140E007C060910A
:101880006C0140E080E003C040E080E060E00E9446
:10189000C10BF801848190E0019663E070E00E9442
:1018A000FA2984830F900F900F90DF91CF911F91B1
:1018B0000F910895AF92BF92CF92DF92EF92FF9275
:1018C0000F931F93CF93DF9300D01F92CDB7DEB756
:1018D000182FF62E042FE22E9091F70190FF6DC085
:1018E000E92FE695AE2FB0E0A25DBE4F8C918093BC
:1018F00078019E7F923061F49E012F5F3F4F812FD0
:101900000E942C0B4B8169818A810E94C10B43C0CC
:10191000823019F40091FA013EC0863019F410911A
:10192000F80139C08930D9F38931A9F5E9518E2FF1
:101930008170D82EE695F0E0EC58FD4FA590B4905C
:10194000C12CBB2460910201C61618F52C2D30E085
:10195000A29EC001A39E900DB29E900D112470E036
:101960000E94E629812FD11002C0860F01C0861B7C
:1019700090916F01290F311DA901440F551F240FAC
:10198000351F24503E4F402F6F2D0E942C0BC394C7
:10199000D9CF0E949C0B1093F801F092F9010093AB
:1019A000FA01EE2051F06091F7017091F8018091F9
:1019B000F9019091FA010E94510B0F900F900F9036
:1019C000DF91CF911F910F91FF90EF90DF90CF901B
:1019D000BF90AF900895E7EFF1E09181282F438108
:1019E000628188E0890F0C945A0C81E00C94EB0C16
:1019F000E7EFF1E09181282F4381628188EF890F21
:101A00000C945A0C81E00C94F80CE7EFF1E0628141
:101A100021E1620F08F46FEF282F438181810C943C
:101A20005A0C81E00C94050DE7EFF1E0628121E1B1
:101A3000621B08F460E0282F438181810C945A0CCA
:101A400081E00C94140DE7EFF1E0438121E1420FB6
:101A500008F44FEF282F628181810C945A0C81E0A9
:101A60000C94230DE7EFF1E0438121E1421B08F4E0
:101A700040E0282F628181810C945A0C81E00C9403
:101A8000320D20E00C945A0CFF920F931F93CF93CA
:101A9000DF93EC01F12C0FEF10E060910201F616DC
:101AA000F0F480916F012F2D30E0280F311DC90116
:101AB000880F991F280F391F24503E4F70E0C8012E
:101AC0000E94FA29962F8C814091FA016091F901C8
:101AD000F99E800D11240E942C0BF394DECF0E94FE
:101AE0009C0B9A818C8190FF02C08F5F01C0815056
:101AF0008C83DF91CF911F910F91FF900895BF923A
:101B0000CF92DF92EF92FF920F931F93CF93DF93C9
:101B1000FC01828180FF02C00FEF01C001E010E0F4
:101B2000809102011817E0F580916F01C12ED12C30
:101B3000E601C80FD11DCE01880F991FC80FD91F0C
:101B4000C450DE4F198218821A8234E0E32EF12C41
:101B5000B12C80916E018B0D87FF03C09091020123
:101B6000890F082E000C990BC816D90691F48091A4
:101B7000FA018E9DA0018F9D500D1124559547951A
:101B8000559547959E016091F9018091F8010E9459
:101B90002C0BB00EF1E0EF1AF108D9F61F5FC0CFA1
:101BA0000E949C0B80916E01013031F4811102C0C2
:101BB00080910201815007C090E00196609102017E
:101BC00070E00E94FA2980936E01DF91CF911F91FE
:101BD0000F91FF90EF90DF90CF90BF900895CF933B
:101BE00080916F0190910301891770F4E82FF0E064
:101BF0009F01220F331FE20FF31FE450FE4F1182AB
:101C0000108212828F5FF0CFC0E060910201C61790
:101C1000C0F5EC2FF0E070E0CF010E94FA2920918E
:101C20006F01820F20916D01022E000C330B90E0AA
:101C3000E217F307CCF020910101022E000C330BC8
:101C40002E173F078CF09C01220F331F820F931F2A
:101C50009C0124503E4F4091FA016091F90180911E
:101C6000F8010E942C0B0BC0FC01EE0FFF1F8E0F22
:101C70009F1FFC01E450FE4F118210821282CF5F41
:101C8000C4CF0E949C0B2091000180916D01820FB6
:101C900080936D0190910101920F909301011916AB
:101CA0005CF4082E000C990B4091020150E0415069
:101CB0005109841795071CF0219520930001CF91BD
:101CC00008950F931F93CF93DF938C01FC018481C0
:101CD000958101968170992795838483C0E0D5E52D
:101CE00080910201C81700F580916F012C2F30E020
:101CF000280F311DC901880F991F280F391F245043
:101D00003E4F4C2F4695F80184819581840F911D9B
:101D100081704091FA016091F9018D9F802D11240D
:101D20000E942C0BCF5FDCCFDF91CF911F910F91E1
:101D30000C949C0B0F931F93CF93DF93EC0100E067
:101D400010E080910201282F30E00217130724F5DC
:101D500090916F019801290F311DA901440F551F62
:101D6000240F351F24503E4F869590E04C81081774
:101D700019071CF4442331F002C0411103C0409103
:101D8000FA0101C040E06091F9018091F8010E94E0
:101D90002C0B0F5F1F4FD5CF0E949C0B8C8190E0C6
:101DA0000196817099278C83DF91CF911F910F91BC
:101DB0000895E7EFF1E080818E7F808360817181FB
:101DC000828193810E94510B109279012FEF80E75D
:101DD00092E0215080409040E1F700C000000C9458
:101DE0009C0B6091F701669570E04BE050E085E058
:101DF00091E00E94502A892B19F481E080937901A7
:101E00000E943D1F909372018093710108959091FB
:101E1000F70190FF35C09170811102C0926006C039
:101E2000853210F0986402C0880F982B9093F701C8
:101E3000662351F06091F7017091F8018091F901EA
:101E40009091FA010E94510B6091F701669570E044
:101E50004BE050E085E091E00E94502A892B19F078
:101E60001092790102C00E94F10E81E0809374010A
:101E70004091FA016091F9018091F8010C94410DB3
:101E80000895682F9091F701969581E0890F85322A
:101E900008F081E00C94070F81E00C94410F682F4B
:101EA0009091F70196958FEF890F09F484E20C94D5
:101EB000070F81E00C944F0F61E00C94070FE7EFE0
:101EC000F1E080818160808386950C945C0F809125
:101ED000F70180FD0C94D90E0C945F0F60E00C9418
:101EE000070F80917701811133C08091E0018160FB
:101EF0008093E0010E94DE1D811104C00E946D1ECE
:101F00000E94630B0E944D0B6093F7017093F801E0
:101F10008093F9019093FA016E7F61F40E94630B44
:101F20000E944D0B6093F7017093F8018093F901C3
:101F30009093FA010E943A0B109279018091F70177
:101F400080FF03C086950E946E0F81E08093770129
:101F500008950F931F93CF93DF9380917901882386
:101F600009F48CC080917801E091F701E695E81BB7
:101F7000E0937301823049F4F0E0E059FE4FE491C0
:101F8000CE2FD0E006EF1BE049C0863049F4F0E0E8
:101F9000E359FE4FE491CE2FD0E00AE01CE03EC0B2
:101FA000893051F4E695F0E0E659FE4FE491CE2FEA
:101FB000D0E004E41DE032C08F3051F4E695F0E04B
:101FC000E959FE4FE491CE2FD0E00FE71DE026C087
:101FD000853149F4F0E0EC59FE4FE491CE2FD0E08A
:101FE0000FEE1DE01BC0883181F0833239F4E2E648
:101FF000F1E0C591D4910AE11CE010C0843251F4A3
:10200000C4EFD1E00AE91EE009C0C8EED3E001E662
:102010001EE004C0C0EDD7E00BE21BE0809174012C
:10202000882389F0109274010E943D1F9E01209523
:102030003095820F931F90937201809371011092DB
:1020400076011092750180917101909172010E9448
:10205000491F8C179D0790F0E0917101F09172017A
:10206000CE0FDF1FD0937201C093710181E791E021
:10207000F801DF91CF911F910F910994DF91CF91DA
:102080001F910F9108952BB1342F309523233BB12D
:10209000432B3FB7F894FC01680F791FE617F70749
:1020A00089F0819198E04BB9000000C087FF2BB9FF
:1020B000880F000000C000C000C02BB900C09A9576
:1020C00091F7ECCF3FBF08952AB1242B2AB99B0189
:1020D000220F331F620F731F0E94431087EC90E0A2
:1020E0000197F1F700C00000089548E00C946410D7
:1020F0000C94A60287988F9A2198299A8FB190E024
:10210000880F892F881F990B199902C020E001C000
:1021100022E0822B80937B01089520917B01220F86
:10212000220F20937B018FB190E0880F892F881FA9
:10213000990B33B131FBEE27E0F9F0E031FF02C03B
:10214000E2E0F0E0E82BF92BE22BE0937B01EF706B
:10215000F0E0ED5AFE4F908180917A01890F8093D3
:102160007A01843024F060E080E00E947810809151
:102170007A018D3F24F461E080E00E947810809124
:102180007A01837887FF03C081508C6F8F5F8093C3
:102190007A0108950F931F93CF93DF93C62FD42F07
:1021A000122FFC0182818823C9F060937E010E9476
:1021B0003D1F90937D0180937C0180E28C0F8830DD
:1021C00008F057C0C77081E001C0880FCA95EAF7D0
:1021D000DF91CF911F910F910C946F1480917E012C
:1021E000681330C080917C0190917D010E94491F4D
:1021F000883C910538F500E20D0FCD17B9F080E26B
:102200008C0F883040F4C77081E001C0880FCA95F8
:10221000EAF70E947614083028F581E09D2F977028
:1022200001C0880F9A95EAF70E946F14812F0E94CF
:102230005C140830F0F4D77081E001C0880FDA95A3
:10224000EAF70AC080E28C0F883098F4C77081E00A
:1022500001C0880FCA95EAF7DF91CF911F910F91C6
:102260000C947614812FDF91CF911F910F910C94D4
:102270005C14DF91CF911F910F9108959C01CB01C8
:10228000203F4CE53407F9F078F4283DFCE53F07A2
:10229000B9F0293D4CE5340711F1273D3C4531F5B6
:1022A00026E241EE61EE1EC0223FFCE53F0799F0B9
:1022B00070F0233F3C45D1F427E245EE66EE12C0B4
:1022C00027E245EE0EC026E241EE60EE0BC027E2AB
:1022D00045EE64EE07C026E241EE62EE03C028E25E
:1022E00041E065EE0E94CA1080E00895FC01828101
:1022F000882319F010927E01089581E0089590934B
:102300008401809383010895E0918301F091840119
:10231000309721F00190F081E02D099480E008953C
:10232000E0918301F0918401309721F00280F381E4
:10233000E02D09940895E0918301F0918401309794
:1023400039F022E0DC012C930480F581E02D099422
:10235000089520918101309182012817390771F089
:102360009093820180938101E0918301F091840137
:10237000309721F00680F781E02D0994089520918F
:102380007F01309180012817390771F09093800107
:1023900080937F01E0918301F0918401309721F0D7
:1023A0000084F185E02D0994089585B7806885BF84
:1023B00085B7806885BF089508950C94DC110C944E
:1023C000DD110C94DC110C94DC110E94D5110E94DB
:1023D000E1110C94DF1181E008950E94341F0E94E6
:1023E0009A090E94AA1F0E94E4210E94710F0C9476
:1023F000E311BF92CF92DF92EF92FF920F931F9360
:10240000CF93DF93CDB7DEB72A970FB6F894DEBF30
:102410000FBECDBF0E94CD090E94EB11811111C0EA
:102420008FEF89838A831B820E943D1F8160782FF2
:102430009D838C8349815A816B818D810E94A21278
:1024400054C086E8C82E81E0D82E00E010E0B02EFF
:10245000802F0E949309E82EF60121916F01F82E3A
:10246000F22631F40F5F1F4F02301105C9F2EFCF92
:102470008091E00181FD0E94990980E090E02F2D7C
:1024800030E0482FB901082E02C0759567950A946F
:10249000E2F760FF25C08E83BF8281E090E06C018F
:1024A00002C0CC0CDD1C4A95E2F72E2D30E02C2129
:1024B0003D21232B09F480E088870E943D1F816025
:1024C000782F9A8789874E815F8168858A850E94E7
:1024D000A212F801EA57FE4F80818C25808305C047
:1024E00001968630910569F6BDCF0E943D210E947C
:1024F0008411909185018917A9F00E94841180931D
:1025000085012A960FB6F894DEBF0FBECDBFDF91CE
:10251000CF911F910F91FF90EF90DF90CF90BF90E0
:102520000C94BD042A960FB6F894DEBF0FBECDBF43
:10253000DF91CF911F910F91FF90EF90DF90CF909F
:10254000BF900895CF93DF93CDB7DEB72B970FB62B
:10255000F894DEBF0FBECDBF4F83588769877A8757
:102560008B87DE01119686E0FD0111928A95E9F7CD
:1025700085E0FE01379601900D928A95E1F7498139
:102580005A816B817C818D819E810E94181A2B96C5
:102590000FB6F894DEBF0FBECDBFDF91CF91089587
:1025A000FC01808191810E94EE1C0895882309F42A
:1025B0001AC18238C1F40E94841181FD14C169E3FB
:1025C00080911001909111010E94A21E0E947B1D1A
:1025D0002FEF81EE94E0215080409040E1F700C061
:1025E000000069E319C08338F9F40E94841180FD6A
:1025F000FAC063E580911001909111010E94A21E22
:102600000E947B1D2FEF81EE94E02150804090408E
:10261000E1F700C0000063E5809110019091110185
:102620000E94A41E0C947B1D8438C1F40E94841166
:1026300082FDD9C067E480911001909111010E9440
:10264000A21E0E947B1D2FEF81EE94E0215080405E
:102650009040E1F700C0000067E4DECF9CEF980FE8
:10266000913A40F4682F80911001909111010E94DD
:10267000A21ED8CF90E2980F983050F4877091E066
:1026800001C0990F8A95EAF7892F0E94301DCACFA1
:102690009BE5980F933070F4853A29F0863A31F033
:1026A00083E890E005C081E890E002C082E890E015
:1026B0000C94A91198E5980F973108F08EC0883ACC
:1026C00009F445C0893A09F445C08A3A09F445C07D
:1026D0008B3A09F445C08C3A09F445C08B3B09F4A8
:1026E00045C08C3B09F445C08D3A09F445C0803B98
:1026F00009F445C08E3A09F445C08F3A09F445C043
:10270000813B09F445C0823B09F445C0833B09F491
:1027100045C0843B09F445C0853B09F445C0863B70
:1027200009F445C0873B09F445C0883B09F445C01E
:10273000893B09F445C08D3B09F445C08E3B09F443
:1027400045C08A3B09F445C080E090E044C082EE79
:1027500090E041C089EE90E03EC08AEE90E03BC040
:1027600085EB90E038C086EB90E035C083EB90E0DD
:1027700032C084EB90E02FC087EB90E02CC08CEC53
:1027800090E029C08DEC90E026C083E891E023C062
:102790008AE891E020C082E991E01DC084E991E0DF
:1027A0001AC081E292E017C083E292E014C084E292
:1027B00092E011C085E292E00EC086E292E00BC08A
:1027C00087E292E008C08FE690E005C080E790E0E5
:1027D00002C08AE292E00C94BF11803F20F00E9478
:1027E00045200C9432210895882309F464C082386E
:1027F00079F40E94841181FF5EC069E38091100129
:10280000909111010E94A21E0E947B1D69E310C0DD
:102810008338B1F40E94841180FF4DC063E580913C
:102820001001909111010E94A21E0E947B1D63E580
:1028300080911001909111010E94A41E0C947B1DA7
:10284000843879F40E94841182FF35C067E4809156
:102850001001909111010E94A21E0E947B1D67E44D
:10286000E7CF9CEF980F913A10F4682FE1CF90E2F8
:10287000980F983050F4877091E001C0990F8A95B5
:10288000EAF7892F0E94361DD9CF9BE5980F933028
:1028900020F480E090E00C94A91198E5980F97310E
:1028A00020F480E090E00C94BF11803F20F00E9463
:1028B000AD200C9432210895CF93C82F0E94D612D8
:1028C000C93349F42FEF87EE93E0215080409040C8
:1028D000E1F700C000008C2FCF910C94F4138823F3
:1028E00021F00E94301D0C947B1D0895882321F057
:1028F0000E94361D0C947B1D08958F929F92AF927B
:10290000BF92DF92EF92FF920F931F93CF93DF93CB
:102910007C01062FC72FFC01158112951F70D281F3
:10292000D1110E944D1D0E94261D882379F0DD23C0
:1029300069F080E2800F883048F082E00E94C51D77
:102940000E94261D91E0D82ED92601C0D12CBC2E84
:10295000B2948FE0B8228B2D90E0FC01E859FF4F34
:102960000C94302A8C2F807FCF70882311F0C29571
:10297000C07FDD2399F0CC2309F4C5C180E2800F2C
:10298000883010F0011104C08C2F0E94301D03C04C
:102990008C2F0E94401D0E947B1DB5C1802F0E947C
:1029A000F413CC2309F4F5C180E2800F883010F0D5
:1029B000011104C08C2F0E94361D03C08C2F0E9471
:1029C000461D0E947B1DE5C18C2F807FCF70803219
:1029D00011F0C295C07F002319F00130C9F022C068
:1029E000DD2371F0112341F0113031F40E94601D9C
:1029F0008C2B0E94681DCDC10E94601D8C2B3BC199
:102A0000112319F0113009F4C4C10E94711D23C0B3
:102A1000DD2321F0163008F0BCC10EC0153008F0DF
:102A2000B8C119C0DD2351F0112331F0F7018581C0
:102A300080FF69C18F7085838C2F1DC1112359F0D0
:102A4000093309F071C1FFEF27EE83E0F150204018
:102A50008040E1F767C18C2F14C18C2F8695869535
:102A6000837019F0813061F094C1DD2321F0802F53
:102A70009C2F937002C080E090E00E94A91196C143
:102A8000DD2321F0802F9C2F937002C080E090E026
:102A90000E94BF118BC1DD23F9F0053F51F0063FC5
:102AA00071F0043FA9F480911A0290911B02816099
:102AB0000BC080911A0290911B02826005C0809128
:102AC0001A0290911B02846090931B0280931A0259
:102AD000802F0E9445201EC0053F51F0063F71F037
:102AE000043FA9F480911A0290911B028E7F0BC0C3
:102AF00080911A0290911B028D7F05C080911A026D
:102B000090911B028B7F90931B0280931A02802F5F
:102B10000E94AD200E94322149C18C2F837009F0A0
:102B200047C0D1113FC1202F229526952770220F33
:102B3000220F602F6F70862F90E0A0E0B0E04C0174
:102B40005D01022E04C0880C991CAA1CBB1C0A94AF
:102B5000D2F704FF10C08FE090E0A0E0B0E004C026
:102B6000880F991FAA1FBB1F2A95D2F780959095B1
:102B7000A095B09503C080E090E0DC01C695C695B5
:102B8000C370BC01CD01682979298A299B29C230EB
:102B900049F058F4C13019F00E94691B03C10E942A
:102BA000571B00C10E947B1BFDC00E94551BFAC031
:102BB000DD2319F08C2F817001C08695882309F4DC
:102BC000F1C0202F229526952770220F220F602F0B
:102BD0006F70862F90E0A0E0B0E04C015D01022E06
:102BE00004C0880C991CAA1CBB1C0A94D2F704FFD1
:102BF00010C08FE090E0A0E0B0E004C0880F991F03
:102C0000AA1FBB1F2A95D2F780959095A095B095E5
:102C100003C080E090E0DC01C695C695C370BC019E
:102C2000CD01682979298A299B29C23049F058F4B5
:102C3000C13019F00E942E1CB5C00E941C1CB2C0ED
:102C40000E94401CAFC00E948F1BACC0802F90E040
:102C5000FC01E05EF109E531F10508F050C0E858EB
:102C6000FF4F0C94302A0F708C2F8F71DD2331F0C1
:102C70000E94B51B802F0E946F148BC00E94D61B30
:102C8000802F0E94761485C0DD2341F0153008F0B6
:102C900080C08C2F8F710E94FB1B7BC0163008F008
:102CA00078C0F7CFDD2339F08C2F8F710E94B51BD0
:102CB00070C0DD23C9F38C2F8F710E94D61B69C0B1
:102CC000DD2329F08C2F8F710E94A01B62C00E940F
:102CD0009B1B5FC0DD2349F0CF718C2F0E94B51B79
:102CE00063E08C2F0E94B01D54C081E00E94C51D7E
:102CF000123008F44EC082E00E94C51D4AC0DD2398
:102D000031F0112389F2802F0E94D61242C0112384
:102D100091F2093349F49FEFE7EEF3E09150E04080
:102D2000F040E1F700C00000802F0E94F41331C092
:102D30004C2F4F70602FC7010E94E0060E94C61AF8
:102D400035C0D11133C0CF70C23091F038F4CC23EC
:102D500061F0C130F1F40E94282228C0C43071F023
:102D600050F0C530B1F480E00AC00E9405221EC0B8
:102D70000E946F221BC00E94762218C083E00E942E
:102D80009F2214C04C2F4F70602FC7010E94E30692
:102D90000DC028E0B21631F0B21640F086EF8B0D70
:102DA000823020F40E9484110E94BD04DD20E1F0F5
:102DB0000E94221D80FD18C0F70112820E941C1D76
:102DC0000E94B51BC7010E9400170E941C1DDF91C5
:102DD000CF911F910F91FF90EF90DF90BF90AF9038
:102DE0009F908F900C94D61BDF91CF911F910F91E4
:102DF000FF90EF90DF90BF90AF909F908F900895DD
:102E00000F931F93CF93DF93EC01988189812B81DE
:102E10003C81232B31F08F3F31F481E09F3F19F447
:102E200003C081E001C080E080FD13C0CE010E949C
:102E3000D504882371F0688179818A810E94F91C08
:102E40008C010E94521C0E94431BB801CE010E94BB
:102E50007D14DF91CF911F910F9108950E944D1D18
:102E60000E945D1D0E947B1D0E94D8210E9432217C
:102E700080E090E00E94A91180E090E00C94BF11E6
:102E800080911001909111010E94A61E0C942E17A2
:102E90000E943D1D0C944017E92FE295EF704E2FD4
:102EA00050E0FA013297EE30F105B0F4E357FF4FEE
:102EB0000C94302A803F91F018F4803E68F40EC0E4
:102EC000843F51F40BC0803E48F0813F29F406C096
:102ED00093FB882780F9089580E0089581E00895A4
:102EE0000E94EE1C0E944C170895CF93DF9300D0F0
:102EF00000D01F92CDB7DEB70F900F900F900F90BC
:102F00000F90DF91CF910895CF93DF9300D000D041
:102F100000D0CDB7DEB726960FB6F894DEBF0FBE51
:102F2000CDBFDF91CF9108951F93CF93DF93C091D1
:102F3000890116E080918A01C81799F0D0E01C9FA2
:102F4000F0011D9FF00D1124E557FE4F4081518186
:102F500062817381848195810E9484172196C77054
:102F6000E9CFDF91CF911F9108954091BB0150911E
:102F7000BC016091BD017091BE018091BF01909133
:102F8000C0010C948417CF938091C00182958F70FB
:102F900009F05FC08091BD01882309F45AC0809177
:102FA0008901B0918A017091BB01A091BC0140914F
:102FB000BE015091BF0191E07F3F09F090E0692F81
:102FC000C6E08B1709F445C04115510521F0AF3F0C
:102FD00021F020E003C021E001C0262F90E020FD79
:102FE00035C0C89FF001C99FF00D1124E557FE4F71
:102FF00021812A132BC02081271328C0228121116F
:1030000025C0238134812417350710F4215031095C
:10301000241B350B283C3105C8F42091C0012F70CA
:1030200020612093C00126E0289FF001299FF00D28
:103030001124E057FE4F80818F70806180838BEB7D
:1030400091E00E940017CF910C949417019687701D
:10305000B8CFCF910895AF92BF92CF92DF92EF9207
:10306000FF920F931F93CF93DF93CDB7DEB7619796
:103070000FB6F894DEBF0FBECDBF8C0185E0F8011E
:10308000DE011D9601900D928A95E1F7D8014C91D1
:1030900011965C9111971296EC903091BB01609162
:1030A000BC018091BE019091BF01009731F06F3F4C
:1030B00031F421E03F3F19F403C021E001C020E0DA
:1030C000B22FB170BB2E20FD60C1F801C380D48047
:1030D000A090BD01AA2009F4EEC02091C001C8163D
:1030E000D90628F0D601A81BB90BCD0104C08095E4
:1030F00090958C0D9D1DFF24F394883C910580F0E4
:10310000F12C207F09F09CC07C2DD98AC88A6E2DB5
:1031100089890E9475178BEB91E00E9400172DC1E1
:10312000822F807F09F054C0561314C0431312C07D
:10313000FE2CE1100FC02F7020612093C0010E946F
:10314000B5178BEB91E00E9400178091C001F80148
:1031500085835CC1CD2831F05F3F31F481E04F3F82
:1031600019F403C081E001C080E080FD03C081E06C
:103170008E2502C080E090E0F82FF170FF2E80FFD6
:103180001CC08091890120918A0136E0821709F4E0
:103190001AC190E0389FF001399FF00D1124E557D6
:1031A000FE4F6181561306C06081461303C06281E1
:1031B000E61203C001968770E9CFFE2CEE2009F4D9
:1031C00025C18091C00181608093C001F12C1EC196
:1031D000561309C0431307C0E11005C08091C00118
:1031E000F8018583A4C04D875E878D859E850E94EA
:1031F0007017882379F1EE2069F12091C001822FA8
:1032000082958F7090E0029774F08091BB0190914D
:10321000BC0198878F831986DB86CA862C87CE01EE
:1032200007960E94001786E0F801ABEBB1E0019031
:103230000D928A95E1F70E94C3170E94B5170DC041
:10324000561771F04D875E878D859E850E94701799
:1032500081111AC0C8010E940017FF24F394D6C040
:103260004313F0CFE110EECF8091C001F8018583C8
:10327000C8010E94001786E0EBEBF1E0DF011D9230
:103280008A95E9F7FA2CC2C0EE2021F32091C00103
:10329000822F82958F7090E002972CF28091BB0173
:1032A0009091BC019A8389831B82DD82CC822E831C
:1032B000CE010196B6CFC816D90628F0F601E81B54
:1032C000F90BCF0104C0809590958C0D9D1D883C15
:1032D000910548F0F12C7C2DD98AC88A6E2D8989F8
:1032E0000E9475174AC0FE2CEE2009F4B3CF561386
:1032F00033C0431331C02091C00120FD24C0822F70
:1033000082958F70482F50E041155105E1F0D801AA
:1033100015962C9315974F30510549F08F5F982FD4
:103320009295907F822F8F70892B15968C93C80170
:103330000E94001786E0F801ABEBB1E001900D921E
:103340008A95E1F73DC086E0F801ABEBB1E0019072
:103350000D928A95E1F75AC04D875E878D859E85CF
:103360000E94701781115FCF8091C00181608093AE
:10337000C001C8010E94001749C0EBEBF1E086E0F4
:10338000DF011D928A95E9F71BC0EE2009F462CF98
:103390004D875E878D859E850E947017F82E882345
:1033A00009F458CF86E0F801ABEBB1E001900D9243
:1033B0008A95E1F78BEB91E00E94D0120E94C3172F
:1033C0000E94B51723C04D875E878D859E850E941C
:1033D000EE1C292F22952F70223028F49F7039F08F
:1033E000811105C00BC0243028F49F7049F4805E21
:1033F000883020F0C8010E940017BF2CFB2C06C0AB
:10340000D80115969C91907F91F7F8CF8F2D6196FA
:103410000FB6F894DEBF0FBECDBFDF91CF911F91E5
:103420000F91FF90EF90DF90CF90BF90AF900895F5
:103430001F93CF93DF93CDB7DEB72C970FB6F894D9
:10344000DEBF0FBECDBF4F83588769877A878B87D2
:103450009C87CE0107960E942B188823D1F09F816C
:1034600088852A853B85232B31F08F3F31F481E01D
:103470009F3F19F403C081E001C080E080FD47C098
:103480004F81588569857A858B859C850E94841734
:103490003EC086E0FE013796DE01119601900D9246
:1034A0008A95E1F7FF81E8856A857B85611571055D
:1034B00031F0EF3F31F481E0FF3F19F403C081E0C8
:1034C00001C080E080FD23C020918A0130E0C90165
:1034D0000196877099274091890150E084179507DC
:1034E000F1F1F983EA837D836C8396E0929FD001AA
:1034F000939FB00D1124A557BE4FFE013196019048
:103500000D929A95E1F780938A010E94941716E034
:103510008091890190918A01891771F1189FC001EA
:10352000112485579E4F0E942B18882329F1E09182
:1035300089011E9FF0011124E557FE4F4081518102
:1035400062817381848195810E94841780918901B1
:1035500090E001968770992780938901D9CF0E94C6
:10356000481710928A0110928901EBEBF1E086E096
:10357000DF011D928A95E9F72C960FB6F894DEBF0D
:103580000FBECDBFDF91CF911F910895EF92FF92B3
:103590000F931F93CF93DF938C01892B09F46CC099
:1035A000F12CEE24E394E8012196F801849184370C
:1035B00040F4843008F051C0813081F0823019F13C
:1035C0005BC0853709F444C0A8F19CE7980F903799
:1035D00008F052C08F770E94F41341C00E5F1F4F56
:1035E000FE01849190E2980F983050F48770FE2D80
:1035F00001C0FF0F8A95EAF78F2F0E94501D14C05B
:103600000E94D6122DC00E5F1F4FFE01849190E2E2
:10361000980F983060F48770FE2D01C0FF0F8A95D7
:10362000EAF78F2F0E94561D0E947B1D19C00E9431
:10363000F41316C00E5F1F4FFE01C491CC2381F01E
:103640008FE99FE00197F1F700C00000C150F6CF6D
:103650000E5F1F4FFE01F49003C00E94D6128E0130
:103660008F2D882309F49FCFEFE9FFE03197F1F721
:1036700000C000008150F5CFDF91CF911F910F91D5
:10368000FF90EF900895089508950C94441B0C94B6
:10369000451B0E94471B6093CF017093D00180931C
:1036A000D1019093D2010C942E170C94491B0F93C7
:1036B0001F930091CF011091D0012091D101309141
:1036C000D201602B712B822B932B1F910F910C94A5
:1036D000491B0F931F930091CF011091D0012091AE
:1036E000D1013091D20160237123822393231F9152
:1036F0000F910C94491B0F931F930091CF011091D0
:10370000D0012091D1013091D20160277127822709
:1037100093271F910F910C94491B0C94441B0E94FA
:103720008D1B6093CB017093CC018093CD0190935E
:10373000CE010C942E1760E070E0CB010C948F1B2F
:103740000F931F9341E050E060E070E08A019B011D
:1037500004C0000F111F221F331F8A95D2F7C90121
:10376000B8011F910F910C948F1B0F931F9341E091
:1037700050E060E070E004C0440F551F661F771FE3
:103780008A95D2F78091CB019091CC01A091CD0187
:10379000B091CE018A019B01082B192B2A2B3B2BC0
:1037A000C901B8011F910F910C948F1B0F931F93A8
:1037B00041E050E060E070E004C0440F551F661F18
:1037C000771F8A95D2F740955095609570958091B6
:1037D000CB019091CC01A091CD01B091CE018A0195
:1037E0009B01082319232A233B23C901B8011F91F8
:1037F0000F910C948F1B0F931F9341E050E060E0FA
:1038000070E004C0440F551F661F771F8A95D2F7DA
:103810008091CB019091CC01A091CD01B091CE01CE
:103820008A019B01082719272A273B27C901B801CC
:103830001F910F910C948F1B0F931F930091CB013D
:103840001091CC012091CD013091CE01602B712BD4
:10385000822B932B1F910F910C948F1B0F931F930F
:103860000091CB011091CC012091CD013091CE017E
:1038700060237123822393231F910F910C948F1B3C
:103880000F931F930091CB011091CC012091CD019A
:103890003091CE0160277127822793271F910F91C6
:1038A0000C948F1B0895292F220F920F990F890FC7
:1038B000E82FE695E695E695877051E001C0550F33
:1038C0008A95EAF785E0E89FF0011124EF53FE4F57
:1038D00020E030E070E04081CB01022E02C09695DE
:1038E00087950A94E2F78170819584278523842740
:1038F00081932F5F3F4F2530310569F70895292FB8
:10390000220F920F990F890F682F6695669566951D
:10391000982F977085E0689FB001112440E050E037
:1039200080E0FB01E40FF51FEF53FE4F208130E0F4
:10393000092E02C0369527950A94E2F721703327A5
:10394000042E01C0220F0A94EAF7822B4F5F5F4FCB
:103950004530510531F70895BF92CF92DF92EF9233
:10396000FF920F931F93CF93DF938C01C090CB01F5
:10397000D090CC01E090CD01F090CE018091CF01AC
:103980009091D001A091D101B091D201C82AD92A39
:10399000EA2AFB2ACFE1D0E0D701C6010C2E04C0F1
:1039A000B695A795979587950A94D2F780FD04C0A0
:1039B000219790F7B12C07C0BC2EB8018C2F0E9424
:1039C000FF060197A9F38B2DDF91CF911F910F91E6
:1039D000FF90EF90DF90CF90BF900895CF93DF934B
:1039E000EC010E94AC1CBE010E94FF06DF91CF914A
:1039F00008951F93CF93DF93EB0190918801992352
:103A000021F0CB010E94EE1C13C0882349F0CB01AA
:103A10000E94AC1C182F682FCE010E94531C04C0BA
:103A2000CB010E947F1C182FBE01812F0E94FF0630
:103A3000DF91CF911F9108958091D3018595859550
:103A4000859508958091D301877008959091D30151
:103A5000977081E009F480E008958091DF01089576
:103A60009091DF01892B8093DF01089580959091DB
:103A7000DF0189238093DF0108951092DF0108950B
:103A80009091DE01892B8093DE01089580959091BD
:103A9000DE0189238093DE0108951092DE010895EE
:103AA0009091DD01892B8093DD010895809590919F
:103AB000DD0189238093DD0108951092DD010895D1
:103AC0008091D401089508950C94631D0C94641D95
:103AD0009091D401981721F08093D4010C94661D25
:103AE00008958091D401882329F01092D40180E0B8
:103AF0000C94661D0895E0911001F09111018091E0
:103B0000DF018083E0911001F0911101908180919B
:103B1000DE01892B8083E0911001F09111019081E9
:103B20008091DD01892B80838091D401882381F0ED
:103B3000E0911001F09111019081892B8083809197
:103B40001001909111010E946F1E81110E94711D40
:103B500080911001909111010C9490110C94631DAF
:103B600098E0899F90011124262B2093D3010E9475
:103B7000B51B8091D3018595859585950C94AE1DD7
:103B80001092D30180E00C94AE1D2091D30180955A
:103B900082238093D301982F977079F430E0482FD7
:103BA000082E000C550B2417350739F0859585959F
:103BB00085950E94D61B0C94C01D089580E090E06E
:103BC0000E946B2A21E08D3E9E4F09F020E0822F5B
:103BD000089582E090E00C945D2A83E090E00C94DC
:103BE0005D2A84E090E00C945D2A682F84E090E0E8
:103BF0000C94712A86E090E00C945D2A682F86E090
:103C000090E00C94712AAB01BC018FE090E00C9421
:103C1000832AAB01BC0183E190E00C94832A60E02D
:103C200070E0CB010C94091E60E070E0CB010E94B3
:103C3000031E0C940F1E6DEE7EEF80E090E00E945C
:103C40008F2A60E082E090E00E94712A60E083E0C9
:103C500090E00E94712A1092CF011092D001109230
:103C6000D1011092D20160E084E090E00E94712ABC
:103C700060E085E090E00E94712A60E086E090E0DC
:103C80000E94712A6FEF87E090E00E94712A40E065
:103C900050E0BA0188E090E00E94832A60E08DE065
:103CA00090E00E94712A40E050E0BA0188E190E083
:103CB0000E94832A60E087E190E00E94712A40E040
:103CC00050E0BA018CE190E00E94832A60E080E23B
:103CD00090E00E94712A0C94141E0C941B1EFC018F
:103CE000329697E080E0915029F021912223D9F378
:103CF0008F5FF9CF08959C01FC0132969FEF80E021
:103D00004191461789F09F3F19F4411101C0982F46
:103D10008F5F8630A9F79F3F39F0F901E90FF11D58
:103D200097FDFA956283089508959C012A5F3F4F9D
:103D3000FC014281461301C012820196821793074B
:103D4000B9F708950C947B1E0C94951E029626E0FC
:103D5000FC0111922A95E9F7089508950C94AD1E7F
:103D60000C94AD1E0E94B01E0E94CD090E94AE1E92
:103D700080E00E949309811108C081E00E949309AC
:103D800091E0811103C090E001C091E0892F089576
:103D90000C94AD1E0C94C81E0E94CA1E809127026E
:103DA000843061F11092E10120E488E190E00FB6E7
:103DB000F894A895809360000FBE2093600080E087
:103DC0000E94FA0380E00E94BD040E94CA1E83B7CD
:103DD000817F846083BF83B7816083BF7894889537
:103DE00083B78E7F83BF0FB6F894A895809160004B
:103DF000886180936000109260000FBE08950C945B
:103E0000AD1E0E9448170E94E4210E9484110E9466
:103E1000BD040C94FF1E1F920F920FB60F92112437
:103E20008F939F93AF93BF938091E101811113C052
:103E300080911C0290911D02A0911E02B0911F0260
:103E40004196A11DB11D80931C0290931D02A09369
:103E50001E02B0931F02BF91AF919F918F910F905F
:103E60000FBE0F901F90189582E084BD93E095BD22
:103E70009AEF97BD80936E0008952FB7F8948091C4
:103E80001C0290911D02A0911E02B0911F022FBF33
:103E90000895CF92DF92EF92FF920F931F932FB767
:103EA000F89440911C0250911D0260911E02709185
:103EB0001F022FBF6A017B01EE24FF248C0120E04A
:103EC00030E0C016D106E206F30610F44150510965
:103ED0009A01281B390BC9011F910F91FF90EF9098
:103EE000DF90CF90089578941F920F920FB60F92A3
:103EF00011248F939F93AF93BF9380911C02909155
:103F00001D02A0911E02B0911F020196A11DB11DBC
:103F100080931C0290931D02A0931E02B0931F0277
:103F2000BF91AF919F918F910F900FBE0F901F90F7
:103F3000189587E797E790930108809300089AE027
:103F400088E10FB6F894A895809360000FBE909317
:103F50006000FFCF0E94DE1D811102C00E946D1E15
:103F60000E94E91D8093E0010E94F11D90E0909372
:103F70002102809320020E94ED1D682F70E080E0F6
:103F800090E00C94551B8091E50180FF0BC060917F
:103F9000150185E0689FB0011124759567957595A9
:103FA00067952BC081FF09C06091150185E0689F6E
:103FB000B00111247595679520C082FF07C06091FC
:103FC000150185E0689FB001112417C09091E401AC
:103FD0009923D1F060911401961788F7209115016B
:103FE00085E0289F90011124929FA001939F500D7E
:103FF000112470E0CA010E94FA296038710540F46A
:104000006115710519F406C065E070E0862F08950A
:104010008FE7089581E008958091E50180FF08C051
:104020006091130170E0759567957595679521C04E
:1040300081FF06C06091130170E07595679519C006
:1040400082FF04C06091130170E010C09091E40100
:10405000992399F0609112019617A0F780911301AE
:10406000899FC001112470E00E94FA29603871050F
:1040700040F46115710519F406C061E070E0862F07
:1040800008958FE7089581E00895803F21F40E940C
:10409000C31F819504C0813F29F40E94C31F8093F0
:1040A000E9010895823F21F40E94C31F819504C055
:1040B000833F29F40E94C31F8093E8010895893F3C
:1040C00019F40E940C2005C08A3F31F40E940C2094
:1040D00081958093EA0108958B3F21F40E940C2082
:1040E000819504C08C3F29F40E940C208093EB0141
:1040F0000895843F21F48091E701816017C0853FD6
:1041000021F48091E701826011C0863F21F4809103
:10411000E70184600BC0873F21F48091E70188604C
:1041200005C0883F31F48091E70180618093E70109
:1041300008958D3F21F48091E50181600BC08E3F91
:1041400021F48091E501826005C08F3F29F48091C0
:10415000E50184608093E5010895803F39F4809102
:10416000E90187FF6CC01092E90169C0813F29F421
:104170008091E9011816BCF362C09091E801823F7A
:1041800029F497FF5CC01092E80159C0833F19F4ED
:104190001916CCF354C0893F41F48091EA011816F6
:1041A0000CF04DC01092EA014AC08A3F29F4809178
:1041B000EA0187FF44C0F6CF8B3F39F48091EB01D1
:1041C00087FF3DC01092EB013AC08C3F29F48091EB
:1041D000EB011816BCF333C0843F21F48091E70152
:1041E0008E7F17C0853F21F48091E7018D7F11C03C
:1041F000863F21F48091E7018B7F0BC0873F21F43C
:104200008091E701877F05C0883F31F48091E70105
:104210008F7E8093E70113C08D3F21F48091E501EB
:104220008E7F0BC08E3F21F48091E5018D7F05C00C
:104230008F3F29F48091E5018B7F8093E501809188
:10424000E80181110EC08091E90181110AC08091BD
:10425000EA01811106C08091EB01811102C0109228
:10426000E401089586EE91E00E949B110E943D1F9B
:104270009093E3018093E20108951F93CF93DF931E
:104280008091E2019091E3010E94491FAC0190915D
:10429000E401992321F02091160130E006C020911D
:1042A00017018AE0289F900111244217530708F450
:1042B0007BC08091E801C091E901D091EA011091A1
:1042C000EB01811107C0C1116BC0D11169C011117F
:1042D00067C06AC09F3F19F09F5F9093E401181672
:1042E00024F40E94C31F8093E8018091E80187FFB6
:1042F00005C00E94C31F81958093E8011C1624F419
:104300000E94C31F8093E9018091E90187FF05C0E6
:104310000E94C31F81958093E9013091E801332306
:10432000E1F02091E9012223C1F045EB3403C00103
:104330001124992319F09093E80103C081E0809340
:10434000E80135EB2303C0011124992319F0909360
:10435000E90103C081E08093E9011D1624F40E9465
:104360000C208093EA018091EA0187FF05C00E943A
:104370000C2081958093EA01111624F40E940C20F0
:104380008093EB018091EB0187FF05C00E940C2018
:1043900081958093EB01DF91CF911F910C94322195
:1043A0009F3F09F099CFAACFDF91CF911F91089538
:1043B000E6EEF1E086E0DF011D928A95E9F71092C2
:1043C000E4011092E50108950E94DE1D811102C0F2
:1043D0000E946D1E0E94FA1D80932202282F2695AE
:1043E0002695269530E02430310524F087708861C9
:1043F000809322028091220280FF04C086958695D8
:10440000869501C080E00C94FA0320912202822F4D
:10441000869586958695482F50E04330510554F493
:104420008F5F982F990F990F990F822F8770892B83
:1044300080932202809122028160809322020E9456
:10444000FE1D809122028695869586950C94FA032E
:1044500080912202982F969596959695A1F0915E5F
:10446000990F990F990F8770892B80932202887F6B
:1044700091E009F490E08091220290FB80F9809312
:1044800022020E94FE1D80912202869586958695C5
:104490000C94FA038091220280FD13C08160809306
:1044A0002202813019F489E0809322028091220255
:1044B0000E94FE1D809122028695869586950C9419
:1044C000FA0308958091220280FF08C08E7F8093B6
:1044D00022020E94FE1D80E00C94FA030895809150
:1044E000220280FD0C9462220C944A2290912202B6
:1044F000892F8695869586958F5F8F71977084300A
:1045000038F4880F880F880F892B8093220202C00D
:104510009093220280912202887F91E009F490E03A
:104520008091220290FB80F9809322020E94FE1D5E
:10453000809122028695869586950C94FA038430A4
:1045400008F083E0880F880F880F909122029770FF
:10455000892B80932202887F91E009F490E080917A
:10456000220290FB80F9809322020E94FE1D80911E
:1045700022028695869586950C94FA038091F40123
:1045800008950F931F93CF93DF9300D01F92CDB761
:10459000DEB78C010E941B25823011F0843021F59A
:1045A00084E089831B830A8382E08093E9008FEF94
:1045B0009091E800815095FD06C095ED9A95F1F730
:1045C00000008111F5CF8091E80085FF0DC040E02B
:1045D00050E063E070E0CE0101960E9438258091A2
:1045E000E8008E778093E8000F900F900F90DF9196
:1045F000CF911F910F910895CF93DF9300D01F9219
:10460000CDB7DEB720912702243031F523E029838E
:10461000805891099B838A8382E08093E9008FEF21
:104620009091E800815095FD06C095ED9A95F1F7BF
:1046300000008111F5CF8091E80085FF0DC040E0BA
:1046400050E063E070E0CE0101960E943825809131
:10465000E8008E778093E8000F900F900F90DF9125
:10466000CF910895CF93DF93EC010E941B258230F8
:1046700011F08430F9F482E08093E9008FEF90919B
:10468000E800815095FD06C095ED9A95F1F7000080
:104690008111F5CF8091E80085FF0CC040E050E02B
:1046A00066E070E0CE010E9438258091E8008E77A8
:1046B0008093E800DF91CF910895CF93DF93EC01D1
:1046C0000E941B25823011F0843039F581E08093FF
:1046D000E9008FEF9091E800815095FD06C095EDBF
:1046E0009A95F1F700008111F5CF8091E80085FFE0
:1046F00014C040E050E068E070E0CE010E94382530
:104700008091E8008E778093E80088E0FE01ACEEAF
:10471000B1E001900D928A95E1F7DF91CF91089574
:1047200080912602811109C00E94C9260E94262775
:104730008091E20084608093E20008951092260246
:104740000895089508950C94011F42E061EC81E002
:104750000E94422642E261EC82E00C944226809163
:104760002902833009F460C030F4813071F0823066
:1047700009F499C008958A3009F485C08B3009F492
:104780006BC0893009F0A7C020C080912802813A0F
:1047900009F0A1C08091E800877F8093E8008091B4
:1047A0002C0290912D02892B21F468E08CEE91E08F
:1047B00003C060E080E090E070E00E94832580917B
:1047C000E8008B778093E800089580912802813279
:1047D00009F081C080912C0290912D02029708F07F
:1047E0007AC08091E800877F8093E8008091E8009C
:1047F00082FD05C0809127028111F8CF6CC0209105
:10480000F3008091F20090E0922B029729F48091BE
:10481000F1008B7F813021F48091F1008093F401CD
:104820008091E8008B7753C080912802813A09F08B
:1048300052C080912C0290912D02892B09F04BC01F
:104840008091E800877F8093E8008091E80080FFF6
:10485000FCCF8091220136C0809128028132D9F5A7
:1048600080912C0290912D02892BA9F58091E8006E
:10487000877F8093E8000E94772680912A028093A8
:1048800022010C94481780912802813221F58091F1
:10489000E800877F8093E8000E94772680912B02B2
:1048A0008093F501089580912802813AA1F48091C6
:1048B000E800877F8093E8008091E80080FFFCCFCC
:1048C0008091F5018093F1008091E8008E778093CC
:1048D000E8000C947726089584B7877F84BF0FB6CD
:1048E000F894A89580916000886180936000109290
:1048F00060000FBE80E880936100109261000E940A
:10490000E5110E94C9260E9426278091E20084605A
:104910008093E20078940E94BB290E94ED1188E107
:1049200091E00E947F1180912702853069F40E94F6
:10493000CC1E809125028823B1F30E94B21E8823E9
:1049400091F30E942225EFCF0E94F9110E94A90F36
:10495000EACF0C94AB24292F332723303105C9F03B
:1049600060F42130310581F02230310509F04AC070
:104970008BE390E027EA33E049C02132310511F1A1
:104980002232310579F13EC082E190E022EE33E03F
:104990003DC099278130910561F040F0823091054A
:1049A00059F0039779F5E9E7F3E008C0E3EAF3E0AB
:1049B00005C0EFE8F3E002C0EFE7F3E0849190E098
:1049C0009F0124C06115710541F061307105D1F47A
:1049D00089E090E022ED33E019C089E090E029EB16
:1049E00033E014C06115710541F06130710551F477
:1049F00085E890E024EF33E009C080E490E029E707
:104A000034E004C080E090E020E030E0FA0131833F
:104A1000208308950895CF93C82F0E940A25C0933C
:104A2000F601CF91089580912702843011F081E042
:104A3000089582E008958091F601811102C00C94DE
:104A40001325089580E189BD82E189BD09B400FE86
:104A5000FDCF8091D8008F7D8093D8008091E000B9
:104A600082608093E0008091E00081FDFCCF08959A
:104A7000CF92DF92EF92FF920F931F93CF93DF932A
:104A8000EC018B017A010E949626811133C0E1145A
:104A9000F10439F0F70180819181081B190BC80FCF
:104AA000D91FC12CD12C0115110519F18091E800F5
:104AB00085FD16C08091E8008E778093E800E114B0
:104AC000F10449F0F70180819181C80ED91ED1828D
:104AD000C08285E00FC00E949626882321F30AC079
:104AE00089918093F10001501109FFEFCF1ADF0A7D
:104AF000DACF80E0DF91CF911F910F91FF90EF907F
:104B0000DF90CF90089520912E0230912F0226172A
:104B1000370748F06115710539F42091E8002E77C8
:104B20002093E80001C0B901FC0120E06115710586
:104B300079F1809127028823F1F18530F1F180919C
:104B4000E80083FD3CC08091E80082FD2EC080918A
:104B5000E80080FFEBCF2091F3008091F20090E01D
:104B6000922B6115710551F08830910538F421912F
:104B70002093F100615071090196F3CF21E008976D
:104B800009F020E08091E8008E778093E800CECF96
:104B90002111CFCF0AC080912702882361F0853090
:104BA00061F08091E80083FD0AC08091E80082FFF7
:104BB000F2CF80E0089582E0089583E0089581E0D7
:104BC000089520912E0230912F022617370748F0C2
:104BD0006115710539F42091E8002E772093E800E3
:104BE00001C0B901FC0120E06115710591F18091CE
:104BF0002702882309F440C0853009F43FC0809122
:104C0000E80083FD3DC08091E80082FD2FC08091C7
:104C1000E80080FFE9CF2091F3008091F20090E05E
:104C2000922B6115710559F08830910540F424915B
:104C30002093F1003196615071090196F2CF21E085
:104C4000089709F020E08091E8008E778093E800D3
:104C5000CBCF2111CCCF0AC080912702882361F0ED
:104C6000853061F08091E80083FD0AC08091E80002
:104C700082FFF2CF80E0089582E0089583E00895F6
:104C800081E00895982F973068F59093E900981780
:104C900039F07091EC002091ED005091F00003C0CC
:104CA000242F762F50E021FD02C09F5FECCF309182
:104CB000EB003E7F3093EB003091ED003D7F309371
:104CC000ED003091EB0031603093EB007093EC001D
:104CD0002093ED005093F0002091EE0027FDE5CFEA
:104CE00080E008958F708093E90081E008958091BD
:104CF000280287FF11C08091E80082FD05C08091E5
:104D000027028111F8CF11C08091E8008B770BC08A
:104D100080912702882349F08091E80080FFF8CF36
:104D20008091E8008E778093E80008952091E40058
:104D30003091E50095E64091EC00842F817040FFB2
:104D400023C08091E80080FD1DC080912702882348
:104D500099F0853099F08091EB0085FD11C040916C
:104D6000E4005091E5002417350729F3915011F024
:104D70009A01E1CF84E0089582E0089583E00895E8
:104D800081E0089580E008954091E80042FFDDCF82
:104D900008950E9437270E943F27E0EEF0E08081CF
:104DA00081608083E8EDF0E080818F77808319BC9B
:104DB000A7EDB0E08C918E7F8C9380818F7E808375
:104DC0001092260208950F931F93CF93DF930E94B2
:104DD00037270E943F27C8EDD0E088818F778883EE
:104DE00088818068888388818F7D888319BC109230
:104DF000270210922302109225021092240200EE44
:104E000010E0F80180818B7F8083888181608883B6
:104E100042E060E080E00E944226E1EEF0E0808126
:104E20008E7F8083E2EEF0E08081816080838081EC
:104E300088608083F80180818E7F80838881806193
:104E40008883DF91CF911F910F910895E8EDF0E0F5
:104E500080818F7E8083E7EDF0E0808181608083B8
:104E600084E082BF81E0809326020C94E326E8ED83
:104E7000F0E080818E7F80831092E200089510928E
:104E8000DA001092E10008951F920F920FB60F9270
:104E900011242F933F934F935F936F937F938F933F
:104EA0009F93AF93BF93EF93FF938091E10082FFB5
:104EB0000BC08091E20082FF07C08091E1008B7FF0
:104EC0008093E1000E94BA298091DA0080FF1FC020
:104ED0008091D80080FF1BC08091DA008E7F809384
:104EE000DA008091D90080FF0DC080E189BD82E1A8
:104EF00089BD09B400FEFDCF81E0809327020E94A6
:104F0000902305C019BC109227020E949E23809115
:104F1000E10080FF19C08091E20080FF15C0809100
:104F2000E2008E7F8093E2008091E20080618093B6
:104F3000E2008091D80080628093D80019BC85E09F
:104F4000809327020E94A2238091E10084FF30C059
:104F50008091E20084FF2CC080E189BD82E189BD9F
:104F600009B400FEFDCF8091D8008F7D8093D800DA
:104F70008091E1008F7E8093E1008091E2008F7E3E
:104F80008093E2008091E20081608093E200809152
:104F90002302882311F084E007C08091E30087FD9D
:104FA00002C081E001C083E0809327020E94A32316
:104FB0008091E10083FF29C08091E20083FF25C03A
:104FC0008091E100877F8093E10082E08093270257
:104FD000109223028091E1008E7F8093E100809106
:104FE000E2008E7F8093E2008091E20080618093F6
:104FF000E20042E060E080E00E9442268091F00002
:1050000088608093F0000E94A123FF91EF91BF91EF
:10501000AF919F918F917F916F915F914F913F9150
:105020002F910F900FBE0F901F9018951F920F9207
:105030000FB60F9211242F933F934F935F936F936B
:105040007F938F939F93AF93BF93CF93DF93EF9310
:10505000FF93C091E900CF708091EC00D82FD17000
:1050600080FDD0E81092E9008091F000877F809366
:10507000F00078940E945A281092E9008091F00084
:1050800088608093F000CD2BCF70C093E900FF9132
:10509000EF91DF91CF91BF91AF919F918F917F91D0
:1050A0006F915F914F913F912F910F900FBE0F9095
:1050B0001F9018951F93CF93DF93CDB7DEB7AA97B4
:1050C0000FB6F894DEBF0FBECDBFE8E2F2E08091EC
:1050D000F100819322E0E033F207C9F70E94AF2389
:1050E0008091E80083FF2EC18091280290912902CF
:1050F000492F50E04A30510508F024C1FA01E55625
:10510000FF4F0C94302A803821F0823809F01AC100
:1051100008C08091240290912502992389F0826031
:105120000FC080912C028F70873008F00BC18093E4
:10513000E9008091EB0085FB882780F91092E90057
:105140009091E800977F9093E8008093F10010928F
:10515000F100D1C0282F2D7F09F0F4C0882319F069
:10516000823061F0EFC080912A02813009F0EAC0FC
:10517000933009F080E0809325022EC080912A02AE
:1051800081112AC080912C028F702FEF280F2630BA
:1051900008F0D8C08093E9002091EB0020FF1CC0EC
:1051A000933021F48091EB00806214C09091EB0069
:1051B00090619093EB0021E030E0A90102C0440F20
:1051C000551F8A95E2F74093EA001092EA00809119
:1051D000EB0088608093EB001092E9008091E8007A
:1051E000877F8093E8000E947726ACC08111AAC017
:1051F00010912A021F778091E3008078812B8093A1
:10520000E3008091E800877F8093E8000E94772682
:105210008091E80080FFFCCF8091E300806880935C
:10522000E300111102C082E001C083E080932702F5
:1052300089C08058823008F085C080912A02909100
:105240002B028C3D53E0950779F583E08A838AE24F
:1052500089834FB7F894DE01139620E03EE051E2D7
:10526000E32FF0E050935700E49120FF03C0E29554
:10527000EF703F5FEF708E2F90E0EA3010F0C7962E
:1052800001C0C0968D939D932F5F243149F74FBF86
:105290008091E800877F8093E8006AE270E0CE01A9
:1052A00001960E94832516C060912C0270912D02F8
:1052B000AE014F5F5F4F0E94A924BC01892B09F406
:1052C00041C09091E800977F9093E80089819A818E
:1052D0000E94E1258091E8008B778093E80032C03E
:1052E000803881F58091E800877F8093E800809185
:1052F00023028093F1008091E8008E7772CF8111B4
:1053000021C080912A0290912B0299270297D4F410
:105310008091E800877F8093E80080912A02809343
:1053200023020E94772680912302811106C080917A
:10533000E30087FD02C081E001C084E08093270282
:105340000E94A5238091E80083FF0AC08091E800B5
:10535000877F8093E8008091EB0080628093EB0070
:10536000AA960FB6F894DEBF0FBECDBFDF91CF91E6
:105370001F9108950895CF93809127028823A1F06B
:10538000C091E900CF709091EC00892F817090FD61
:1053900080E8C82B1092E9008091E80083FD0E940C
:1053A0005A28CF70C093E900CF910895DB018F9305
:1053B0009F930E94452ABF91AF91A29F800D911D9E
:1053C000A39F900DB29F900D11240895AA1BBB1BA3
:1053D00051E107C0AA1FBB1FA617B70710F0A61BF5
:1053E000B70B881F991F5A95A9F780959095BC0116
:1053F000CD01089597FB072E16F4009407D077FD92
:1054000009D00E94E62907FC05D03EF490958195CD
:105410009F4F0895709561957F4F0895A1E21A2ED0
:10542000AA1BBB1BFD010DC0AA1FBB1FEE1FFF1F48
:10543000A217B307E407F50720F0A21BB30BE40B98
:10544000F50B661F771F881F991F1A9469F76095DF
:105450007095809590959B01AC01BD01CF01089599
:10546000EE0FFF1F0590F491E02D0994A29FB0016B
:10547000B39FC001A39F700D811D1124911DB29F88
:10548000700D811D1124911D08950E94362AA59F3B
:10549000900DB49F900DA49F800D911D112408952F
:1054A000FC014150504030F001900616D1F7319781
:1054B000CF010895882799270895F999FECF92BDC5
:1054C00081BDF89A992780B50895A6E1B0E044E03F
:1054D00050E00C94972AA8E1B0E042E050E00C9430
:1054E000972A262FF999FECF92BD81BDF89A019790
:1054F00000B4021639F01FBA20BD0FB6F894FA9A1C
:10550000F99A0FBE08950396272F0E94722A0E94CF
:10551000712A252F0E94722A242F0C94722A019638
:10552000272F0E94722A0C94712ADC01CB01FC0106
:10553000F999FECF06C0F2BDE1BDF89A319600B4EC
:0E5540000D9241505040B8F70895F894FFCFF7
:10554E0001020A0A0A01191A1B1C1D1E1F20212204
:10555E00D5012808140A321EBE225D233223FC22F6
:10556E00C1220166973594F4F5F633C69190000189
:10557E00020202020606060909090909090F0F0FA0
:10558E000F0F0F15151518191919191919191919A8
:10559E0019232400FF0100010000FFFF000001009D
:0455AE0001FF0000F9
:00000001FF
