:100000000C9475020C94BC020C94BC020C94BC02BF
:100010000C94BC020C94BC020C94BC020C94BC0268
:100020000C94BC020C94BC020C9456280C94282905
:100030000C941D200C94BC020C94BC020C94BC02C9
:100040000C94BC020C943E040C94BC020C94BC02B4
:100050000C9469040C9485200C94BC020C94BC0292
:100060000C94BC020C94BC020C94BC020C94BC0218
:100070000C94BC020C94BC020C94BC020C94BC0208
:100080000C94BC020C94BC020C94BC020C94BC02F8
:100090000C94BC020C94BC020C94BC020C94BC02E8
:1000A0000C94BC020C94BC020C94BC02F405F60542
:1000B0000106F805FA05FC05FE050006030605061F
:1000C0000706120609060B060D060F061106140692
:1000D00074157415A615A615EF150D168B178B172D
:1000E0004F168B17E816E8165A1763178B178417E5
:1000F000F516F516F516F516F516F516F516F516A8
:10010000F516F516F516F516F516F516F516F51697
:10011000061714171B1722172C171C181C182E183B
:100120002E1825182E182E182E181C181C182A18D0
:100130002E182E182A189529BC29B42ABC29B42AAD
:10014000082A2B2AB42A822A912A1601E2010600E3
:10015000E200125000001D011C012C042C00115063
:10016000C25C130008000A001000125000001703C0
:100170001801110308011050C25CC55CC75CC95C62
:10018000C35C10500000C65CC85CCA5CC45C115003
:10019000C25C00047F3F1F643214643214783C1E3A
:1001A0001E140A052223252628292A2C2D2F303219
:1001B000333536383A3B3D3E4042434547494A4C49
:1001C0004E5051535557595A5C5E60626466686977
:1001D0006B6D6F71737577797B7D7F81838587897F
:1001E0008A8C8E90929496989A9C9E9FA1A3A5A784
:1001F000A8AAACAEAFB1B3B4B6B8B9BBBCBEBFC1B0
:10020000C2C3C5C6C7C9CACBCCCDCED0D1D2D2D33A
:10021000D4D5D6D7D7D8D9D9DADADBDBDBDCDCDC4E
:10022000DCDCDDDDDDDDDCDCDCDCDCDBDBDBDADA11
:10023000D9D9D8D7D7D6D5D4D3D2D2D1D0CECDCC88
:10024000CBCAC9C7C6C5C3C2C1BFBEBCBBB9B8B69D
:10025000B4B3B1AFAEACAAA8A7A5A3A19F9E9C9A28
:1002600098969492908E8C8A89878583817F7D7BF6
:1002700079777573716F6D6B6968666462605E5CD7
:100280005A5957555351504E4C4A4947454342409D
:100290003E3D3B3A3836353332302F2D2C2A292833
:1002A00026252322FFAA7F55400000000000000001
:1002B000000000010101010101010101020202022D
:1002C00002020202030303030303030404040404FD
:1002D00005050505050606060606070707070808BB
:1002E00008080909090A0A0A0B0B0B0C0C0C0D0D66
:1002F0000D0E0E0E0F0F10101011111212131314F9
:1003000014151516161717181819191A1A1B1C1C6C
:100310001D1D1E1F1F2021212223232425252627C2
:100320002828292A2B2C2C2D2E2F303131323334F2
:1003300035363738393A3B3C3D3E3F4041424344F5
:1003400045464748494B4C4D4E4F505253545557D4
:1003500058595A5C5D5E606163646567686A6B6C7E
:100360006E6F7172747677797A7C7D7F81828486F4
:1003700087898B8D8E9092949597999B9D9FA1A232
:10038000A4A6A8AAACAEB0B2B4B6B9BBBDBFC1C337
:10039000C5C8CACCCED0D3D5D7DADCDEE1E3E6E8F7
:1003A000EAEDEFF2F4F7F9FCFF0403300000000E71
:1003B0000347005A00520038003900440000001280
:1003C000036B0075007300680069006D0061003800
:1003D0000000000403090409023B00020100A0FA26
:1003E000090400000103010100092111010001229B
:1003F00040000705810308000A0904010001030009
:100400000000092111010001228500070582032057
:10041000000A1201100100000008EDFE00000100BA
:100420000102030105010902A10185020901A100E0
:100430000509190129051500250195057501810298
:100440009501750381010501093009311581257F69
:1004500095027508810609381581257F9501750873
:100460008106050C0A38021581257F9501750881E2
:1004700006C0C005010980A10185031601002603FD
:10048000001A81002A8300751095018100C0050CB7
:100490000901A1018504160100269C021A01002A07
:1004A0009C02751095018100C005010906A1010596
:1004B0000719E029E71500250195087501810295C6
:1004C0000175088101050819012905950575019136
:1004D000029501750391010507190029FF150026F2
:1004E000FF00950675088100C00011241FBECFEFE4
:1004F000DAE0DEBFCDBF04B603FE27C08091300234
:1005000090913102A0913202B09133028730904B2A
:10051000A740B04BD1F410923002109231021092E9
:1005200032021092330214BE84B7877F84BF0FB6A5
:10053000F894A89580916000886180936000109283
:1005400060000FBEE0E0F8E3099511E0A0E0B1E043
:10055000E2E7F7E502C005900D92A436B107D9F79E
:1005600022E0A4E6B1E001C01D92A033B207E1F79A
:100570000E947E250C94B72B0C940000CF93C62FBD
:100580006091CB017091CC018091CD019091CE0111
:100590000E94A01E813061F018F0823089F01AC0EC
:1005A000CC2319F084E390E012C08DE290E00FC0FC
:1005B000CC2319F080E390E00AC08FE290E007C0FE
:1005C000CC2319F082E590E002C081E590E0CF9164
:1005D0000C94D003CF910895CF92DF92EF92FF92C7
:1005E000CF93DF936B017C010E94A01E8130A1F1AB
:1005F000E8F0823009F04BC02FEF81EE94E02150FB
:1006000080409040E1F700C000000E94430CD82FCA
:100610000E94400CC82F0E943D0C4D2F6C2F0E9451
:10062000EB0D24E04FEF60E080E02FC02FEF81EE74
:1006300094E0215080409040E1F700C000000E940B
:10064000430CD82F0E94400CC82F0E943D0C4D2F08
:100650006C2F0E94EB0D1BC02FEF81EE94E0215018
:1006600080409040E1F700C000000E94430CD82F6A
:100670000E94400CC82F0E943D0C4D2F6C2F0E94F1
:10068000EB0D29E040E060E08FEF0E94F10DC70123
:10069000B601DF91CF91FF90EF90DF90CF9008955A
:1006A0000895089508950F931F93CF93DF939C01AE
:1006B0003A9521153F4148F5EB018C0190FF03C0AD
:1006C00080EEFB01099511FF03C081EEFE01099543
:1006D00012FF03C082EEFE01099513FF03C083EEF3
:1006E000FE0109950115104180F084EEFE01099587
:1006F00085EEFE01099586EEFE01099587EEFE0165
:10070000DF91CF911F910F910994DF91CF911F91AC
:100710000F910895877091E001C0990F8A95EAF7CB
:10072000892F0E94021E0C943D1E0C948A03877030
:1007300091E001C0990F8A95EAF7892F0E94081E5F
:100740000C943D1E0C949703CF93DF93EC01805ED5
:100750009109089710F0209719F46AE873E002C035
:1007600065E973E0CE010E9453038C2FDF91CF9196
:100770000C949813CF93DF93EC010E94B614CE0132
:10078000805E9109089710F0209719F467E973E0EB
:1007900002C062EA73E0CE01DF91CF910C94530363
:1007A000CF93DF93EC010E94A403CE01DF91CF91A0
:1007B0000C94BA0381E0089581E008950C94DC0361
:1007C0001F93CF93DF9300D000D01F92CDB7DEB739
:1007D00049835A836B832091880189819A812111F1
:1007E00012C0662349F00E946E1D182F682F898160
:1007F0009A810E94151D03C00E94411D182F698116
:100800007A81812F04C00E946E1D69817A810F90C8
:100810000F900F900F900F90DF91CF911F910C943C
:100820008507FC01408151816281738184810C9430
:10083000E0030E944F110C94320AE82FE295EF700A
:10084000F0E032A1282F2F7081E090E001C0880FE6
:100850002A95EAF78095832382A30895E82FE295ED
:10086000EF70F0E032A1282F2F7081E090E001C0FE
:10087000880F2A95EAF7832B82A308951F920F927F
:100880000FB60F9211242F933F934F935F936F9363
:100890007F938F939F93AF93BF93EF93FF9386E6DE
:1008A0000E942E0487E90E942E0485E30E942E04F4
:1008B000FF91EF91BF91AF919F918F917F916F9138
:1008C0005F914F913F912F910F900FBE0F901F900E
:1008D00018951F920F920FB60F9211242F933F93EA
:1008E0004F935F936F937F938F939F93AF93BF9338
:1008F000EF93FF938091880090918900813091401F
:1009000048F086E60E941D0487E90E941D0485E3E5
:100910000E941D04FF91EF91BF91AF919F918F9124
:100920007F916F915F914F913F912F910F900FBEEB
:100930000F901F901895CF92DF92EF92FF92CF9376
:10094000C82F8430E0F481111BC080918800909101
:100950008900892B29F180916F008D7F80936F0032
:1009600080916F008E7F80936F0086E60E942E0438
:1009700087E90E942E0485E30E942E0411C0C3E083
:100980008091880090918900892B51F480916F00AB
:10099000826080936F0080916F00816080936F0010
:1009A0002C2F30E0AFEFBFEF0E94482B23E030E068
:1009B00040E050E00E94202BC9012C3764E136074B
:1009C00028F469E070E00E94F82A29C0DA01C90120
:1009D0008A50974DAF4FBF4F6627782F892F9A2F98
:1009E00025EF38E241E050E00E94202B69017A01B6
:1009F000CA01B9010E94E82A9B01AC01C701B601F6
:100A00000E94E82ABB27A92F982F872F009721E063
:100A1000A207B10511F0BC0102C06FEF7FEF709328
:100A2000890060938800CF91FF90EF90DF90CF9086
:100A30000895EF92FF920F931F93CF93DF93C3E23A
:100A4000D1E006E211E0EE24E394F12C8991E82F45
:100A5000E295EF70F0E091A1282F2F70A70102C05E
:100A6000440F551F2A95E2F79A01292B21A30E94D2
:100A70001D040C171D0751F782E08093800089E167
:100A8000809381008FEF9FEF909387008093860083
:100A9000DF91CF911F910F91FF90EF900C94F62270
:100AA0000E94F01E811102C00E947F1F0E94190542
:100AB0000E943C110C94300A0C9452030C945C0577
:100AC00008950E940A180E9460052FEF84E39CE0BD
:100AD000215080409040E1F700C0000087E797E791
:100AE00090930108809300080C94AB200F931F9300
:100AF000CF93DF938C010E941104EC01B8010E9496
:100B0000DE03882309F4F7C1B801CE010E94001268
:100B1000882309F4F0C1CA3CFCE5DF0741F4F80181
:100B20008281882309F4E7C10E94E80DE4C1CB3C2F
:100B30008CE5D80708F012C1C33C9CE5D90761F4E5
:100B4000F8018281882309F4D6C10E94EF1D8272C8
:100B5000E1F00E941B10CFC1C43CECE5DE07C0F001
:100B6000C63C9CE5D90709F4CAC008F0DCC0C43C07
:100B7000FCE5DF0709F0CBC0F8018281882309F486
:100B8000BAC10E94EF1D827221F30E940E10B3C100
:100B9000C531FCE5DF0708F07BC0C2308CE5D80723
:100BA00008F452C0F8018281882309F454C00E94DD
:100BB000F01E811102C00E947F1F0E94031F90E05F
:100BC0009093210280932002FE01E350FC45E23124
:100BD000F10530F4EA5AFF4F809120020C94422B29
:100BE00080912002816027C0826025C0846023C07C
:100BF000806121C080621FC080641DC080681BC0EE
:100C00008460886018C08E7F16C08D7F14C08B7F73
:100C100012C08F7E10C08F7D0EC08F7B0CC08F776F
:100C20000AC08B7F877F07C087FB222720F991E0CE
:100C3000922790FB87F980932002809120020E94E6
:100C4000071F0E940A1857C1C1159CE5D90751F02A
:100C5000C130DC4579F0C801DF91CF911F910F9130
:100C60000C94DA03F8018281882309F444C10E94BC
:100C7000610541C1F8018281882309F43CC180915A
:100C8000E001982F909590FB80F98093E00133C1AB
:100C9000C631FCE5DF0739F50E94EF1D982FF801FA
:100CA00082812091100130911101882379F09A7A84
:100CB00081E009F480E080936401911102C069E24F
:100CC00001C065E3C9010E94B41F0AC0809164019C
:100CD000811102C069E201C065E3C9010E94B61F2B
:100CE0000E943D1E08C1C23CDC4509F0B4CFF801AA
:100CF0008281882309F4FFC00E942910FCC0F801FA
:100D00008281882309F4F7C00E94AC0DF4C0C53C71
:100D1000DC4509F0A0CFF8018281882309F4EBC0FB
:100D20000E949F0DE8C0F8018281C83CFCE5DF0706
:100D300031F4882309F4DFC00E94CA0DDCC0C93C2D
:100D4000DC4530F4882309F4D6C00E94BB0DD3C023
:100D5000882309F4D0C00E94D90DCDC0C13DECE577
:100D6000DE0791F4F8018281882309F4C4C00E944F
:100D7000130C8F3028F00E94130C843108F405CF37
:100D80008FE00E941E10B7C0C23DFCE5DF0708F0EF
:100D90005AC0CD3C8CE5D80739F4F801828188230C
:100DA00009F4A9C081E0EDCFCE3C9CE5D907C0F4A1
:100DB000CB3CECE5DE0741F4F8018281882309F49D
:100DC0009AC00E941B0C97C0CC3CDC4509F043CF75
:100DD000F8018281882309F48EC00E942C0C8BC0FC
:100DE000F8018281CF3CFCE5DF0771F4882309F428
:100DF00082C00E94130C863028F00E94130C8830A9
:100E000008F4C3CE86E0BDCFC03DDC4570F4882336
:100E100009F471C00E94130C823028F00E94130C58
:100E2000853008F4B2CE82E0ACCF882309F463C0E9
:100E30000E94130C893028F00E94130C8E3008F4A5
:100E4000A4CE89E09ECFC53DECE5DE0739F4F8017C
:100E50008281882309F44FC083E293CFC63DFCE52D
:100E6000DF0740F5F8018281C33DFCE5DF0729F487
:100E7000882309F440C088E184CFC43DDC4568F490
:100E80008823C9F10E94130C853128F00E94130CAD
:100E9000873108F47ACE85E174CF882361F10E940E
:100EA000130C893128F00E94130C823208F46DCEA5
:100EB00089E167CFCD3DECE5DE0741F4F8018281A1
:100EC0008823C9F082E00E941D2615C0CE3DFCE5B6
:100ED000DF0739F4F8018281882369F00E947F1FBF
:100EE0000AC0CC3DDC4509F0B6CEF80182818823EA
:100EF00011F080E0E8CF80E0DF91CF911F910F915A
:100F0000089580E090E0089508952CE0829FC0014C
:100F10001124FC0126E0729FE00DF11D1124E60F63
:100F2000F11DEE0FFF1FE65BFE4F85919491089532
:100F3000880F991FFC01EE56FE4F859194910895FC
:100F4000CF93DF930E9485070E949109EC018115E0
:100F500021E5920708F042C0811540E5940708F0AA
:100F60002FC1883E910500F5803E910508F0D5C15E
:100F7000883A910570F4853A910508F0A4C0813053
:100F8000910509F4CAC108F47BC1049708F0C5C1F2
:100F900077C18F3B910508F4A1C0803C910508F40E
:100FA0006FC1805C9109FBC0C11580E3D80780F454
:100FB000C11520E2D20708F0F0C0C03FD10508F407
:100FC0005FC1CF3FD10511F008F0A7C1D065A5C121
:100FD000C11540E4D40708F0F0C0E5C0C11589E5AB
:100FE000D80760F5C11528E5D20708F035C1C1154D
:100FF00044E5D40778F4C11583E5D80708F011C19A
:10100000C11522E5D20708F0F6C0DC2FCC27C16F4E
:10101000D06A83C1C11545E5D40708F418C1C115CC
:1010200086E5D80708F02CC18C2F0E940D0A8F711D
:10103000C82FD0E0DC2FCC27D0626FC1CD3B2CE590
:10104000D20709F414C1F0F4CB3B8CE5D80709F4BE
:1010500008C108F009C1C1154AE5D40708F010C15C
:101060008C2F8F700E940D0A94E0D695C7959A95A3
:10107000E1F7CF70D0E0DC2FCC27D06A8F70806E84
:10108000C82B4BC1C03C8CE5D80709F4F6C060F40E
:10109000CE3B4CE5D40709F4EDC0CF3BDC4509F06D
:1010A000EFC0C0E0D2ED39C1CE019056811590421B
:1010B00008F0E6C08D2F8F710E940D0ADD27D062E7
:1010C0008F71D82B2AC1853A910509F4DCC0863A84
:1010D000910509F0DBC0C2E8D0E41FC1883A910550
:1010E00009F4D7C0893A910509F4D6C08A3A910526
:1010F00009F4D5C08B3A910509F4D4C08C3A910516
:1011000009F4D3C08B3B910509F4D2C08C3B910507
:1011100009F4D1C08D3A910509F4D0C0803B910506
:1011200009F4CFC08E3A910509F4CEC08F3A9105EB
:1011300009F4CDC0813B910509F4CCC0823B9105F7
:1011400009F4CBC0833B910509F4CAC0843B9105E7
:1011500009F4C9C0853B910509F4C8C0863B9105D7
:1011600009F4C7C0873B910509F4C6C0883B9105C7
:1011700009F4C5C0893B910509F4C4C08D3B9105B4
:1011800009F4C3C08E3B910509F4C2C08A3B9105A6
:1011900009F4C1C0C0E0D4E4C0C0CE019F700E9479
:1011A0009807EC01BAC0CE019927D3FF03C0EC0128
:1011B000D86CB3C0EC01D06CB0C0DF70D06AADC0E9
:1011C00074E0969587957A95E1F783709C2F9370DC
:1011D00021E030E002C0220F331F9A95E2F73C680D
:1011E000382BCF70C695C69540E2C49FE00111240C
:1011F000C22BD32B92C0CE018370992721E030E01F
:1012000002C0220F331F8A95E2F78C2F86958695B0
:1012100040E2849FC0011124E901C82BD92BDC686E
:101220007CC0CE018370992721E030E002C0220FFC
:10123000331F8A95E2F78C2F8695869540E2849F2E
:10124000C0011124E901C82BD92BDA6866C0DC2F54
:10125000CC27C46FD06A61C0DC2FCC27C06FD06AA6
:101260005CC0C0E0D4ED59C0C0E0D5ED56C0C0E0D0
:10127000D1ED53C0C0E0D0ED50C0C0E0D3ED4DC0C3
:10128000C0E0D0E04AC0C1E8D0E447C0C3E8D0E441
:1012900044C0C2EED4E441C0C9EED4E43EC0CAEEBC
:1012A000D4E43BC0C5EBD4E438C0C6EBD4E435C0CD
:1012B000C3EBD4E432C0C4EBD4E42FC0C7EBD4E416
:1012C0002CC0CCECD4E429C0CDECD4E426C0C3E8D7
:1012D000D5E423C0CAE8D5E420C0C2E9D5E41DC0E6
:1012E000C4E9D5E41AC0C1E2D6E417C0C3E2D6E42B
:1012F00014C0C4E2D6E411C0C5E2D6E40EC0C6E212
:10130000D6E40BC0C7E2D6E408C0CFE6D4E405C0FB
:10131000C0E7D4E402C0CAE2D6E4CE01DF91CF91A7
:1013200008958238910549F1B0F48133910509F4AB
:1013300059C048F48932910509F44FC08A329105A9
:1013400009F455C008958533910509F441C08933E6
:10135000910599F00895833E910531F138F4803E6E
:10136000910591F0823E9105A9F00895863E910580
:1013700001F1873E910539F108952091200220FD69
:101380003BC021FD39C008958091200280FF34C008
:1013900089E341C08091200282FF30C08091200209
:1013A00084FD2EC083EE37C08091200282FD26C0CE
:1013B000F5CF8091200283FF25C08091200284FD1B
:1013C0001FC087EE28C08091200283FD1BC0F5CF8F
:1013D0008091200285FD18C019C08091200285FDF2
:1013E00015C012C08091200286FD12C013C08091EA
:1013F000200286FD0FC00CC080EE0DC082EE0BC037
:1014000080E009C086EE07C089E205C085E303C01D
:101410008AE201C081E390E008959091200292FF5A
:101420000DC0282F2871283019F4877F846006C0EA
:10143000282F2471243011F48B7F886093FF0DC016
:10144000282F2871283119F4877E846106C0282F3F
:101450002471243111F48B7E886194FD877E089578
:101460000C9450030C945103E82FF0E0EB59FE4F1D
:10147000808108950895CF93DF935198599A509899
:10148000589AA6E2B1E04CE251E061E070E08D9143
:10149000E82FE295EF70F0E021A18F70EB0102C020
:1014A000CC0FDD1F8A95E2F7CE019C2F90959223F9
:1014B00091A392A1892B82A34A175B0741F710924F
:1014C000670110926501109268011092660182E036
:1014D0000E94FC0ADF91CF910C9450055F926F92AD
:1014E0007F928F929F92AF92BF92CF92DF92EF92B4
:1014F000FF920F931F93CF93DF936CE271E0A7E607
:10150000B1E029E6A22E21E0B22E612C01E010E02C
:101510006D015C901C92EB018991BE01E82FE29570
:10152000EF70F0E021A18F70A80102C0440F551F99
:101530008A95E2F7CA01242B21A322A1942E90942C
:10154000292122A350EA5A95F1F796E2E92E91E07B
:10155000F92E40E050E0E70189907E01282D229588
:101560002F7030E0E90128A17C9030E0D82DDF70A9
:1015700002C035952795DA95E2F720FD08C0302F97
:10158000042E01C0330F0A94EAF7232F01C020E094
:1015900027292C934F5F5F4F46305105E1F691A10B
:1015A000992291A292A1892B82A3119681E0F60142
:1015B0009081951101C080E0682AAA16BB0609F047
:1015C000A7CF262D42E065E671E087E691E00E9414
:1015D000FD0A0E941904862DDF91CF911F910F9172
:1015E000FF90EF90DF90CF90BF90AF909F908F9043
:1015F0007F906F905F9008950895FF920F931F93CF
:10160000CF93DF938C01F62ED72FC42F222349F0DE
:1016100081E080936B010E944F2090936A01809338
:10162000690180916B018823C1F0809169019091DB
:101630006A010E945B20069780F0EF2DFD2FD801F4
:101640004C2F50E0CD01801B910B841795071CF4A3
:101650008D918193F7CF10926B01DF91CF911F9104
:101660000F91FF900895CF92DF92EF92FF920F9328
:101670001F93CF93DF93362F472F282FE82FF0E0CB
:10168000711106C0E755FD4F6491762F862F7BC000
:10169000072F10E056E0659FC0011124CFEFD0E086
:1016A000BE010E94F82A5BEA5603C001579F900DC5
:1016B0001124830F911D830F911D982F990F980F5F
:1016C0007E01E01AF10AEE9ED001EF9EB00DFE9E63
:1016D000B00D11248B2F499FA0011124452F5527B0
:1016E0007E01E41AF50AEE9EA001EF9E500DFE9ECB
:1016F000500D11246E01C91AD108C09E7001C19EFF
:10170000F00CD09EF00C11240F2D1127C01BD10B13
:10171000CE9F8001CF9F100DDE9F100D11246230EF
:10172000710591F048F461157105E1F061307105C2
:10173000B1F49B2FE52F0AC06430710569F040F0C9
:101740006630710579F00BC0912FEB2F822F0DC001
:10175000922FEB2F852F09C0922FE12F06C0952FD6
:10176000E22F03C09B2FE22F812FF0E0E755FD4FC2
:101770007491E82FF0E0E755FD4F6491E92FF0E018
:10178000E755FD4F8491DF91CF911F910F91FF900D
:10179000EF90DF90CF9008950895CF93DF93762F49
:1017A000E901682F842F0E94330B798368838A8331
:1017B000DF91CF9108958091F701282F269530E091
:1017C0002115310519F48170826005C0253231057B
:1017D00024F0817088648093F701089588E090E098
:1017E0000C94772BCF92DF92EF92FF926B017C01EA
:1017F0000E94DB0BB701A60188E090E0FF90EF901C
:10180000DF90CF900C94952BE7EFF1E083E080839D
:1018100011828FEF82838383148260817181828140
:1018200093810C94F20B8091F70180FF02C08695A2
:10183000089580E008958091FB01833018F48F5F54
:101840008093FB016091F7017091F8018091F9019B
:101850009091FA010C94F20B8091FB01882319F00E
:1018600081508093FB016091F7017091F8018091A4
:10187000F9019091FA010C94F20B8091F80108950E
:101880008091F90108958091FA0108956091040111
:1018900070E08091F70180FF0AC08091700123E021
:1018A000829FC001112484509E4F0C943711809167
:1018B0006F0190910301891780F7E82FF0E09F01F5
:1018C000220F331FE20FF31FE450FE4F11821082EC
:1018D00012828F5FF0CF9091F70190FF16C0909128
:1018E0006F0120910301921770F4E92FF0E0DF01FE
:1018F000AA0FBB1FEA0FFB1FE450FE4F81836083DA
:1019000042839F5FF0CF0C94460C0895CF93DF93F2
:1019100000D01F92CDB7DEB79091F70190FF0AC0BB
:101920009E012F5F3F4F0E94CD0B4B8169818A81C1
:101930000E946B0C0F900F900F90DF91CF91089544
:10194000CF93DF93EC01EC81F0E0EC55FE4F449136
:10195000E7EFF1E0628181810E94860C8C818F5FCC
:101960008C83DF91CF910895CF93DF93EC01E7EF64
:10197000F1E0438162818C810E94860C8C818F5FB3
:101980008C83DF91CF9108950F931F93CF93DF93B3
:1019900000D01F92CDB7DEB78C0180916C01811110
:1019A0000AC09E012F5F3F4F4FEF6FEF0E94CD0B9C
:1019B0008A8180936C01F8018481813051F028F094
:1019C000823061F440916C010AC080916C0140E06A
:1019D00007C060916C0140E080E003C040E080E01F
:1019E00060E00E946B0CF801848190E0019663E056
:1019F00070E00E940C2B84830F900F900F90DF916A
:101A0000CF911F910F910895AF92BF92CF92DF9225
:101A1000EF92FF920F931F93CF93DF9300D01F920B
:101A2000CDB7DEB7182FF62E042FE22E9091F701D6
:101A300090FF6DC0E92FE695AE2FB0E0A25DBE4FDE
:101A40008C91809378019E7F923061F49E012F5F8C
:101A50003F4F812F0E94CD0B4B8169818A810E946B
:101A60006B0C43C0823019F40091FA013EC08630FD
:101A700019F41091F80139C08930D9F38931A9F5E9
:101A8000E9518E2F8170D82EE695F0E0EC55FD4F90
:101A9000A590B490C12CBB2460910201C61618F524
:101AA0002C2D30E0A29EC001A39E900DB29E900D01
:101AB000112470E00E94F82A812FD11002C0860FF5
:101AC00001C0861B90916F01290F311DA901440FA0
:101AD000551F240F351F24503E4F402F6F2D0E945D
:101AE000CD0BC394D9CF0E94460C1093F801F0920D
:101AF000F9010093FA01EE2051F06091F701709125
:101B0000F8018091F9019091FA010E94F20B0F9077
:101B10000F900F90DF91CF911F910F91FF90EF9059
:101B2000DF90CF90BF90AF900895E7EFF1E0918103
:101B3000282F4381628188E0890F0C94040D81E095
:101B40000C94950DE7EFF1E09181282F438162819C
:101B500088EF890F0C94040D81E00C94A20DE7EF3F
:101B6000F1E0628121E1620F08F46FEF282F4381D9
:101B700081810C94040D81E00C94AF0DE7EFF1E04E
:101B8000628121E1621B08F460E0282F438181819A
:101B90000C94040D81E00C94BE0DE7EFF1E043815D
:101BA00021E1420F08F44FEF282F628181810C94CC
:101BB000040D81E00C94CD0DE7EFF1E0438121E1CC
:101BC000421B08F440E0282F628181810C94040DAF
:101BD00081E00C94DC0D21E00C94040D20E00C94C9
:101BE000040D9091F70190FF10C02A3070F430E09E
:101BF000F901EE0FFF1F2E0F3F1FF901E450FE4FBA
:101C00008183608342830C94460C0895FF920F9366
:101C10001F93CF93DF93EC01F12C0FEF10E0609155
:101C20000201F616F0F480916F012F2D30E0280F9D
:101C3000311DC901880F991F280F391F24503E4FAD
:101C400070E0C8010E940C2B962F8C814091FA0104
:101C50006091F901F99E800D11240E94CD0BF3943F
:101C6000DECF0E94460C9A818C8190FF02C08F5F6C
:101C700001C081508C83DF91CF911F910F91FF9014
:101C80000895BF92CF92DF92EF92FF920F931F932E
:101C9000CF93DF93FC01828180FF02C00FEF01C070
:101CA00001E010E0809102011817E0F580916F01CA
:101CB000C12ED12CE601C80FD11DCE01880F991F6E
:101CC000C80FD91FC450DE4F198218821A8234E01F
:101CD000E32EF12CB12C80916E018B0D87FF03C098
:101CE00090910201890F082E000C990BC816D90695
:101CF00091F48091FA018E9DA0018F9D500D1124C9
:101D000055954795559547959E016091F9018091AC
:101D1000F8010E94CD0BB00EF1E0EF1AF108D9F6F0
:101D20001F5FC0CF0E94460C80916E01013031F4DC
:101D3000811102C080910201815007C090E001969C
:101D40006091020170E00E940C2B80936E01DF9184
:101D5000CF911F910F91FF90EF90DF90CF90BF90A8
:101D60000895CF9380916F0190910301891770F4CA
:101D7000E82FF0E09F01220F331FE20FF31FE45022
:101D8000FE4F1182108212828F5FF0CFC0E060910F
:101D90000201C617C0F5EC2FF0E070E0CF010E9401
:101DA0000C2B20916F01820F20916D01022E000CEF
:101DB000330B90E0E217F307CCF020910101022EE3
:101DC000000C330B2E173F078CF09C01220F331FA2
:101DD000820F931F9C0124503E4F4091FA01609165
:101DE000F9018091F8010E94CD0B0BC0FC01EE0FB0
:101DF000FF1F8E0F9F1FFC01E450FE4F11821082C7
:101E00001282CF5FC4CF0E94460C209100018091C6
:101E10006D01820F80936D0190910101920F90935B
:101E2000010119165CF4082E000C990B4091020177
:101E300050E041505109841795071CF021952093DB
:101E40000001CF9108950F931F93CF93DF938C01DF
:101E5000FC01848195810196817099279583848303
:101E6000C0E0D5E580910201C81700F580916F01AF
:101E70002C2F30E0280F311DC901880F991F280F22
:101E8000391F24503E4F4C2F4695F801848195818F
:101E9000840F911D81704091FA016091F9018D9F2D
:101EA000802D11240E94CD0BCF5FDCCFDF91CF912D
:101EB0001F910F910C94460C0F931F93CF93DF93B8
:101EC000EC0100E010E080910201282F30E00217C1
:101ED000130724F590916F019801290F311DA90175
:101EE000440F551F240F351F24503E4F869590E018
:101EF0004C81081719071CF4442331F002C041112A
:101F000003C04091FA0101C040E06091F901809165
:101F1000F8010E94CD0B0F5F1F4FD5CF0E94460CDA
:101F20008C8190E00196817099278C83DF91CF910D
:101F30001F910F910895E7EFF1E080818E7F8083FC
:101F400060817181828193810E94F20B10927901EC
:101F50002FEF80E792E0215080409040E1F700C0F1
:101F600000000C94460C6091F701669570E04BE020
:101F700050E085E091E00E94622B892B19F481E00A
:101F8000809379010E944F20909372018093710198
:101F900008959091F70190FF35C09170811102C0B2
:101FA000926006C0853210F0986402C0880F982BAA
:101FB0009093F701662351F06091F7017091F80159
:101FC0008091F9019091FA010E94F20B6091F70162
:101FD000669570E04BE050E085E091E00E94622B56
:101FE000892B19F01092790102C00E94B30F81E091
:101FF000809374014091FA016091F9018091F80198
:102000000C94EE0D0895682F9091F701969581E05C
:10201000890F853208F081E00C94C90F81E00C949F
:102020000310682F9091F70196958FEF890F09F4AF
:1020300084E20C94C90F81E00C94111061E00C94BF
:10204000C90FE7EFF1E080818160808386950C9471
:102050001E108091F70180FD0C949B0F0C942110B1
:1020600060E00C94C90F80917701811133C0809199
:10207000E00181608093E0010E94F01E811104C0A4
:102080000E947F1F0E94040C0E94EE0B6093F701D8
:102090007093F8018093F9019093FA016E7F61F4D7
:1020A0000E94040C0E94EE0B6093F7017093F801FC
:1020B0008093F9019093FA010E94DB0B1092790151
:1020C0008091F70180FF03C086950E94301081E067
:1020D0008093770108950F931F93CF93DF9380919F
:1020E0007901882309F48CC080917801E091F7018F
:1020F000E695E81BE0937301823049F4F0E0E05686
:10210000FE4FE491CE2FD0E000EA1CE049C08630BB
:1021100049F4F0E0E356FE4FE491CE2FD0E004EB1B
:102120001CE03EC0893051F4E695F0E0E656FE4FE3
:10213000E491CE2FD0E006E01EE032C08F3051F4A3
:10214000E695F0E0E956FE4FE491CE2FD0E001E4B1
:102150001EE026C0853149F4F0E0EC56FE4FE491D4
:10216000CE2FD0E001EB1EE01BC0883181F083321E
:1021700039F4E2E9F1E0C591D49104EC1CE010C01F
:10218000843251F4C4EFD1E00CE51FE009C0C8EE81
:10219000D3E003E21FE004C0C0EDD7E00CEC1BE08D
:1021A00080917401882389F0109274010E944F205D
:1021B0009E0120953095820F931F9093720180931A
:1021C00071011092760110927501809171019091C8
:1021D00072010E945B208C179D0790F0E0917101C5
:1021E000F0917201CE0FDF1FD0937201C093710185
:1021F00081E791E0F801DF91CF911F910F91099450
:10220000DF91CF911F910F9108952BB1342F30950D
:1022100023233BB1432B3FB7F894FC01680F791F90
:10222000E617F70789F0819198E04BB9000000C0EC
:1022300087FF2BB9880F000000C000C000C02BB979
:1022400000C09A9591F7ECCF3FBF08952AB1242B97
:102250002AB99B01220F331F620F731F0E940511C1
:1022600087EC90E00197F1F700C00000089548E086
:102270000C9426110C94BE0287988F9A2198299A63
:102280008FB190E0880F892F881F990B199902C090
:1022900020E001C022E0822B80937B0108952091F1
:1022A0007B01220F220F20937B018FB190E0880FDA
:1022B000892F881F990B33B131FBEE27E0F9F0E04D
:1022C00031FF02C0E2E0F0E0E82BF92BE22BE093D3
:1022D0007B01EF70F0E0ED5AFE4F908180917A0122
:1022E000890F80937A01843024F060E080E00E94BE
:1022F0003A1180917A018D3F24F461E080E00E94E0
:102300003A1180917A01837887FF03C081508C6FE6
:102310008F5F80937A0108950F931F93CF93DF937C
:10232000C62FD42F122FFC0182818823C9F060931D
:102330007E010E944F2090937D0180937C0180E27A
:102340008C0F883008F057C0C77081E001C0880F3B
:10235000CA95EAF7DF91CF911F910F910C94311537
:1023600080917E01681330C080917C0190917D0145
:102370000E945B20883C910538F500E20D0FCD17D7
:10238000B9F080E28C0F883040F4C77081E001C062
:10239000880FCA95EAF70E943815083028F581E0C1
:1023A0009D2F977001C0880F9A95EAF70E9431150A
:1023B000812F0E941E150830F0F4D77081E001C013
:1023C000880FDA95EAF70AC080E28C0F883098F41B
:1023D000C77081E001C0880FCA95EAF7DF91CF91FD
:1023E0001F910F910C943815812FDF91CF911F9180
:1023F0000F910C941E15DF91CF911F910F910895AD
:102400009C01CB01203F4CE53407F9F078F4283DDE
:10241000FCE53F07B9F0293D4CE5340711F1273DB4
:102420003C4531F526E241EE61EE1EC0223FFCE55F
:102430003F0799F070F0233F3C45D1F427E245EE89
:1024400066EE12C027E245EE0EC026E241EE60EED7
:102450000BC027E245EE64EE07C026E241EE62EED5
:1024600003C028E241E065EE0E948C1180E00895EF
:10247000FC018281882319F010927E01089581E089
:10248000089590938401809383010895E0918301DE
:10249000F0918401309721F00190F081E02D0994B2
:1024A00080E00895E0918301F0918401309721F05C
:1024B0000280F381E02D09940895E0918301F09169
:1024C0008401309739F022E0DC012C930480F581FF
:1024D000E02D0994089520918101309182012817FF
:1024E000390771F09093820180938101E09183011B
:1024F000F0918401309721F00680F781E02D099456
:10250000089520917F01309180012817390771F0DB
:102510009093800180937F01E0918301F091840189
:10252000309721F00084F185E02D0994089585B756
:10253000806885BF85B7806885BF089508950C942D
:102540009E120C949F120C949E120C949E120E9448
:1025500097120E94A3120C94A11281E008950E9488
:1025600046200E943B0A0E94BC200E94F6220E9444
:1025700033100C94A512BF92CF92DF92EF92FF928C
:102580000F931F93CF93DF93CDB7DEB72A970FB684
:10259000F894DEBF0FBECDBF0E946E0A0E94AD123E
:1025A000811111C08FEF89838A831B820E944F2083
:1025B0008160782F9D838C8349815A816B818D81C5
:1025C0000E94641354C086E8C82E81E0D82E00E033
:1025D00010E0B02E802F0E94340AE82EF6012191DF
:1025E0006F01F82EF22631F40F5F1F4F02301105F4
:1025F000C9F2EFCF8091E00181FD0E943A0A80E0AC
:1026000090E02F2D30E0482FB901082E02C07595BB
:1026100067950A94E2F760FF25C08E83BF8281E050
:1026200090E06C0102C0CC0CDD1C4A95E2F72E2D27
:1026300030E02C213D21232B09F480E088870E9483
:102640004F208160782F9A8789874E815F816885C6
:102650008A850E946413F801EA57FE4F80818C2519
:10266000808305C001968630910569F6BDCF0E9432
:102670004F220E944612909185018917A9F00E946D
:102680004612809385012A960FB6F894DEBF0FBEDE
:10269000CDBFDF91CF911F910F91FF90EF90DF9011
:1026A000CF90BF900C945E052A960FB6F894DEBFCB
:1026B0000FBECDBFDF91CF911F910F91FF90EF9093
:1026C000DF90CF90BF900895CF93DF93CDB7DEB763
:1026D0002B970FB6F894DEBF0FBECDBF4F83588740
:1026E00069877A878B87DE01119686E0FD0111925A
:1026F0008A95E9F785E0FE01379601900D928A955B
:10270000E1F749815A816B817C818D819E810E9494
:10271000DA1A2B960FB6F894DEBF0FBECDBFDF914D
:10272000CF910895FC01808191810E94B01D089590
:10273000882309F41AC18238C1F40E94461281FD2F
:1027400014C169E380911001909111010E94B41F9E
:102750000E943D1E2FEF81EE94E02150804090407A
:10276000E1F700C0000069E319C08338F9F40E9462
:10277000461280FDFAC063E580911001909111012D
:102780000E94B41F0E943D1E2FEF81EE94E0215065
:1027900080409040E1F700C0000063E580911001A7
:1027A000909111010E94B61F0C943D1E8438C1F413
:1027B0000E94461282FDD9C067E480911001909179
:1027C00011010E94B41F0E943D1E2FEF81EE94E084
:1027D000215080409040E1F700C0000067E4DECF68
:1027E0009CEF980F913A40F4682F809110019091DE
:1027F00011010E94B41FD8CF90E2980F983050F486
:10280000877091E001C0990F8A95EAF7892F0E949D
:10281000F21DCACF9BE5980F933070F4853A29F0EA
:10282000863A31F083E890E005C081E890E002C08C
:1028300082E890E00C946B1298E5980F973108F0BD
:102840008EC0883A09F445C0893A09F445C08A3AED
:1028500009F445C08B3A09F445C08C3A09F445C0E7
:102860008B3B09F445C08C3B09F445C08D3A09F413
:1028700045C0803B09F445C08E3A09F445C08F3A03
:1028800009F445C0813B09F445C0823B09F445C0C9
:10289000833B09F445C0843B09F445C0853B09F4FA
:1028A00045C0863B09F445C0873B09F445C0883BD9
:1028B00009F445C0893B09F445C08D3B09F445C086
:1028C0008E3B09F445C08A3B09F445C080E090E0A6
:1028D00044C082EE90E041C089EE90E03EC08AEEB6
:1028E00090E03BC085EB90E038C086EB90E035C0CF
:1028F00083EB90E032C084EB90E02FC087EB90E058
:102900002CC08CEC90E029C08DEC90E026C083E8D0
:1029100091E023C08AE891E020C082E991E01DC0E7
:1029200084E991E01AC081E292E017C083E292E06C
:1029300014C084E292E011C085E292E00EC086E20B
:1029400092E00BC087E292E008C08FE690E005C0FD
:1029500080E790E002C08AE292E00C948112803F0E
:1029600020F00E9457210C9444220895882309F4F2
:1029700064C0823879F40E94461281FF5EC069E328
:1029800080911001909111010E94B41F0E943D1E80
:1029900069E310C08338B1F40E94461280FF4DC035
:1029A00063E580911001909111010E94B41F0E9473
:1029B0003D1E63E580911001909111010E94B61FA8
:1029C0000C943D1E843879F40E94461282FF35C073
:1029D00067E480911001909111010E94B41F0E9440
:1029E0003D1E67E4E7CF9CEF980F913A10F4682FF3
:1029F000E1CF90E2980F983050F4877091E001C0D9
:102A0000990F8A95EAF7892F0E94F81DD9CF9BE587
:102A1000980F933020F480E090E00C946B1298E5CE
:102A2000980F973120F480E090E00C948112803F61
:102A300020F00E94BF210C9444220895CF93C82F08
:102A40000E949813C93349F42FEF87EE93E0215089
:102A500080409040E1F700C000008C2FCF910C9493
:102A6000B614882321F00E94F21D0C943D1E089597
:102A7000882321F00E94F81D0C943D1E08958F922A
:102A80009F92AF92BF92DF92EF92FF920F931F93AC
:102A9000CF93DF937C01062FC72FFC011581129580
:102AA0001F70D281D1110E940F1E0E94E81D882341
:102AB00079F0DD2369F080E2800F883048F082E011
:102AC0000E94871E0E94E81D91E0D82ED92601C0E1
:102AD000D12CBC2EB2948FE0B8228B2D90E0FC015B
:102AE000E859FF4F0C94422B8C2F807FCF708823A6
:102AF00011F0C295C07FDD2399F0CC2309F4C5C144
:102B000080E2800F883010F0011104C08C2F0E94E9
:102B1000F21D03C08C2F0E94021E0E943D1EB5C1F3
:102B2000802F0E94B614CC2309F4F5C180E2800FF7
:102B3000883010F0011104C08C2F0E94F81D03C0D2
:102B40008C2F0E94081E0E943D1EE5C18C2F807FA5
:102B5000CF70803211F0C295C07F002319F0013090
:102B6000C9F022C0DD2371F0112341F0113031F49E
:102B70000E94221E8C2B0E942A1ECDC10E94221E62
:102B80008C2B3BC1112319F0113009F4C4C10E94F0
:102B9000331E23C0DD2321F0163008F0BCC10EC067
:102BA000153008F0B8C119C0DD2351F0112331F000
:102BB000F701858180FF69C18F7085838C2F1DC1CE
:102BC000112359F0093309F071C1FFEF27EE83E0BB
:102BD000F15020408040E1F767C18C2F14C18C2F49
:102BE00086958695837019F0813061F094C1DD235C
:102BF00021F0802F9C2F937002C080E090E00E9413
:102C00006B1296C1DD2321F0802F9C2F937002C0A0
:102C100080E090E00E9481128BC1DD23F9F0053F36
:102C200051F0063F71F0043FA9F480911A0290918F
:102C30001B0281600BC080911A0290911B0282607E
:102C400005C080911A0290911B02846090931B0230
:102C500080931A02802F0E9457211EC0053F51F019
:102C6000063F71F0043FA9F480911A0290911B0273
:102C70008E7F0BC080911A0290911B028D7F05C040
:102C800080911A0290911B028B7F90931B0280937C
:102C90001A02802F0E94BF210E94442249C18C2F1A
:102CA000837009F047C0D1113FC1202F229526958E
:102CB0002770220F220F602F6F70862F90E0A0E008
:102CC000B0E04C015D01022E04C0880C991CAA1CC6
:102CD000BB1C0A94D2F704FF10C08FE090E0A0E084
:102CE000B0E004C0880F991FAA1FBB1F2A95D2F716
:102CF00080959095A095B09503C080E090E0DC01B0
:102D0000C695C695C370BC01CD01682979298A2969
:102D10009B29C23049F058F4C13019F00E942B1C95
:102D200003C10E94191C00C10E943D1CFDC00E94ED
:102D3000171CFAC0DD2319F08C2F817001C0869515
:102D4000882309F4F1C0202F229526952770220FA1
:102D5000220F602F6F70862F90E0A0E0B0E04C0152
:102D60005D01022E04C0880C991CAA1CBB1C0A948D
:102D7000D2F704FF10C08FE090E0A0E0B0E004C004
:102D8000880F991FAA1FBB1F2A95D2F7809590958F
:102D9000A095B09503C080E090E0DC01C695C69593
:102DA000C370BC01CD01682979298A299B29C230C9
:102DB00049F058F4C13019F00E94F01CB5C00E94CF
:102DC000DE1CB2C00E94021DAFC00E94511CACC0EC
:102DD000802F90E0FC01E05EF109E531F10508F09B
:102DE00050C0E858FF4F0C94422B0F708C2F8F71FE
:102DF000DD2331F00E94771C802F0E9431158BC09B
:102E00000E94981C802F0E94381585C0DD2341F058
:102E1000153008F080C08C2F8F710E94BD1C7BC0C4
:102E2000163008F078C0F7CFDD2339F08C2F8F7182
:102E30000E94771C70C0DD23C9F38C2F8F710E9414
:102E4000981C69C0DD2329F08C2F8F710E94621CB1
:102E500062C00E945D1C5FC0DD2349F0CF718C2FE2
:102E60000E94771C63E08C2F0E94721E54C081E088
:102E70000E94871E123008F44EC082E00E94871E16
:102E80004AC0DD2331F0112389F2802F0E9498136C
:102E900042C0112391F2093349F49FEFE7EEF3E0CA
:102EA0009150E040F040E1F700C00000802F0E9408
:102EB000B61431C04C2F4F70602FC7010E9481079C
:102EC0000E94881B35C0D11133C0CF70C23091F041
:102ED00038F4CC2361F0C130F1F40E943A2328C0C9
:102EE000C43071F050F0C530B1F480E00AC00E94E7
:102EF00017231EC00E9481231BC00E94882318C074
:102F000083E00E94B12314C04C2F4F70602FC70183
:102F10000E9484070DC028E0B21631F0B21640F0CE
:102F200086EF8B0D823020F40E9446120E945E05CF
:102F3000DD20E1F00E94E41D80FD18C0F70112823F
:102F40000E94DE1D0E94771CC7010E94C2170E94CA
:102F5000DE1DDF91CF911F910F91FF90EF90DF90D9
:102F6000BF90AF909F908F900C94981CDF91CF9161
:102F70001F910F91FF90EF90DF90BF90AF909F90C7
:102F80008F9008950F931F93CF93DF93EC01988157
:102F900089812B813C81232B31F08F3F31F481E0FB
:102FA0009F3F19F403C081E001C080E080FD13C0A1
:102FB000CE010E947605882371F0688179818A812B
:102FC0000E94BB1D8C010E94141D0E94051CB801AB
:102FD000CE010E943F15DF91CF911F910F9108956F
:102FE0000E940F1E0E941F1E0E943D1E0E94EA2288
:102FF0000E94442280E090E00E946B1280E090E00A
:103000000C94811280911001909111010E94B81FBF
:103010000C94F0170E94FF1D0C940218E92FE29502
:10302000EF704E2F50E0FA013297EE30F105B0F418
:10303000E357FF4F0C94422B803F91F018F4803EF1
:1030400068F40EC0843F51F40BC0803E48F0813FCD
:1030500029F406C093FB882780F9089580E008953D
:1030600081E008950E94B01D0E940E180895CF932C
:10307000DF9300D000D01F92CDB7DEB70F900F9036
:103080000F900F900F90DF91CF910895CF93DF9322
:1030900000D000D000D0CDB7DEB726960FB6F8949A
:1030A000DEBF0FBECDBFDF91CF9108951F93CF93A9
:1030B000DF93C091890116E080918A01C81799F0C9
:1030C000D0E01C9FF0011D9FF00D1124E557FE4F2D
:1030D0004081518162817381848195810E9446186B
:1030E0002196C770E9CFDF91CF911F91089540914C
:1030F000BB015091BC016091BD017091BE018091F6
:10310000BF019091C0010C944618CF938091C001EB
:1031100082958F7009F05FC08091BD01882309F40A
:103120005AC080918901B0918A017091BB01A09130
:10313000BC014091BE015091BF0191E07F3F09F079
:1031400090E0692FC6E08B1709F445C04115510581
:1031500021F0AF3F21F020E003C021E001C0262F85
:1031600090E020FD35C0C89FF001C99FF00D1124EB
:10317000E557FE4F21812A132BC02081271328C039
:103180002281211125C0238134812417350710F4B1
:1031900021503109241B350B283C3105C8F42091FE
:1031A000C0012F7020612093C00126E0289FF0010C
:1031B000299FF00D1124E057FE4F80818F708061B0
:1031C00080838BEB91E00E94C217CF910C9456182C
:1031D00001968770B8CFCF910895AF92BF92CF92EA
:1031E000DF92EF92FF920F931F93CF93DF93CDB7B0
:1031F000DEB761970FB6F894DEBF0FBECDBF8C016E
:1032000085E0F801DE011D9601900D928A95E1F7A7
:10321000D8014C9111965C9111971296EC903091D7
:10322000BB016091BC018091BE019091BF010097EC
:1032300031F06F3F31F421E03F3F19F403C021E04A
:1032400001C020E0B22FB170BB2E20FD60C1F8019B
:10325000C380D480A090BD01AA2009F4EEC02091C3
:10326000C001C816D90628F0D601A81BB90BCD019C
:1032700004C0809590958C0D9D1DFF24F394883C8F
:10328000910580F0F12C207F09F09CC07C2DD98A1B
:10329000C88A6E2D89890E9437188BEB91E00E94B5
:1032A000C2172DC1822F807F09F054C0561314C05D
:1032B000431312C0FE2CE1100FC02F702061209329
:1032C000C0010E9477188BEB91E00E94C217809199
:1032D000C001F80185835CC1CD2831F05F3F31F436
:1032E00081E04F3F19F403C081E001C080E080FD20
:1032F00003C081E08E2502C080E090E0F82FF170DD
:10330000FF2E80FF1CC08091890120918A0136E048
:10331000821709F41AC190E0389FF001399FF00D2F
:103320001124E557FE4F6181561306C06081461394
:1033300003C06281E61203C001968770E9CFFE2CBC
:10334000EE2009F425C18091C00181608093C00105
:10335000F12C1EC1561309C0431307C0E11005C06C
:103360008091C001F8018583A4C04D875E878D855B
:103370009E850E943218882379F1EE2069F1209110
:10338000C001822F82958F7090E0029774F0809137
:10339000BB019091BC0198878F831986DB86CA8612
:1033A0002C87CE0107960E94C21786E0F801ABEB8E
:1033B000B1E001900D928A95E1F70E9485180E9474
:1033C00077180DC0561771F04D875E878D859E85E5
:1033D0000E94321881111AC0C8010E94C217FF242E
:1033E000F394D6C04313F0CFE110EECF8091C0012B
:1033F000F8018583C8010E94C21786E0EBEBF1E07B
:10340000DF011D928A95E9F7FA2CC2C0EE2021F364
:103410002091C001822F82958F7090E002972CF24C
:103420008091BB019091BC019A8389831B82DD82CC
:10343000CC822E83CE010196B6CFC816D90628F0CD
:10344000F601E81BF90BCF0104C0809590958C0D17
:103450009D1D883C910548F0F12C7C2DD98AC88AA5
:103460006E2D89890E9437184AC0FE2CEE2009F47F
:10347000B3CF561333C0431331C02091C00120FD98
:1034800024C0822F82958F70482F50E0411551053E
:10349000E1F0D80115962C9315974F30510549F05E
:1034A0008F5F982F9295907F822F8F70892B159622
:1034B0008C93C8010E94C21786E0F801ABEBB1E023
:1034C00001900D928A95E1F73DC086E0F801ABEBE3
:1034D000B1E001900D928A95E1F75AC04D875E8761
:1034E0008D859E850E94321881115FCF8091C00129
:1034F00081608093C001C8010E94C21749C0EBEBF4
:10350000F1E086E0DF011D928A95E9F71BC0EE200D
:1035100009F462CF4D875E878D859E850E943218A3
:10352000F82E882309F458CF86E0F801ABEBB1E020
:1035300001900D928A95E1F78BEB91E00E94921336
:103540000E9485180E94771823C04D875E878D855D
:103550009E850E94B01D292F22952F70223028F4BD
:103560009F7039F0811105C00BC0243028F49F7082
:1035700049F4805E883020F0C8010E94C217BF2C39
:10358000FB2C06C0D80115969C91907F91F7F8CF3F
:103590008F2D61960FB6F894DEBF0FBECDBFDF91C1
:1035A000CF911F910F91FF90EF90DF90CF90BF9040
:1035B000AF9008951F93CF93DF93CDB7DEB72C97CD
:1035C0000FB6F894DEBF0FBECDBF4F835887698713
:1035D0007A878B879C87CE0107960E94ED188823F7
:1035E000D1F09F8188852A853B85232B31F08F3F41
:1035F00031F481E09F3F19F403C081E001C080E015
:1036000080FD47C04F81588569857A858B859C856B
:103610000E9446183EC086E0FE013796DE011196F4
:1036200001900D928A95E1F7FF81E8856A857B8597
:103630006115710531F0EF3F31F481E0FF3F19F47E
:1036400003C081E001C080E080FD23C020918A0199
:1036500030E0C9010196877099274091890150E0B7
:1036600084179507F1F1F983EA837D836C8396E0F3
:10367000929FD001939FB00D1124A557BE4FFE011C
:10368000319601900D929A95E1F780938A010E94FC
:10369000561816E08091890190918A01891771F17D
:1036A000189FC001112485579E4F0E94ED18882352
:1036B00029F1E09189011E9FF0011124E557FE4F89
:1036C0004081518162817381848195810E94461875
:1036D0008091890190E001968770992780938901F4
:1036E000D9CF0E940A1810928A0110928901EBEB3F
:1036F000F1E086E0DF011D928A95E9F72C960FB67E
:10370000F894DEBF0FBECDBFDF91CF911F9108951A
:10371000EF92FF920F931F93CF93DF938C01892B2E
:1037200009F46CC0F12CEE24E394E8012196F80131
:103730008491843740F4843008F051C0813081F0A6
:10374000823019F15BC0853709F444C0A8F19CE7C9
:10375000980F903708F052C08F770E94B61441C07E
:103760000E5F1F4FFE01849190E2980F983050F445
:103770008770FE2D01C0FF0F8A95EAF78F2F0E94F8
:10378000121E14C00E9498132DC00E5F1F4FFE0121
:10379000849190E2980F983060F48770FE2D01C0FC
:1037A000FF0F8A95EAF78F2F0E94181E0E943D1E78
:1037B00019C00E94B61416C00E5F1F4FFE01C491BF
:1037C000CC2381F08FE99FE00197F1F700C0000062
:1037D000C150F6CF0E5F1F4FFE01F49003C00E9450
:1037E00098138E018F2D882309F49FCFEFE9FFE016
:1037F0003197F1F700C000008150F5CFDF91CF91F4
:103800001F910F91FF90EF900895089508950C94E3
:10381000061C0C94071C0E94091C6093CF01709336
:10382000D0018093D1019093D2010C94F0170C94A5
:103830000B1C0F931F930091CF011091D001209189
:10384000D1013091D201602B712B822B932B1F91D0
:103850000F910C940B1C0F931F930091CF011091AB
:10386000D0012091D1013091D201602371238223B4
:1038700093231F910F910C940B1C0F931F93009196
:10388000CF011091D0012091D1013091D201602758
:103890007127822793271F910F910C940B1C0C9476
:1038A000EC020E944F1C6093CB017093CC0180937B
:1038B000CD019093CE010C94F01760E070E0CB0145
:1038C0000C94511C0F931F9341E050E060E070E0B6
:1038D0008A019B0104C0000F111F221F331F8A950C
:1038E000D2F7C901B8011F910F910C94511C0F938D
:1038F0001F9341E050E060E070E004C0440F551FAA
:10390000661F771F8A95D2F78091CB019091CC01E9
:10391000A091CD01B091CE018A019B01082B192BFA
:103920002A2B3B2BC901B8011F910F910C94511CFC
:103930000F931F9341E050E060E070E004C0440F3B
:10394000551F661F771F8A95D2F740955095609551
:1039500070958091CB019091CC01A091CD01B09157
:10396000CE018A019B01082319232A233B23C90185
:10397000B8011F910F910C94511C0F931F9341E0BC
:1039800050E060E070E004C0440F551F661F771FD1
:103990008A95D2F78091CB019091CC01A091CD0175
:1039A000B091CE018A019B01082719272A273B27BE
:1039B000C901B8011F910F910C94511C0F931F93D3
:1039C0000091CB011091CC012091CD013091CE011D
:1039D000602B712B822B932B1F910F910C94511CF8
:1039E0000F931F930091CB011091CC012091CD0139
:1039F0003091CE0160237123822393231F910F9175
:103A00000C94511C0F931F930091CB011091CC018A
:103A10002091CD013091CE01602771278227932715
:103A20001F910F910C94511C0895292F220F920F72
:103A3000990F890FE82FE695E695E695877051E096
:103A400001C0550F8A95EAF785E0E89FF00111243F
:103A5000EF53FE4F20E030E070E04081CB01022EBA
:103A600002C0969587950A94E2F781708195842724
:103A70008523842781932F5F3F4F2530310569F7D8
:103A80000895292F220F920F990F890F682F66959D
:103A900066956695982F977085E0689FB001112410
:103AA00040E050E080E0FB01E40FF51FEF53FE4FD4
:103AB000208130E0092E02C0369527950A94E2F75E
:103AC00021703327042E01C0220F0A94EAF7822BBB
:103AD0004F5F5F4F4530510531F70895BF92CF9248
:103AE000DF92EF92FF920F931F93CF93DF938C019E
:103AF000C090CB01D090CC01E090CD01F090CE01F0
:103B00008091CF019091D001A091D101B091D201CB
:103B1000C82AD92AEA2AFB2ACFE1D0E0D701C60178
:103B20000C2E04C0B695A795979587950A94D2F761
:103B300080FD04C0219790F7B12C07C0BC2EB801BE
:103B40008C2F0E94A0070197A9F38B2DDF91CF91B5
:103B50001F910F91FF90EF90DF90CF90BF9008954D
:103B6000CF93DF93EC010E946E1DBE010E94A0075F
:103B7000DF91CF9108951F93CF93DF93EB01909145
:103B80008801992321F0CB010E94B01D13C0882326
:103B900049F0CB010E946E1D182F682FCE010E94A4
:103BA000151D04C0CB010E94411D182FBE01812F9D
:103BB0000E94A007DF91CF911F9108958091D301BA
:103BC00085958595859508958091D3018770089591
:103BD0009091D301977081E009F480E0089580917D
:103BE000DF0108959091DF01892B8093DF01089513
:103BF00080959091DF0189238093DF0108951092D1
:103C0000DF0108959091DE01892B8093DE010895F4
:103C100080959091DE0189238093DE0108951092B2
:103C2000DE0108959091DD01892B8093DD010895D7
:103C300080959091DD0189238093DD010895109294
:103C4000DD0108958091D401089508950C94251EF6
:103C50000C94261E9091D401981721F08093D401E2
:103C60000C94281E08958091D401882329F0109285
:103C7000D40180E00C94281E0895E0911001F09189
:103C800011018091DF018083E0911001F091110119
:103C900090818091DE01892B8083E0911001F09169
:103CA000110190818091DD01892B80838091D40165
:103CB000882381F0E0911001F09111019081892B0E
:103CC000808380911001909111010E94811F8111C8
:103CD0000E94331E80911001909111010C94521298
:103CE0000C94251E98E0899F90011124262B209387
:103CF000D3010E94771C8091D30185958595859588
:103D00000C94701E1092D30180E00C94701E2091D0
:103D1000D301809582238093D301982F977079F4F3
:103D200030E0482F082E000C550B2417350739F0CA
:103D30008595859585950E94981C0C94821E089502
:103D4000CF92DF92EF92FF926C01EE24FF24C11418
:103D5000D104E104F10421F0C701B60120E101C062
:103D600020E0C72ED82EE92EFF24C114D104E1048F
:103D7000F10419F0285FC701B6016B017C0154E022
:103D8000F694E794D794C7945A95D1F7C114D10407
:103D9000E104F10419F02C5FC701B6016B017C014D
:103DA00042E0F694E794D794C7944A95D1F7C114AA
:103DB000D104E104F10419F02E5FC701B601DC0162
:103DC000CB01B695A79597958795892B8A2B8B2B39
:103DD00009F02F5F822FFF90EF90DF90CF90089532
:103DE00080E090E00E947D2B21E08D3E9E4F09F007
:103DF00020E0822F089582E090E00C946F2B83E006
:103E000090E00C946F2B84E090E00C946F2B682F63
:103E100084E090E00C94832B86E090E00C946F2B70
:103E2000682F86E090E00C94832BAB01BC018FE0FF
:103E300090E00C94952BAB01BC0183E190E00C94D5
:103E4000952B60E070E0CB010C941B1F60E070E0EC
:103E5000CB010E94151F0C94211F6DEE7EEF80E0B8
:103E600090E00E94A12B60E082E090E00E94832B12
:103E700060E083E090E00E94832B1092CF011092CB
:103E8000D0011092D1011092D20160E084E090E064
:103E90000E94832B60E085E090E00E94832B60E02D
:103EA00086E090E00E94832B6FEF87E090E00E9415
:103EB000832B40E050E0BA0188E090E00E94952B0F
:103EC00060E08DE090E00E94832B40E050E0BA017A
:103ED00088E190E00E94952B60E087E190E00E94ED
:103EE000832B40E050E0BA018CE190E00E94952BDA
:103EF00060E080E290E00E94832B0C94261F0C94DB
:103F00002D1FFC01329697E080E0915029F021911D
:103F10002223D9F38F5FF9CF08959C01FC013296DB
:103F20009FEF80E04191461789F09F3F19F44111BE
:103F300001C0982F8F5F8630A9F79F3F39F0F901B4
:103F4000E90FF11D97FDFA956283089508959C018C
:103F50002A5F3F4FFC014281461301C01282019645
:103F600082179307B9F708950C948D1F0C94A71F1F
:103F7000029626E0FC0111922A95E9F7089508952A
:103F80000C94BF1F0C94BF1F0E94C21F0E946E0A98
:103F90000E94C01F80E00E94340A811108C081E0A5
:103FA0000E94340A91E0811103C090E001C091E0C9
:103FB000892F08950C94BF1F0C94DA1F0E94DC1FF8
:103FC00080912702843061F11092E10120E488E1C0
:103FD00090E00FB6F894A895809360000FBE2093F0
:103FE000600080E00E949B0480E00E945E050E94C9
:103FF000DC1F83B7817F846083BF83B7816083BF09
:104000007894889583B78E7F83BF0FB6F894A89570
:1040100080916000886180936000109260000FBE04
:1040200008950C94BF1F0E940A180E94F6220E9455
:1040300046120E945E050C9411201F920F920FB63B
:104040000F9211248F939F93AF93BF938091E101BF
:10405000811113C080911C0290911D02A0911E023B
:10406000B0911F024196A11DB11D80931C02909337
:104070001D02A0931E02B0931F02BF91AF919F91AA
:104080008F910F900FBE0F901F90189582E084BD06
:1040900093E095BD9AEF97BD80936E0008952FB77A
:1040A000F89480911C0290911D02A0911E02B09183
:1040B0001F022FBF0895CF92DF92EF92FF920F93CE
:1040C0001F932FB7F89440911C0250911D026091EC
:1040D0001E0270911F022FBF6A017B01EE24FF2494
:1040E0008C0120E030E0C016D106E206F30610F4A1
:1040F000415051099A01281B390BC9011F910F9199
:10410000FF90EF90DF90CF90089578941F920F92D8
:104110000FB60F9211248F939F93AF93BF9380910B
:104120001C0290911D02A0911E02B0911F020196E7
:10413000A11DB11D80931C0290931D02A0931E022D
:10414000B0931F02BF91AF919F918F910F900FBEBF
:104150000F901F90189587E797E790930108809339
:1041600000089AE088E10FB6F894A8958093600063
:104170000FBE90936000FFCF0E94F01E811102C01D
:104180000E947F1F0E94FB1E8093E0010E94031F7C
:1041900090E090932102809320020E94FF1E682FDE
:1041A00070E080E090E00C94171C8091E50180FFA6
:1041B0000BC06091150185E0689FB00111247595D1
:1041C0006795759567952BC081FF09C060911501B2
:1041D00085E0689FB00111247595679520C082FF26
:1041E00007C06091150185E0689FB001112417C0D8
:1041F0009091E4019923D1F060911401961788F70A
:104200002091150185E0289F90011124929FA00123
:10421000939F500D112470E0CA010E940C2B60384E
:10422000710540F46115710519F406C065E070E090
:10423000862F08958FE7089581E008958091E50124
:1042400080FF08C06091130170E0759567957595C2
:10425000679521C081FF06C06091130170E07595DC
:10426000679519C082FF04C06091130170E010C00F
:104270009091E401992399F0609112019617A0F7AB
:1042800080911301899FC001112470E00E940C2BC2
:104290006038710540F46115710519F406C061E0DC
:1042A00070E0862F08958FE7089581E00895803F9C
:1042B00021F40E94D520819504C0813F29F40E94F9
:1042C000D5208093E9010895823F21F40E94D520F2
:1042D000819504C0833F29F40E94D5208093E80192
:1042E0000895893F19F40E941E2105C08A3F31F4C8
:1042F0000E941E2181958093EA0108958B3F21F44D
:104300000E941E21819504C08C3F29F40E941E2129
:104310008093EB010895843F21F48091E70181604F
:1043200017C0853F21F48091E701826011C0863F6C
:1043300021F48091E70184600BC0873F21F48091D4
:10434000E701886005C0883F31F48091E701806112
:104350008093E70108958D3F21F48091E50181600C
:104360000BC08E3F21F48091E501826005C08F3F34
:1043700029F48091E50184608093E5010895803FF0
:1043800039F48091E90187FF6CC01092E90169C09E
:10439000813F29F48091E9011816BCF362C0909125
:1043A000E801823F29F497FF5CC01092E80159C0F0
:1043B000833F19F41916CCF354C0893F41F480911E
:1043C000EA0118160CF04DC01092EA014AC08A3F6B
:1043D00029F48091EA0187FF44C0F6CF8B3F39F47E
:1043E0008091EB0187FF3DC01092EB013AC08C3FFA
:1043F00029F48091EB011816BCF333C0843F21F4FB
:104400008091E7018E7F17C0853F21F48091E701FD
:104410008D7F11C0863F21F48091E7018B7F0BC017
:10442000873F21F48091E701877F05C0883F31F401
:104430008091E7018F7E8093E70113C08D3F21F4C7
:104440008091E5018E7F0BC08E3F21F48091E501C4
:104450008D7F05C08F3F29F48091E5018B7F80938C
:10446000E5018091E80181110EC08091E90181117F
:104470000AC08091EA01811106C08091EB0181118F
:1044800002C01092E401089586EE91E00E945D1250
:104490000E944F209093E3018093E20108951F93BF
:1044A000CF93DF938091E2019091E3010E945B2022
:1044B000AC019091E401992321F02091160130E0A4
:1044C00006C0209117018AE0289F9001112442170D
:1044D000530708F47BC08091E801C091E901D091B5
:1044E000EA011091EB01811107C0C1116BC0D1111C
:1044F00069C0111167C06AC09F3F19F09F5F909318
:10450000E401181624F40E94D5208093E8018091DC
:10451000E80187FF05C00E94D52081958093E801BE
:104520001C1624F40E94D5208093E9018091E901B2
:1045300087FF05C00E94D52081958093E9013091C5
:10454000E8013323E1F02091E9012223C1F045EB9A
:104550003403C0011124992319F09093E80103C09A
:1045600081E08093E80135EB2303C00111249923F6
:1045700019F09093E90103C081E08093E9011D16D1
:1045800024F40E941E218093EA018091EA0187FFB2
:1045900005C00E941E2181958093EA01111624F422
:1045A0000E941E218093EB018091EB0187FF05C0E3
:1045B0000E941E2181958093EB01DF91CF911F9185
:1045C0000C9444229F3F09F099CFAACFDF91CF915D
:1045D0001F910895E6EEF1E086E0DF011D928A95D5
:1045E000E9F71092E4011092E50108950E94F01E8F
:1045F000811102C00E947F1F0E940C1F8093220223
:10460000282F26952695269530E02430310524F074
:1046100087708861809322028091220280FF04C00B
:1046200086958695869501C080E00C949B04209128
:104630002202822F869586958695482F50E043303A
:10464000510554F48F5F982F990F990F990F822F6E
:104650008770892B8093220280912202816080934F
:1046600022020E94101F80912202869586958695CF
:104670000C949B0480912202982F9695969596957E
:10468000A1F0915E990F990F990F8770892B8093F4
:104690002202887F91E009F490E08091220290FB51
:1046A00080F9809322020E94101F80912202869539
:1046B000869586950C949B048091220280FD13C000
:1046C000816080932202813019F489E08093220274
:1046D000809122020E94101F809122028695869569
:1046E00086950C949B0408958091220280FF08C057
:1046F0008E7F809322020E94101F80E00C949B0406
:1047000008958091220280FD0C9474230C945C2304
:1047100090912202892F8695869586958F5F8F715D
:104720009770843038F4880F880F880F892B809316
:10473000220202C09093220280912202887F91E09F
:1047400009F490E08091220290FB80F9809322028C
:104750000E94101F809122028695869586950C9462
:104760009B04843008F083E0880F880F880F9091B5
:1047700022029770892B80932202887F91E009F4AE
:1047800090E08091220290FB80F9809322020E94A7
:10479000101F809122028695869586950C949B0425
:1047A0008091F40108950F931F93CF93DF9300D06E
:1047B0001F92CDB7DEB78C010E942D26823011F0FA
:1047C000843021F584E089831B830A8382E080930F
:1047D000E9008FEF9091E800815095FD06C095EDBE
:1047E0009A95F1F700008111F5CF8091E80085FFDF
:1047F0000DC040E050E063E070E0CE0101960E9401
:104800004A268091E8008E778093E8000F900F9001
:104810000F90DF91CF911F910F910895CF93DF9368
:1048200000D01F92CDB7DEB720912702243031F59A
:1048300023E02983805891099B838A8382E08093B7
:10484000E9008FEF9091E800815095FD06C095ED4D
:104850009A95F1F700008111F5CF8091E80085FF6E
:104860000DC040E050E063E070E0CE0101960E9490
:104870004A268091E8008E778093E8000F900F9091
:104880000F90DF91CF910895CF93DF93EC010E94B9
:104890002D26823011F08430F9F482E08093E90013
:1048A0008FEF9091E800815095FD06C095ED9A95A7
:1048B000F1F700008111F5CF8091E80085FF0CC071
:1048C00040E050E066E070E0CE010E944A26809110
:1048D000E8008E778093E800DF91CF910895CF9321
:1048E000DF93EC010E942D26823011F0843039F5DF
:1048F00081E08093E9008FEF9091E800815095FD71
:1049000006C095ED9A95F1F700008111F5CF8091E1
:10491000E80085FF14C040E050E068E070E0CE01A0
:104920000E944A268091E8008E778093E80088E014
:10493000FE01ACEEB1E001900D928A95E1F7DF91B6
:10494000CF91089580912602811109C00E94DB2732
:104950000E9438288091E20084608093E2000895EC
:10496000109226020895089508950C94132042E0B1
:1049700061EC81E00E94542742E261EC82E00C94F9
:10498000542780912902833009F460C030F48130CB
:1049900071F0823009F499C008958A3009F485C015
:1049A0008B3009F46BC0893009F0A7C020C080911A
:1049B0002802813A09F0A1C08091E800877F8093A6
:1049C000E80080912C0290912D02892B21F468E05F
:1049D0008CEE91E003C060E080E090E070E00E9427
:1049E00095268091E8008B778093E8000895809168
:1049F0002802813209F081C080912C0290912D0211
:104A0000029708F07AC08091E800877F8093E800E1
:104A10008091E80082FD05C0809127028111F8CFC6
:104A20006CC02091F3008091F20090E0922B0297ED
:104A300029F48091F1008B7F813021F48091F10085
:104A40008093F4018091E8008B7753C08091280215
:104A5000813A09F052C080912C0290912D02892B4D
:104A600009F04BC08091E800877F8093E800809137
:104A7000E80080FFFCCF8091220136C0809128029F
:104A80008132D9F580912C0290912D02892BA9F5C4
:104A90008091E800877F8093E8000E9489278091B9
:104AA0002A02809322010C940A18809128028132F4
:104AB00021F58091E800877F8093E8000E94892794
:104AC00080912B028093F501089580912802813A0C
:104AD000A1F48091E800877F8093E8008091E8004E
:104AE00080FFFCCF8091F5018093F1008091E80078
:104AF0008E778093E8000C948927089584B7877F88
:104B000084BF0FB6F894A895809160008861809367
:104B10006000109260000FBE80E8809361001092E8
:104B200061000E94A7120E94DB270E943828809112
:104B3000E20084608093E20078940E94CD2A0E9473
:104B4000AF1288E191E00E944112809127028530E6
:104B500069F40E94DE1F809125028823B1F30E9430
:104B6000C41F882391F30E943426EFCF0E94BB120A
:104B70000E946B10EACF0C94BD25292F33272330D8
:104B80003105C9F060F42130310581F02230310562
:104B900009F04AC08BE390E027ED33E049C02132B1
:104BA000310511F12232310579F13EC082E190E008
:104BB00022E134E03DC099278130910561F040F059
:104BC0008230910559F0039779F5E9EAF3E008C0DE
:104BD000E3EDF3E005C0EFEBF3E002C0EFEAF3E052
:104BE000849190E09F0124C06115710541F061300E
:104BF0007105D1F489E090E022E034E019C089E049
:104C000090E029EE33E014C06115710541F0613088
:104C1000710551F485E890E024E234E009C080E4B5
:104C200090E029EA34E004C080E090E020E030E049
:104C3000FA013183208308950895CF93C82F0E94ED
:104C40001C26C093F601CF910895809127028430ED
:104C500011F081E0089582E008958091F6018111BC
:104C600002C00C942526089580E189BD82E189BDAA
:104C700009B400FEFDCF8091D8008F7D8093D800CD
:104C80008091E00082608093E0008091E00081FDEF
:104C9000FCCF0895CF92DF92EF92FF920F931F9374
:104CA000CF93DF93EC018B017A010E94A827811139
:104CB00033C0E114F10439F0F70180819181081BC0
:104CC000190BC80FD91FC12CD12C0115110519F1D1
:104CD0008091E80085FD16C08091E8008E77809372
:104CE000E800E114F10449F0F70180819181C80ED8
:104CF000D91ED182C08285E00FC00E94A8278823D8
:104D000021F30AC089918093F10001501109FFEF4E
:104D1000CF1ADF0ADACF80E0DF91CF911F910F9198
:104D2000FF90EF90DF90CF90089520912E02309168
:104D30002F022617370748F06115710539F42091C5
:104D4000E8002E772093E80001C0B901FC0120E0C3
:104D50006115710579F1809127028823F1F1853081
:104D6000F1F18091E80083FD3CC08091E80082FD74
:104D70002EC08091E80080FFEBCF2091F30080915E
:104D8000F20090E0922B6115710551F08830910589
:104D900038F421912093F100615071090196F3CF0D
:104DA00021E0089709F020E08091E8008E77809359
:104DB000E800CECF2111CFCF0AC0809127028823EF
:104DC00061F0853061F08091E80083FD0AC0809138
:104DD000E80082FFF2CF80E0089582E0089583E04A
:104DE000089581E0089520912E0230912F02261718
:104DF000370748F06115710539F42091E8002E77E6
:104E00002093E80001C0B901FC0120E061157105A3
:104E100091F180912702882309F440C0853009F47C
:104E20003FC08091E80083FD3DC08091E80082FD95
:104E30002FC08091E80080FFE9CF2091F30080919E
:104E4000F20090E0922B6115710559F088309105C0
:104E500040F424912093F10031966150710901963C
:104E6000F2CF21E0089709F020E08091E8008E77EA
:104E70008093E800CBCF2111CCCF0AC080912702CC
:104E8000882361F0853061F08091E80083FD0AC0DD
:104E90008091E80082FFF2CF80E0089582E00895DB
:104EA00083E0089581E00895982F973068F59093F6
:104EB000E900981739F07091EC002091ED005091C5
:104EC000F00003C0242F762F50E021FD02C09F5F29
:104ED000ECCF3091EB003E7F3093EB003091ED0052
:104EE0003D7F3093ED003091EB0031603093EB006B
:104EF0007093EC002093ED005093F0002091EE00B1
:104F000027FDE5CF80E008958F708093E90081E070
:104F100008958091280287FF11C08091E80082FDEA
:104F200005C0809127028111F8CF11C08091E8005F
:104F30008B770BC080912702882349F08091E8008D
:104F400080FFF8CF8091E8008E778093E800089585
:104F50002091E4003091E50095E64091EC00842F2B
:104F6000817040FF23C08091E80080FD1DC08091CA
:104F70002702882399F0853099F08091EB0085FD18
:104F800011C04091E4005091E5002417350729F342
:104F9000915011F09A01E1CF84E0089582E00895E4
:104FA00083E0089581E0089580E008954091E8004D
:104FB00042FFDDCF08950E9449280E945128E0EE6B
:104FC000F0E0808181608083E8EDF0E080818F7780
:104FD000808319BCA7EDB0E08C918E7F8C9380818B
:104FE0008F7E80831092260208950F931F93CF9394
:104FF000DF930E9449280E945128C8EDD0E08881A3
:105000008F77888388818068888388818F7D888373
:1050100019BC1092270210922302109225021092BE
:10502000240200EE10E0F80180818B7F808388816C
:105030008160888342E060E080E00E945427E1EED6
:10504000F0E080818E7F8083E2EEF0E080818160FD
:105050008083808188608083F80180818E7F808357
:10506000888180618883DF91CF911F910F9108958E
:10507000E8EDF0E080818F7E8083E7EDF0E08081D5
:105080008160808384E082BF81E0809326020C945B
:10509000F527E8EDF0E080818E7F80831092E200BA
:1050A00008951092DA001092E10008951F920F9275
:1050B0000FB60F9211242F933F934F935F936F93EB
:1050C0007F938F939F93AF93BF93EF93FF938091C1
:1050D000E10082FF0BC08091E20082FF07C0809157
:1050E000E1008B7F8093E1000E94CC2A8091DA005E
:1050F00080FF1FC08091D80080FF1BC08091DA0024
:105100008E7F8093DA008091D90080FF0DC080E10E
:1051100089BD82E189BD09B400FEFDCF81E08093A5
:1051200027020E94A22405C019BC109227020E94E7
:10513000B0248091E10080FF19C08091E20080FFDF
:1051400015C08091E2008E7F8093E2008091E200A2
:1051500080618093E2008091D80080628093D800C3
:1051600019BC85E0809327020E94B4248091E1005D
:1051700084FF30C08091E20084FF2CC080E189BDB3
:1051800082E189BD09B400FEFDCF8091D8008F7DFA
:105190008093D8008091E1008F7E8093E100809120
:1051A000E2008F7E8093E2008091E2008160809334
:1051B000E20080912302882311F084E007C08091EF
:1051C000E30087FD02C081E001C083E080932702F5
:1051D0000E94B5248091E10083FF29C08091E20004
:1051E00083FF25C08091E100877F8093E10082E00A
:1051F00080932702109223028091E1008E7F80939A
:10520000E1008091E2008E7F8093E2008091E200D5
:1052100080618093E20042E060E080E00E945427D9
:105220008091F00088608093F0000E94B324FF9189
:10523000EF91BF91AF919F918F917F916F915F910E
:105240004F913F912F910F900FBE0F901F90189587
:105250001F920F920FB60F9211242F933F934F93EB
:105260005F936F937F938F939F93AF93BF93CF93EE
:10527000DF93EF93FF93C091E900CF708091EC0032
:10528000D82FD17080FDD0E81092E9008091F00015
:10529000877F8093F00078940E946C291092E90037
:1052A0008091F00088608093F000CD2BCF70C09388
:1052B000E900FF91EF91DF91CF91BF91AF919F9165
:1052C0008F917F916F915F914F913F912F910F90AF
:1052D0000FBE0F901F9018951F93CF93DF93CDB7FC
:1052E000DEB7AA970FB6F894DEBF0FBECDBFE8E2D7
:1052F000F2E08091F100819322E0E033F207C9F7F8
:105300000E94C1248091E80083FF2EC18091280271
:1053100090912902492F50E04A30510508F024C1EC
:10532000FA01E556FF4F0C94422B803821F0823869
:1053300009F01AC108C08091240290912502992396
:1053400089F082600FC080912C028F70873008F046
:105350000BC18093E9008091EB0085FB882780F9E1
:105360001092E9009091E800977F9093E800809375
:10537000F1001092F100D1C0282F2D7F09F0F4C068
:10538000882319F0823061F0EFC080912A028130C9
:1053900009F0EAC0933009F080E0809325022EC026
:1053A00080912A0281112AC080912C028F702FEFE8
:1053B000280F263008F0D8C08093E9002091EB0038
:1053C00020FF1CC0933021F48091EB00806214C058
:1053D0009091EB0090619093EB0021E030E0A90107
:1053E00002C0440F551F8A95E2F74093EA001092DD
:1053F000EA008091EB0088608093EB001092E90056
:105400008091E800877F8093E8000E948927ACC0E4
:105410008111AAC010912A021F778091E300807841
:10542000812B8093E3008091E800877F8093E800E0
:105430000E9489278091E80080FFFCCF8091E300E3
:1054400080688093E300111102C082E001C083E014
:105450008093270289C08058823008F085C08091EF
:105460002A0290912B028C3D53E0950779F583E059
:105470008A838AE289834FB7F894DE01139620E08D
:105480003EE051E2E32FF0E050935700E49120FF1B
:1054900003C0E295EF703F5FEF708E2F90E0EA302F
:1054A00010F0C79601C0C0968D939D932F5F243155
:1054B00049F74FBF8091E800877F8093E8006AE258
:1054C00070E0CE0101960E94952616C060912C02D4
:1054D00070912D02AE014F5F5F4F0E94BB25BC0152
:1054E000892B09F441C09091E800977F9093E800E0
:1054F00089819A810E94F3268091E8008B778093BE
:10550000E80032C0803881F58091E800877F809381
:10551000E800809123028093F1008091E8008E776B
:1055200072CF811121C080912A0290912B0299277C
:105530000297D4F48091E800877F8093E8008091FF
:105540002A02809323020E948927809123028111DD
:1055500006C08091E30087FD02C081E001C084E0C5
:10556000809327020E94B7248091E80083FF0AC03D
:105570008091E800877F8093E8008091EB00806253
:105580008093EB00AA960FB6F894DEBF0FBECDBF96
:10559000DF91CF911F9108950895CF9380912702B5
:1055A0008823A1F0C091E900CF709091EC00892F81
:1055B000817090FD80E8C82B1092E9008091E8008E
:1055C00083FD0E946C29CF70C093E900CF910895AC
:1055D000DB018F939F930E94572BBF91AF91A29FA6
:1055E000800D911DA39F900DB29F900D11240895E1
:1055F000AA1BBB1B51E107C0AA1FBB1FA617B707F9
:1056000010F0A61BB70B881F991F5A95A9F7809514
:105610009095BC01CD01089597FB072E16F40094D8
:1056200007D077FD09D00E94F82A07FC05D03EF488
:10563000909581959F4F0895709561957F4F08953E
:10564000A1E21A2EAA1BBB1BFD010DC0AA1FBB1F86
:10565000EE1FFF1FA217B307E407F50720F0A21BF8
:10566000B30BE40BF50B661F771F881F991F1A9465
:1056700069F760957095809590959B01AC01BD018F
:10568000CF010895EE0FFF1F0590F491E02D0994CE
:10569000A29FB001B39FC001A39F700D811D112473
:1056A000911DB29F700D811D1124911D08950E94BE
:1056B000482BA59F900DB49F900DA49F800D911D28
:1056C00011240895FC014150504030F0019006161D
:1056D000D1F73197CF010895882799270895F9992F
:1056E000FECF92BD81BDF89A992780B50895A6E1B5
:1056F000B0E044E050E00C94A92BA8E1B0E042E017
:1057000050E00C94A92B262FF999FECF92BD81BDB4
:10571000F89A019700B4021639F01FBA20BD0FB6EF
:10572000F894FA9AF99A0FBE08950396272F0E94CB
:10573000842B0E94832B252F0E94842B242F0C94D2
:10574000842B0196272F0E94842B0C94832BDC0141
:10575000CB01FC01F999FECF06C0F2BDE1BDF89A7C
:10576000319600B40D9241505040B8F70895F89426
:02577000FFCF69
:1057720001020A0A0A01191A1B1C1D1E1F202122DE
:10578200D5012808140A321ED0236F2444240E2483
:10579200D3230166973594F4F5F633C69190000150
:1057A200020202020606060909090909090F0F0F7A
:1057B2000F0F0F1515151819191919191919191982
:1057C20019232400FF0100010000FFFF0000010077
:0457D20001FF0000D3
:00000001FF
