:100000000C9434020C947B020C947B020C947B02C3
:100010000C947B020C947B020C947B020C947B026C
:100020000C947B020C947B020C940A280C94DC2820
:100030000C94D21F0C947B020C947B020C947B02D8
:100040000C947B020C9474030C947B020C947B0242
:100050000C949F030C943A200C947B020C947B022A
:100060000C947B020C947B020C947B020C947B021C
:100070000C947B020C947B020C947B020C947B020C
:100080000C947B020C947B020C947B020C947B02FC
:100090000C947B020C947B020C947B020C947B02EC
:1000A0000C947B020C947B020C947B026515651505
:1000B00097159715E41502167C177C174416D91668
:1000C000EA16EA164B1754177C1775170218021810
:1000D000141814180B1814181418141802180218ED
:1000E000101814181418101849297029682A702932
:1000F000682ABC29DF29682A362A452A27001E00DB
:100100001F00200000002100220023002400040022
:1001100000047F3F1F643214643214783C1E1E14A6
:100120000A052223252628292A2C2D2F3032333563
:1001300036383A3B3D3E4042434547494A4C4E5093
:1001400051535557595A5C5E6062646668696B6DBD
:100150006F71737577797B7D7F81838587898A8CC1
:100160008E90929496989A9C9E9FA1A3A5A7A8AAC8
:10017000ACAEAFB1B3B4B6B8B9BBBCBEBFC1C2C3FD
:10018000C5C6C7C9CACBCCCDCED0D1D2D2D3D4D597
:10019000D6D7D7D8D9D9DADADBDBDBDCDCDCDCDCC0
:1001A000DDDDDDDDDCDCDCDCDCDBDBDBDADAD9D998
:1001B000D8D7D7D6D5D4D3D2D2D1D0CECDCCCBCA26
:1001C000C9C7C6C5C3C2C1BFBEBCBBB9B8B6B4B34C
:1001D000B1AFAEACAAA8A7A5A3A19F9E9C9A9896E2
:1001E0009492908E8C8A89878583817F7D7B7977B5
:1001F0007573716F6D6B6968666462605E5C5A5995
:1002000057555351504E4C4A4947454342403E3D55
:100210003B3A3836353332302F2D2C2A29282625E3
:100220002322FFAA7F5540000101010101010101C4
:100230000102020202020202020203030303030399
:100240000303040404040404040505050505060667
:100250000606060707070707080808080909090925
:100260000A0A0A0B0B0B0C0C0C0D0D0D0E0E0E0FCB
:100270000F0F10101111111212131314141515165B
:10028000161717181819191A1A1B1B1C1D1D1E1ECC
:100290001F2020212222232424252626272829291D
:1002A0002A2B2C2D2D2E2F30313232333435363748
:1002B00038393A3B3C3D3E3F404142434445464746
:1002C00048494A4C4D4E4F50515354555658595A1F
:1002D0005B5D5E5F616264656668696B6C6D6F70C3
:1002E00072737577787A7B7D7E8082838587888A32
:1002F0008C8E8F91939596989A9C9EA0A2A3A5A769
:10030000A9ABADAFB1B3B5B7BABCBEC0C2C4C6C964
:10031000CBCDCFD1D4D6D8DBDDDFE2E4E7E9EBEE1D
:10032000F0F3F5F8FAFDFF0403300000000E034778
:10033000005A005200380039004300000012036BDD
:100340000075007300680069006D006100380000EE
:10035000000403090409023B00020100A0FA090499
:1003600000000103010100092111010001224000E8
:100370000705810308000A090401000103000000C9
:100380000921110100012285000705820320000ACE
:100390001201100100000008EDFE00000100010242
:1003A000030105010902A10185020901A100050956
:1003B0001901290515002501950575018102950191
:1003C000750381010501093009311581257F9502E9
:1003D0007508810609381581257F95017508810604
:1003E000050C0A38021581257F950175088106C024
:1003F000C005010980A10185031A81002A83001626
:100400000100260300950175108100C0050C09014B
:10041000A10185041A01002A9C02160100269C02F3
:10042000950175108100C005010906A10105071994
:10043000E029E715002501950875018102950175F0
:100440000881010507190029FF150026FF00950600
:1004500075088100050819012905950575019102A6
:10046000950175039101C00011241FBECFEFDAE0A2
:10047000DEBFCDBF04B603FE27C080912802909155
:100480002902A0912A02B0912B028730904BA740FD
:10049000B04BD1F4109228021092290210922A0235
:1004A00010922B0214BE84B7877F84BF0FB6F894D6
:1004B000A895809160008861809360001092600030
:1004C0000FBEE0E0F8E3099511E0A0E0B1E0EAED4D
:1004D000F6E502C005900D92A236B107D9F722E0E9
:1004E000A2E6B1E001C01D92A832B207E1F70E9476
:1004F00032250C946B2B0C940000662319F082E5D6
:1005000090E002C081E590E00C9406030895089500
:1005100008950F931F93CF93DF939C013A95211574
:100520003F4148F5EB018C0190FF03C080EEFB01D9
:10053000099511FF03C081EEFE01099512FF03C06A
:1005400082EEFE01099513FF03C083EEFE010995BB
:100550000115104180F084EEFE01099585EEFE0143
:10056000099586EEFE01099587EEFE01DF91CF9198
:100570001F910F910994DF91CF911F910F910895D1
:10058000877091E001C0990F8A95EAF7892F0E9440
:10059000E81D0C94231E0C94C002877091E001C0EA
:1005A000990F8A95EAF7892F0E94EE1D0C94231E5D
:1005B0000C94CD02CF93DF93EC01805E91090897F4
:1005C00010F0209719F460EC72E002C06BEC72E05E
:1005D000CE010E9489028C2FDF91CF910C948C1355
:1005E000CF93DF93EC010E94AA14CE01805E9109A3
:1005F000089710F0209719F46DEC72E002C068EDD6
:1006000072E0CE01DF91CF910C948902CF93DF93FA
:10061000EC010E94DA02CE01DF91CF910C94F0023E
:1006200081E0089581E008950C9412031F93CF9305
:10063000DF9300D000D01F92CDB7DEB749835A8335
:100640006B832091860189819A81211112C06623D2
:1006500049F00E94541D182F682F89819A810E94A9
:10066000FB1C03C00E94271D182F69817A81812FEE
:1006700004C00E94541D69817A810F900F900F90E1
:100680000F900F90DF91CF911F910C947207FC0196
:10069000408151816281738184810C9416030E9490
:1006A00043110C94550AE82FE295EF70F0E032A167
:1006B000282F2F7081E090E001C0880F2A95EAF77B
:1006C0008095832382A30895E82FE295EF70F0E0F0
:1006D00032A1282F2F7081E090E001C0880F2A9569
:1006E000EAF7832B82A308951F920F920FB60F9201
:1006F00011242F933F934F935F936F937F938F9327
:100700009F93AF93BF93EF93FF9386E60E9464039A
:1007100087E90E94640385E30E946403FF91EF91DF
:10072000BF91AF919F918F917F916F915F914F9109
:100730003F912F910F900FBE0F901F9018951F9211
:100740000F920FB60F9211242F933F934F935F9305
:100750006F937F938F939F93AF93BF93EF93FF9389
:1007600080918800909189008130914048F086E620
:100770000E94530387E90E94530385E30E945303B9
:10078000FF91EF91BF91AF919F918F917F916F9169
:100790005F914F913F912F910F900FBE0F901F903F
:1007A0001895CF92DF92EF92FF92CF93C82F8430AB
:1007B000E0F481111BC08091880090918900892B01
:1007C00029F180916F008D7F80936F0080916F0081
:1007D0008E7F80936F0086E60E94640387E90E9403
:1007E000640385E30E94640311C0C3E08091880024
:1007F00090918900892B51F480916F0082608093E1
:100800006F0080916F00816080936F002C2F30E02B
:10081000AFEFBFEF0E94FC2A23E030E040E050E061
:100820000E94D42AC9012C3764E1360728F469E014
:1008300070E00E94AC2A29C0DA01C9018A50974DA4
:10084000AF4FBF4F6627782F892F9A2F25EF38E2B9
:1008500041E050E00E94D42A69017A01CA01B9013D
:100860000E949C2A9B01AC01C701B6010E949C2AF0
:10087000BB27A92F982F872F009721E0A207B1054A
:1008800011F0BC0102C06FEF7FEF7093890060939D
:100890008800CF91FF90EF90DF90CF900895EF9276
:1008A000FF920F931F93CF93DF93C3E2D1E006E251
:1008B00011E0EE24E394F12C8991E82FE295EF709A
:1008C000F0E091A1282F2F70A70102C0440F551FFF
:1008D0002A95E2F79A01292B21A30E9453030C17B2
:1008E0001D0751F782E08093800089E180938100A9
:1008F0008FEF9FEF9093870080938600DF91CF91D9
:100900001F910F91FF90EF900C94AA220E94861ED7
:10091000811102C00E942F1F0E944F040E943011BB
:100920000C94530A0C9488020C94920408950E942B
:10093000F0170E9496042FEF84E39CE02150804042
:100940009040E1F700C0000087E797E79093010827
:10095000809300080C9460200F931F93CF93DF9334
:100960008C010E944703EC01B8010E941403882304
:1009700009F4AEC2B801CE010E94F411882309F433
:10098000A7C2CB3CFCE5DF0741F4F8018281882354
:1009900009F49EC20E94300C9BC2CC3C8CE5D80767
:1009A00008F0D1C1C33C9CE5D90761F4F80182810C
:1009B000882309F48DC20E94D51D8272F1F00E9435
:1009C0000F1086C2C43CECE5DE07D0F0F80182814E
:1009D000C73CFCE5DF0709F48BC108F09BC1C53CAF
:1009E000ECE5DE0709F48AC108F08EC1882309F41A
:1009F0006FC20E94D51D827211F30E94021068C25C
:100A0000C631FCE5DF0708F03CC1C2308CE5D807F1
:100A100008F413C1F8018281882309F415C10E94EA
:100A2000861E811102C00E942F1F0E94991E909362
:100A3000190280931802C031FCE5DF0709F4BFC03A
:100A400008F03FC0C8309CE5D90709F496C0F0F41F
:100A5000C430FCE5DF0709F483C068F4C2309CE5CC
:100A6000D90709F473C0C330DC4509F0DDC08091BB
:100A70001802826072C0C630FCE5DF0709F46AC064
:100A800008F077C080911802886067C0CC309CE580
:100A9000D90709F481C058F4CA30FCE5DF0709F42E
:100AA00070C008F075C080911802806856C0CE30C2
:100AB0009CE5D90709F474C008F07DC08091180244
:100AC00089C0CB3FFCE5DF0709F44DC008F5C33111
:100AD0009CE5D90709F47BC068F4C131FCE5DF0768
:100AE00009F471C0C231DC4509F09EC08091180242
:100AF0008F7733C0C5319CE5D90709F472C008F47B
:100B000086C0CA3FDC4509F08FC0809119023EC003
:100B1000CF3F8CE5D80709F45FC058F4CD3FECE532
:100B2000DE0709F444C008F43FC0809119028260D6
:100B30002DC0C1308DE5D80709F473C008F45DC03D
:100B4000C230DD4509F070C080E06CC080911802B1
:100B5000816003C08091180280618093180264C094
:100B60008091180211C0809119028260809319024D
:100B70005BC0809118028062F0CF8091180280647F
:100B8000ECCF8091180288608460E7CF8160EECF5F
:100B9000809118028E7FE1CF809118028D7FDDCF8A
:100BA00080911802877FD9CF8091190218C0809157
:100BB00019028D7FDBCF809118028F7ECECF80917E
:100BC00018028F7DCACF809118028F7BC6CF80918B
:100BD0001802877F8B7FC1CF809119028D7F8E7F16
:100BE000C5CF8091180282FB222720F991E092273D
:100BF00090FB82F990FB83F9B0CF80911902982F76
:100C0000909591708E7F892B90FB81F9AFCF809169
:100C1000180287FB222720F991E0922790FB87F9A1
:100C20009CCF81E00E94311F80911802909119029F
:100C30000E94AA1E0E94F0174BC1C1159CE5D9075E
:100C400051F0C130DC4579F0C801DF91CF911F919F
:100C50000F910C941003F8018281882309F438C1A4
:100C60000E94970435C1F8018281882309F430C1BC
:100C70008091DE01982F909590FB80F98093DE01A2
:100C800027C1C631FCE5DF0739F50E94D51D982F35
:100C9000F80182812091100130911101882379F0AF
:100CA0009A7A81E009F480E080936201911102C098
:100CB00069E201C065E3C9010E94691F0AC0809111
:100CC0006201811102C069E201C065E3C9010E94AD
:100CD0006B1F0E94231EFCC0C23CDC4509F0B4CF50
:100CE000F8018281882309F4F3C00E941D10F0C02E
:100CF000882309F4EDC00E94C70DEAC0882309F4D7
:100D0000E7C00E94AB0DE4C0882309F4E1C00E9453
:100D1000B80DDEC0C93C9CE5D90731F4882309F43D
:100D2000D7C00E94E50DD4C0CA3CDC4530F488230E
:100D300009F4CEC00E94D60DCBC0882309F4C8C0E8
:100D40000E94F40DC5C0C33DFCE5DF0749F4F8017E
:100D50008281882309F4BCC088E10E941210B8C0C7
:100D6000C43D8CE5D80708F069C0F8018281CF3C0A
:100D7000FCE5DF0771F4882309F4AAC00E94280C5F
:100D8000863028F00E94280C883008F436CE86E0A1
:100D9000E4CFC03D9CE5D90700F5CD3CECE5DE078E
:100DA00029F4882309F494C081E0D7CFCE3CDC45F8
:100DB00030F4882309F48CC00E94410C89C0882338
:100DC00009F486C00E94280C823028F00E94280C6A
:100DD000853008F412CE82E0C0CFC13D9CE5D90732
:100DE00071F4882309F474C00E94280C8F3028F015
:100DF0000E94280C843108F400CE8FE0AECFC23DB3
:100E0000DC4570F4882309F463C00E94280C893003
:100E100028F00E94280C8E3008F4EFCD89E09DCF99
:100E2000882309F455C00E94280C853128F00E94BF
:100E3000280C873108F4E1CD85E18FCFCD3DFCE56D
:100E4000DF0749F4F8018281882309F441C082E078
:100E50000E94D1253DC0CE3D8CE5D80738F5C53D73
:100E60009CE5D90731F4F8018281882389F183E276
:100E700074CFC53DECE5DE0778F4F8018281882364
:100E800039F10E94280C893128F00E94280C823206
:100E900008F4B3CD89E161CFCC3DDC4509F0D4CE77
:100EA000F80182818823A1F080E0D2CFCE3D8CE58D
:100EB000D80739F4F8018281882351F00E942F1F4E
:100EC00007C0CE018A5F9C45099708F4A3CDBCCE2C
:100ED00080E0DF91CF911F910F91089580E090E025
:100EE000089508952AE0829FC0011124FC0125E0A5
:100EF000729FE00DF11D1124E60FF11DEE0FFF1F93
:100F0000E450FF4F859194910895880F991FFC013B
:100F1000E05FFE4F859194910895CF93DF930E94F7
:100F200072070E947C09EC01811521E5920708F007
:100F300042C0811540E5940708F02DC1883E910517
:100F400000F5803E910508F0D3C1883A910570F410
:100F5000853A910508F0A2C08130910509F4C8C115
:100F600008F479C1049708F0C3C175C18F3B91059E
:100F700008F49FC0803C910508F46DC1805C910924
:100F8000F9C0C11580E3D80780F4C11520E2D2076B
:100F900008F0EEC0C03FD10508F45DC1CF3FD105D8
:100FA00011F008F0A5C1D065A3C1C11540E4D40774
:100FB00008F0EEC0E3C0C11589E5D80760F5C1159A
:100FC00028E5D20708F033C1C11544E5D40778F409
:100FD000C11583E5D80708F00FC1C11522E5D20776
:100FE00008F0F4C0DC2FCC27C16FD06A81C1C115D5
:100FF00045E5D40708F416C1C11586E5D80708F001
:101000002AC18C2F0E94100A8F71C82FD0E0DC2FCC
:10101000CC27D0626DC1CD3B2CE5D20709F412C1BB
:10102000E0F4CB3B8CE5D80709F406C108F007C112
:10103000C1154AE5D40708F00EC18C2F8F700E94AD
:10104000100A94E0D695C7959A95E1F7CF70D0E055
:10105000DC2FCC27D069C82B4BC1C03C8CE5D8070E
:1010600009F4F6C060F4CE3B4CE5D40709F4EDC0BA
:10107000CF3BDC4509F0EFC0C0E0D2ED39C1CE0175
:1010800090568115904208F0E6C08D2F8F710E9416
:10109000100ADD27D0628F71D82B2AC1853A9105BD
:1010A00009F4DCC0863A910509F0DBC0C2E8D0E45F
:1010B0001FC1883A910509F4D7C0893A910509F40E
:1010C000D6C08A3A910509F4D5C08B3A910509F446
:1010D000D4C08C3A910509F4D3C08B3B910509F437
:1010E000D2C08C3B910509F4D1C08D3A910509F429
:1010F000D0C0803B910509F4CFC08E3A910509F428
:10110000CEC08F3A910509F4CDC0813B910509F419
:10111000CCC0823B910509F4CBC0833B910509F417
:10112000CAC0843B910509F4C9C0853B910509F407
:10113000C8C0863B910509F4C7C0873B910509F4F7
:10114000C6C0883B910509F4C5C0893B910509F4E7
:10115000C4C08D3B910509F4C3C08E3B910509F4D1
:10116000C2C08A3B910509F4C1C0C0E0D4E4C0C04C
:10117000CE019F700E948507EC01BAC0CE0199276D
:10118000D3FF03C0EC01D86CB3C0EC01D06CB0C08D
:10119000DF70D06AADC074E0969587957A95E1F7D7
:1011A00083709C2F937021E030E002C0220F331F28
:1011B0009A95E2F73C68382BCF70C695C69540E209
:1011C000C49FE0011124C22BD32B92C0CE018370A7
:1011D000992721E030E002C0220F331F8A95E2F701
:1011E0008C2F8695869540E2849FC0011124E901E9
:1011F000C82BD92BDC687CC0CE018370992721E0F5
:1012000030E002C0220F331F8A95E2F78C2F8695BB
:10121000869540E2849FC0011124E901C82BD92B97
:10122000DA6866C0DC2FCC27C46FD06A61C0DC2FBF
:10123000CC27C06FD06A5CC0C0E0D4ED59C0C0E01C
:10124000D5ED56C0C0E0D1ED53C0C0E0D0ED50C0E8
:10125000C0E0D3ED4DC0C0E0D0E04AC0C1E8D0E46A
:1012600047C0C3E8D0E444C0C2EED4E441C0C9EEF4
:10127000D4E43EC0CAEED4E43BC0C5EBD4E438C0ED
:10128000C6EBD4E435C0C3EBD4E432C0C4EBD4E441
:101290002FC0C7EBD4E42CC0CCECD4E429C0CDECF7
:1012A000D4E426C0C3E8D5E423C0CAE8D5E420C00E
:1012B000C2E9D5E41DC0C4E9D5E41AC0C1E2D6E450
:1012C00017C0C3E2D6E414C0C4E2D6E411C0C5E23C
:1012D000D6E40EC0C6E2D6E40BC0C7E2D6E408C02E
:1012E000CFE6D4E405C0C0E7D4E402C0CAE2D6E445
:1012F000CE01DF91CF9108958238910569F1B0F464
:101300008133910509F46DC048F48932910509F4DF
:1013100063C08A32910509F469C008958533910547
:1013200009F455C089339105B9F00895833E9105BC
:1013300069F138F4803E9105B1F0823E910509F1E2
:101340000895863E9105A9F1873E9105B9F1843E45
:10135000910509F064C023C02091180220FD4FC000
:1013600021FD4DC008958091180280FD44C08091F8
:10137000190280FF44C08091180284FD42C083EEB0
:101380004DC08091180282FF38C0F5CF80911802BD
:1013900082FD33C08091190280FD31C0ECCF809175
:1013A000190281FF32C08091180284FD2AC087EEA5
:1013B00035C08091180283FF26C0F5CF80911802B6
:1013C00083FD21C08091190281FD1FC0ECCF809167
:1013D000180285FD1CC01DC08091180285FD19C032
:1013E00016C08091180286FD16C017C080911802A1
:1013F00086FD13C010C089E311C082EE0FC080EEDD
:101400000DC080E00BC086EE09C084EE07C089E203
:1014100005C085E303C08AE201C081E390E008953E
:101420009091180292FF0DC0282F2871283019F4CE
:10143000877F846006C0282F2471243011F48B7FAD
:10144000886093FF0DC0282F2871283119F4877EFA
:10145000846106C0282F2471243111F48B7E8861A9
:101460002091190220FF0DC0382F3871383019F43F
:10147000877F816006C0382F3171313011F48E7F43
:10148000886021FF0DC0282F2871283119F4877E2C
:10149000816106C0282F2171213111F48E7E88616F
:1014A00094FD877E08950C9486020C948702E82FA1
:1014B000F0E0ED59FE4F808108950895CF93DF93BA
:1014C0005198599A5098589AA6E2B1E04BE251E0EF
:1014D00061E070E08D91E82FE295EF70F0E021A1DE
:1014E0008F70EB0102C0CC0FDD1F8A95E2F7CE01B1
:1014F0009C2F9095922391A392A1892B82A34A17A6
:101500005B0741F71092650110926301109266012A
:101510001092640182E00E941F0BDF91CF910C9426
:1015200086045F926F927F928F929F92AF92BF924A
:10153000CF92DF92EF92FF920F931F93CF93DF939F
:101540006BE271E0A5E6B1E027E6A22E21E0B22E23
:10155000612C01E010E06D015C901C92EB0189911F
:10156000BE01E82FE295EF70F0E021A18F70A80195
:1015700002C0440F551F8A95E2F7CA01242B21A30C
:1015800022A1942E9094292122A350EA5A95F1F792
:1015900096E2E92E91E0F92E40E050E0E7018990D3
:1015A0007E01282D22952F7030E0E90128A17C9042
:1015B00030E0D82DDF7002C035952795DA95E2F737
:1015C00020FD08C0302F042E01C0330F0A94EAF723
:1015D000232F01C020E027292C934F5F5F4F453018
:1015E0005105E1F691A1992291A292A1892B82A3A2
:1015F000119681E0F6019081951101C080E0682A82
:10160000AA16BB0609F0A7CF262D42E063E671E0DB
:1016100085E691E00E94200B0E944F03862DDF910A
:10162000CF911F910F91FF90EF90DF90CF90BF90DF
:10163000AF909F908F907F906F905F9008950895E6
:10164000FF920F931F93CF93DF938C01F62ED72F2A
:10165000C42F222349F081E0809369010E94042075
:101660009093680180936701809169018823C1F09C
:1016700080916701909168010E941020069780F088
:10168000EF2DFD2FD8014C2F50E0CD01801B910B89
:10169000841795071CF48D918193F7CF10926901FF
:1016A000DF91CF911F910F91FF900895EF92FF92DC
:1016B0000F931F93CF93DF93F62E472FE82FF0E081
:1016C000711106C0E95DFD4F6491762F862F72C0BF
:1016D000272F30E0E95DFD4FE4910E2F10E056E03A
:1016E000659FC0011124CFEFD0E0BE010E94AC2A5B
:1016F0005BEA5603C001579F900D11248F0D911D79
:101700008F0D911D982F990F890F7E01E21AF30A10
:10171000E09ED001E19EB00DF09EB00D1124489FD7
:10172000A0011124452F55277E01E41AF50AE09EF9
:10173000A001E19E500DF09E500D11247E01E81A8B
:10174000F108E29EC001E39E900DF29E900D1124DF
:10175000892F9927C81BD90BC09FC001C19F900D2D
:10176000D09F900D11246230710591F048F46115FD
:101770007105E1F061307105A9F48B2F752F19C047
:101780006430710561F038F06630710579F00AC097
:10179000892F7B2F0EC08E2F7B2FE52F0AC08E2F17
:1017A000792F02C0852F7E2FEB2F03C08B2F7E2F2A
:1017B000E92F6E2FDF91CF911F910F91FF90EF9046
:1017C00008950895CF93DF93762FE901682F842F32
:1017D0000E94560B798368838A83DF91CF910895A5
:1017E0008091F501282F269530E02115310519F457
:1017F0008170826005C02532310524F081708864D3
:101800008093F501089588E090E00C942B2BCF9203
:10181000DF92EF92FF926B017C010E94F00BB70107
:10182000A60188E090E0FF90EF90DF90CF900C94BD
:10183000492BE5EFF1E083E0808311828FEF828313
:101840008383148260817181828193810C94070C5F
:101850008091F50180FF02C08695089580E008958B
:101860008091F901833018F48F5F8093F9016091C2
:10187000F5017091F6018091F7019091F8010C94B7
:10188000070C8091F901882319F081508093F901A8
:101890006091F5017091F6018091F7019091F80146
:1018A0000C94070C6091040170E08091F50180FFB9
:1018B0000AC080916E0123E0829FC00111248650EE
:1018C0009E4F0C942B1180916D019091030189170B
:1018D00080F7E82FF0E09F01220F331FE20FF31F84
:1018E000E650FE4F1182108212828F5FF0CF9091EE
:1018F000F50190FF16C090916D01209103019217A0
:1019000070F4E92FF0E0DF01AA0FBB1FEA0FFB1F05
:10191000E650FE4F8183608342839F5FF0CF0C943B
:10192000520C0895CF93DF9300D01F92CDB7DEB74E
:101930009091F50190FF0AC09E012F5F3F4F0E94DA
:10194000E20B4B8169818A810E94770C0F900F9086
:101950000F90DF91CF910895CF93DF93EC01EC814D
:10196000F0E0EE5DFE4F4491E5EFF1E062818181B0
:101970000E94920C8C818F5F8C83DF91CF910895B0
:10198000CF93DF93EC01E5EFF1E0438162818C813D
:101990000E94920C8C818F5F8C83DF91CF91089590
:1019A0000F931F93CF93DF9300D01F92CDB7DEB775
:1019B0008C0180916A0181110AC09E012F5F3F4F07
:1019C0004FEF6FEF0E94E20B8A8180936A01F8016A
:1019D0008481813051F028F0823061F440916A01B5
:1019E0000AC080916A0140E007C060916A0140E04E
:1019F00080E003C040E080E060E00E94770CF801E6
:101A0000848190E0019663E070E00E94C02A8483A4
:101A10000F900F900F90DF91CF911F910F9108952C
:101A2000AF92BF92CF92DF92EF92FF920F931F93EC
:101A3000CF93DF9300D01F92CDB7DEB7182FF62ECD
:101A4000042FE22E9091F50190FF6DC0E92FE695ED
:101A5000AE2FB0E0A35DBE4F8C91809376019E7F48
:101A6000923061F49E012F5F3F4F812F0E94E20B65
:101A70004B8169818A810E94770C43C0823019F4BE
:101A80000091F8013EC0863019F41091F60139C07A
:101A90008930D9F38931A9F5E9518E2F8170D82E7B
:101AA000E695F0E0EE5DFD4FA590B490C12CBB240F
:101AB00060910201C61618F52C2D30E0A29EC001DF
:101AC000A39E900DB29E900D112470E00E94AC2A4E
:101AD000812FD11002C0860F01C0861B90916D012D
:101AE000290F311DA901440F551F240F351F265002
:101AF0003E4F402F6F2D0E94E20BC394D9CF0E941E
:101B0000520C1093F601F092F7010093F801EE20C9
:101B100051F06091F5017091F6018091F70190917B
:101B2000F8010E94070C0F900F900F90DF91CF915A
:101B30001F910F91FF90EF90DF90CF90BF90AF90EB
:101B40000895E5EFF1E09181282F4381628188E0DB
:101B5000890F0C94100D81E00C94A10DE5EFF1E0DC
:101B60009181282F4381628188EF890F0C94100D99
:101B700081E00C94AE0DE5EFF1E0628121E1620FAE
:101B800008F46FEF282F438181810C94100D81E0C0
:101B90000C94BB0DE5EFF1E0628121E1621B08F4DA
:101BA00060E0282F438181810C94100D81E00C941A
:101BB000CA0DE5EFF1E0438121E1420F08F44FEF58
:101BC000282F628181810C94100D81E00C94D90D35
:101BD000E5EFF1E0438121E1421B08F440E0282FCA
:101BE000628181810C94100D81E00C94E80D20E05D
:101BF0000C94100DFF920F931F93CF93DF93EC0182
:101C0000F12C0FEF10E060910201F616F0F48091D4
:101C10006D012F2D30E0280F311DC901880F991F4C
:101C2000280F391F26503E4F70E0C8010E94C02A7D
:101C3000962F8C814091F8016091F701F99E800DFB
:101C400011240E94E20BF394DECF0E94520C9A8181
:101C50008C8190FF02C08F5F01C081508C83DF9127
:101C6000CF911F910F91FF900895BF92CF92DF9275
:101C7000EF92FF920F931F93CF93DF93FC0182812A
:101C800080FF02C00FEF01C001E010E0809102016F
:101C90001817E0F580916D01C12ED12CE601C80F17
:101CA000D11DCE01880F991FC80FD91FC650DE4F16
:101CB000198218821A8234E0E32EF12CB12C809123
:101CC0006C018B0D87FF03C090910201890F082ED4
:101CD000000C990BC816D90691F48091F8018E9DDD
:101CE000A0018F9D500D1124559547955595479509
:101CF0009E016091F7018091F6010E94E20BB00E07
:101D0000F1E0EF1AF108D9F61F5FC0CF0E94520C24
:101D100080916C01013031F4811102C08091020187
:101D2000815007C090E001966091020170E00E942E
:101D3000C02A80936C01DF91CF911F910F91FF908A
:101D4000EF90DF90CF90BF900895CF9380916D0179
:101D500090910301891770F4E82FF0E09F01220FA2
:101D6000331FE20FF31FE650FE4F118210821282E2
:101D70008F5FF0CFC0E060910201C617C0F5EC2F75
:101D8000F0E070E0CF010E94C02A20916D01820F27
:101D900020916B01022E000C330B90E0E217F30749
:101DA000CCF020910101022E000C330B2E173F07BF
:101DB0008CF09C01220F331F820F931F9C01265031
:101DC0003E4F4091F8016091F7018091F6010E9429
:101DD000E20B0BC0FC01EE0FFF1F8E0F9F1FFC01DB
:101DE000E650FE4F118210821282CF5FC4CF0E9454
:101DF000520C2091000180916B01820F80936B0146
:101E000090910101920F9093010119165CF4082E34
:101E1000000C990B4091020150E041505109841788
:101E200095071CF0219520930001CF9108950F9301
:101E30001F93CF93DF938C01FC01848195810196E0
:101E40008170992795838483C0E0D5E58091020154
:101E5000C81700F580916D012C2F30E0280F311D3F
:101E6000C901880F991F280F391F26503E4F4C2F4C
:101E70004695F80184819581840F911D8170409170
:101E8000F8016091F7018D9F802D11240E94E20BD3
:101E9000CF5FDCCFDF91CF911F910F910C94520C4B
:101EA0000F931F93CF93DF93EC0100E010E080913C
:101EB0000201282F30E00217130724F590916D01DD
:101EC0009801290F311DA901440F551F240F351FFB
:101ED00026503E4F869590E04C81081719071CF458
:101EE000442331F002C0411103C04091F80101C008
:101EF00040E06091F7018091F6010E94E20B0F5FD4
:101F00001F4FD5CF0E94520C8C8190E001968170BA
:101F100099278C83DF91CF911F910F910895E5EF61
:101F2000F1E080818E7F80836081718182819381E5
:101F30000E94070C109277012FEF80E792E021506A
:101F400080409040E1F700C000000C94520C60917A
:101F5000F501669570E04BE050E085E091E00E946D
:101F6000162B892B19F481E0809377010E940420BD
:101F70009093700180936F0108959091F50190FF07
:101F800035C09170811102C0926006C0853210F098
:101F9000986402C0880F982B9093F501662351F046
:101FA0006091F5017091F6018091F7019091F8012F
:101FB0000E94070C6091F501669570E04BE050E0DF
:101FC00085E091E00E94162B892B19F01092770181
:101FD00002C00E94A70F81E0809372014091F80136
:101FE0006091F7018091F6010C94F70D0895682F28
:101FF0009091F501969581E0890F853208F081E096
:102000000C94BD0F81E00C94F70F682F9091F501AF
:1020100096958FEF890F09F484E20C94BD0F81E04F
:102020000C94051061E00C94BD0FE5EFF1E08081A8
:102030008160808386950C9412108091F50180FD5B
:102040000C948F0F0C94151060E00C94BD0F8091D0
:102050007501811133C08091DE0181608093DE01C2
:102060000E94861E811104C00E942F1F0E94190C1D
:102070000E94030C6093F5017093F6018093F701C1
:102080009093F8016E7F61F40E94190C0E94030C7A
:102090006093F5017093F6018093F7019093F80136
:1020A0000E94F00B109277018091F50180FF03C030
:1020B00086950E94241081E08093750108950F9306
:1020C0001F93CF93DF9380917701882309F48CC00D
:1020D00080917601E091F501E695E81BE0937101AE
:1020E000823049F4F0E0E25EFE4FE491CE2FD0E082
:1020F0000CEA1CE049C0863049F4F0E0E55EFE4F92
:10210000E491CE2FD0E000EC1CE03EC0893051F4C9
:10211000E695F0E0E85EFE4FE491CE2FD0E00AEFC6
:102120001DE032C08F3051F4E695F0E0EB5EFE4FDB
:10213000E491CE2FD0E005E31EE026C0853149F4BE
:10214000F0E0EE5EFE4FE491CE2FD0E005EA1EE017
:102150001BC0883181F0833239F4E0E1F1E0C591B0
:10216000D49100ED1CE010C0843251F4C4EFD1E0F2
:1021700000E51FE009C0C8EED3E007E11FE004C09E
:10218000C0EDD7E001EE1BE080917201882389F059
:10219000109272010E9404209E0120953095820FBA
:1021A000931F9093700180936F01109274011092AD
:1021B000730180916F01909170010E9410208C1723
:1021C0009D0790F0E0916F01F0917001CE0FDF1F3D
:1021D000D0937001C0936F018FE691E0F801DF9119
:1021E000CF911F910F910994DF91CF911F910F9182
:1021F00008952BB1342F309523233BB1432B3FB7A8
:10220000F894FC01680F791FE617F70789F08191B0
:1022100098E04BB9000000C087FF2BB9880F000081
:1022200000C000C000C02BB900C09A9591F7ECCF58
:102230003FBF08952AB1242B2AB99B01220F331FD7
:10224000620F731F0E94F91087EC90E00197F1F77D
:1022500000C00000089548E00C941A110C947D020F
:1022600087988F9A2198299A8FB190E0880F892FAB
:10227000881F990B199902C020E001C022E0822B2F
:1022800080937901089520917901220F220F2093E4
:1022900079018FB190E0880F892F881F990B33B196
:1022A00031FBEE27E0F9F0E031FF02C0E2E0F0E0C0
:1022B000E82BF92BE22BE0937901EF70F0E0EE5A76
:1022C000FE4F908180917801890F8093780184304E
:1022D00024F060E080E00E942E11809178018D3F13
:1022E00024F461E080E00E942E11809178018378CF
:1022F00087FF03C081508C6F8F5F809378010895B2
:102300000F931F93CF93DF93C62FD42F122FFC016F
:1023100082818823C9F060937C010E9404209093FD
:102320007B0180937A0180E28C0F883008F057C0DF
:10233000C77081E001C0880FCA95EAF7DF91CF919D
:102340001F910F910C94251580917C01681330C06A
:1023500080917A0190917B010E941020883C910528
:1023600038F500E20D0FCD17B9F080E28C0F883000
:1023700040F4C77081E001C0880FCA95EAF70E9457
:102380002C15083028F581E09D2F977001C0880F2B
:102390009A95EAF70E942515812F0E9412150830A0
:1023A000F0F4D77081E001C0880FDA95EAF70AC02F
:1023B00080E28C0F883098F4C77081E001C0880FEC
:1023C000CA95EAF7DF91CF911F910F910C942C15CC
:1023D000812FDF91CF911F910F910C941215DF91F6
:1023E000CF911F910F9108959C01CB01233F4CE5A4
:1023F0003407F9F078F4283DFCE53F07B9F0293DB2
:102400004CE5340711F1273D3C4531F526E241EE1C
:1024100061EE1EC0253FFCE53F0799F070F0263FB6
:102420003C45D1F427E245EE66EE12C027E245EEC8
:102430000EC026E241EE60EE0BC027E245EE64EEF0
:1024400007C026E241EE62EE03C028E241E065EEFD
:102450000E94801180E00895FC018281882319F098
:1024600010927C01089581E00895909382018093F9
:1024700081010895E0918101F0918201309721F06E
:102480000190F081E02D099480E00895E0918101B0
:10249000F0918201309721F00280F381E02D0994C0
:1024A0000895E0918101F0918201309739F022E0A6
:1024B000DC012C930480F581E02D0994089520918E
:1024C0007F01309180012817390771F090938001C6
:1024D00080937F01E0918101F0918201309721F09A
:1024E0000680F781E02D0994089520917D013091B7
:1024F0007E012817390771F090937E0180937D014A
:10250000E0918101F0918201309721F00084F18502
:10251000E02D0994089585B7806885BF85B78068E8
:1025200085BF089508950C9492120C9493120C9404
:1025300092120C9492120E948B120E9497120C9489
:10254000951281E008950E94FB1F0E945E0A0E947E
:1025500071200E94AA220E9427100C949912BF9207
:10256000CF92DF92EF92FF920F931F93CF93DF935F
:10257000CDB7DEB72A970FB6F894DEBF0FBECDBF3A
:102580000E94910A0E94A112811111C08FEF8983CC
:102590008A831B820E9404208160782F9D838C8314
:1025A00049815A816B818D810E94581354C084E8FF
:1025B000C82E81E0D82E00E010E0B02E802F0E94BF
:1025C000570AE82EF60121916F01F82EF22631F418
:1025D0000F5F1F4F02301105C9F2EFCF8091DE016E
:1025E00081FD0E945D0A80E090E02F2D30E0482FB1
:1025F000B901082E02C0759567950A94E2F760FF4D
:1026000025C08E83BF8281E090E06C0102C0CC0CBB
:10261000DD1C4A95E2F72E2D30E02C213D21232BA5
:1026200009F480E088870E9404208160782F9A87CF
:1026300089874E815F8168858A850E945813F801D9
:10264000EC57FE4F80818C25808305C00196853034
:10265000910569F6BDCF0E9403220E943A12909123
:1026600083018917A9F00E943A12809383012A9668
:102670000FB6F894DEBF0FBECDBFDF91CF911F9193
:102680000F91FF90EF90DF90CF90BF900C94940447
:102690002A960FB6F894DEBF0FBECDBFDF91CF9163
:1026A0001F910F91FF90EF90DF90CF90BF90089512
:1026B000CF93DF93CDB7DEB72B970FB6F894DEBF7D
:1026C0000FBECDBF4F83588769877A878B87DE011E
:1026D000119686E0FD0111928A95E9F785E0FE01E9
:1026E000379601900D928A95E1F749815A816B8165
:1026F0007C818D819E810E94C01A2B960FB6F89422
:10270000DEBF0FBECDBFDF91CF910895FC01808168
:1027100091810E94961D0895882309F41AC1823878
:10272000C1F40E943A1281FD14C169E38091100145
:10273000909111010E94691F0E94231E2FEF81EECC
:1027400094E0215080409040E1F700C0000069E330
:1027500019C08338F9F40E943A1280FDFAC063E58B
:1027600080911001909111010E94691F0E94231E07
:102770002FEF81EE94E0215080409040E1F700C0BF
:10278000000063E580911001909111010E946B1F80
:102790000C94231E8438C1F40E943A1282FDD9C0E1
:1027A00067E480911001909111010E94691F0E94BD
:1027B000231E2FEF81EE94E0215080409040E1F7FE
:1027C00000C0000067E4DECF9CEF980F913A40F420
:1027D000682F80911001909111010E94691FD8CF3C
:1027E00090E2980F983050F4877091E001C0990FF3
:1027F0008A95EAF7892F0E94D81DCACF9BE5980FCA
:10280000933070F4853A29F0863A31F083E890E00D
:1028100005C081E890E002C082E890E00C945F126D
:1028200098E5980F973108F08EC0883A09F445C0B2
:10283000893A09F445C08A3A09F445C08B3A09F44B
:1028400045C08C3A09F445C08B3B09F445C08C3B2C
:1028500009F445C08D3A09F445C0803B09F445C0F0
:102860008E3A09F445C08F3A09F445C0813B09F41A
:1028700045C0823B09F445C0833B09F445C0843B15
:1028800009F445C0853B09F445C0863B09F445C0C1
:10289000873B09F445C0883B09F445C0893B09F4EE
:1028A00045C08D3B09F445C08E3B09F445C08A3BC9
:1028B00009F445C080E090E044C082EE90E041C061
:1028C00089EE90E03EC08AEE90E03BC085EB90E060
:1028D00038C086EB90E035C083EB90E032C084EBEB
:1028E00090E02FC087EB90E02CC08CEC90E029C0EA
:1028F0008DEC90E026C083E891E023C08AE891E067
:1029000020C082E991E01DC084E991E01AC081E213
:1029100092E017C083E292E014C084E292E011C01A
:1029200085E292E00EC086E292E00BC087E292E080
:1029300008C08FE690E005C080E790E002C08AE220
:1029400092E00C947512803F20F00E940B210C94B1
:10295000F8210895882309F464C0823879F40E942C
:102960003A1281FF5EC069E38091100190911101DC
:102970000E94691F0E94231E69E310C08338B1F4CE
:102980000E943A1280FF4DC063E580911001909142
:1029900011010E94691F0E94231E63E580911001AE
:1029A000909111010E946B1F0C94231E843879F4BE
:1029B0000E943A1282FF35C067E480911001909125
:1029C00011010E94691F0E94231E67E4E7CF9CEF5C
:1029D000980F913A10F4682FE1CF90E2980F983059
:1029E00050F4877091E001C0990F8A95EAF7892F1A
:1029F0000E94DE1DD9CF9BE5980F933020F480E034
:102A000090E00C945F1298E5980F973120F480E0E5
:102A100090E00C947512803F20F00E9473210C947A
:102A2000F8210895CF93C82F0E948C13C93349F41D
:102A30002FEF87EE93E0215080409040E1F700C0F7
:102A400000008C2FCF910C94AA14882321F00E94AF
:102A5000D81D0C94231E0895882321F00E94DE1DAA
:102A60000C94231E0895CF92DF92EF92FF920F9362
:102A70001F93CF93DF937C01062FC72FFC01158195
:102A800012951F70D281D1110E94F51D0E94CE1D9A
:102A9000882379F0DD2369F080E2800F883048F0E8
:102AA00082E00E946D1E0E94CE1D91E0D82ED92694
:102AB00001C0D12CCC2EC2948FE0C8228C2D90E086
:102AC000FC01EA5AFF4F0C94F62A8C2F807FCF70BE
:102AD000882311F0C295C07FDD2399F0CC2309F43F
:102AE000C5C180E2800F883010F0011104C08C2F26
:102AF0000E94D81D03C08C2F0E94E81D0E94231E37
:102B0000B5C1802F0E94AA14CC2309F4F5C180E23C
:102B1000800F883010F0011104C08C2F0E94DE1D40
:102B200003C08C2F0E94EE1D0E94231EE5C18C2F36
:102B3000807FCF70803211F0C295C07F002319F0E2
:102B40000130C9F022C0DD2371F0112341F01130B2
:102B500031F40E94081E8C2B0E94101ECDC10E94D1
:102B6000081E8C2B1DC0112319F0113009F4C4C1AB
:102B70000E94191E25C0DD2321F0163008F0BCC1CB
:102B80000EC0153008F0B8C11BC0DD2361F0112361
:102B900031F0F701858180FF69C18F7085838C2FAB
:102BA0000E942515A9C1112359F0093309F06FC1FD
:102BB000FFEF27EE83E0F15020408040E1F765C150
:102BC0008C2F0E942C1598C18C2F8695869583702A
:102BD00019F0813061F090C1DD2321F0802F9C2F0E
:102BE000937002C080E090E00E945F128DC1DD23EF
:102BF00021F0802F9C2F937002C080E090E00E9413
:102C0000751282C1DD23F9F0053F51F0063F71F0E6
:102C1000043FA9F4809112029091130281600BC0CD
:102C20008091120290911302826005C0809112027D
:102C30009091130284609093130280931202802F6C
:102C40000E940B211EC0053F51F0063F71F0043F6A
:102C5000A9F480911202909113028E7F0BC0809193
:102C60001202909113028D7F05C080911202909103
:102C700013028B7F9093130280931202802F0E9485
:102C800073210E94F82140C18C2F837009F045C048
:102C9000D11136C1402F429546954770440F440FDD
:102CA000602F6F70862F90E0A0E0B0E0042E04C08B
:102CB000880F991FAA1FBB1F0A94D2F704FF10C0E8
:102CC0000FE010E020E030E004C0000F111F221FD1
:102CD000331F4A95D2F7009510952095309503C083
:102CE00000E010E09801C695C695C370BC01CD0107
:102CF000602B712B822B932BC23049F058F4C130DA
:102D000019F00E94111CFCC00E94FF1BF9C00E9418
:102D1000231CF6C00E94FD1BF3C0DD2319F08C2F8D
:102D2000817001C08695882309F4EAC0402F42953E
:102D300046954770440F440F602F6F70862F90E0C8
:102D4000A0E0B0E0042E04C0880F991FAA1FBB1F8B
:102D50000A94D2F704FF10C00FE010E020E030E04A
:102D600004C0000F111F221F331F4A95D2F7009590
:102D700010952095309503C000E010E09801C695AD
:102D8000C695C370BC01CD01602B712B822B932B98
:102D9000C23049F058F4C13019F00E94D61CB0C0BE
:102DA0000E94C41CADC00E94E81CAAC00E94371C2F
:102DB000A7C0CF70DD2339F08C2F0E945D1C802FBF
:102DC0000E9425159DC0802F0E942C158C2F0E94DB
:102DD0007E1C96C0023F01F128F4003F41F0013F04
:102DE000A1F040C0033FF9F0043F39F13BC0DD23BF
:102DF00041F0153008F080C08C2F8F710E94A31C09
:102E00007BC0163008F078C0F7CFDD2339F08C2F67
:102E10008F710E945D1C70C0DD23C9F38C2F8F71F0
:102E20000E947E1C69C0DD2329F08C2F8F710E94C7
:102E3000481C62C00E94431C5FC0DD2349F0CF7173
:102E40008C2F0E945D1C63E08C2F0E94581E54C082
:102E500081E00E946D1E123008F44EC082E00E9494
:102E60006D1E4AC0DD2331F0112389F2802F0E94AC
:102E70008C1342C0112391F2093349F49FEFE7EE1E
:102E8000F3E09150E040F040E1F700C00000802FF7
:102E90000E94AA1431C04C2F4F70602FC7010E94AE
:102EA0006E070E946E1B30C0D1112EC0CF70C23091
:102EB00091F038F4CC2361F0C130F1F40E94EE229D
:102EC00023C0C43071F050F0C530B1F480E00AC0C6
:102ED0000E94CB2219C00E94352316C00E943C23B9
:102EE00013C083E00E9465230FC04C2F4F70602FEA
:102EF000C7010E94710708C088EF8C0D843020F450
:102F00000E943A120E949404DD20C9F00E94CA1D5A
:102F100080FD15C0F70112820E94C41D0E945D1C35
:102F2000C7010E94A8170E94C41DDF91CF911F9175
:102F30000F91FF90EF90DF90CF900C947E1CDF916B
:102F4000CF911F910F91FF90EF90DF90CF90089558
:102F50000F931F93CF93DF93EC01988189812B818D
:102F60003C81232B31F08F3F31F481E09F3F19F4F6
:102F700003C081E001C080E080FD13C0CE010E944B
:102F8000AC04882371F0688179818A810E94A11D37
:102F90008C010E94FA1C0E94EB1BB801CE010E941A
:102FA0003315DF91CF911F910F9108950E94F51D68
:102FB0000E94051E0E94231E0E949E220E94F8214C
:102FC00080E090E00E945F1280E090E00C94751227
:102FD00080911001909111010E946D1F0C94D617E1
:102FE0000E94E51D0C94E817E92FE295EF704E2F33
:102FF00050E0FA013297EE30F105B0F4EA59FF4F94
:103000000C94F62A803F91F018F4883E68F40EC0C4
:10301000843F51F40BC0883E48F0813F29F406C03C
:1030200093FB882780F9089580E0089581E0089552
:103030000E94961D0E94F4170895CF93DF9300D04D
:1030400000D01F92CDB7DEB70F900F900F900F906A
:103050000F90DF91CF910895CF93DF9300D000D0F0
:1030600000D0CDB7DEB726960FB6F894DEBF0FBE00
:10307000CDBFDF91CF9108951F93CF93DF93C09180
:10308000870116E080918801C81799F0D0E01C9F55
:10309000F0011D9FF00D1124E757FE4F4081518133
:1030A00062817381848195810E942C182196C7705A
:1030B000E9CFDF91CF911F9108954091B9015091CF
:1030C000BA016091BB017091BC018091BD019091EA
:1030D000BE010C942C18CF938091BE0182958F7005
:1030E00009F05FC08091BB01882309F45AC0809128
:1030F0008701B09188017091B901A091BA01409106
:10310000BC015091BD0191E07F3F09F090E0692F33
:10311000C6E08B1709F445C04115510521F0AF3FBA
:1031200021F020E003C021E001C0262F90E020FD27
:1031300035C0C89FF001C99FF00D1124E757FE4F1D
:1031400021812A132BC02081271328C0228121111D
:1031500025C0238134812417350710F4215031090B
:10316000241B350B283C3105C8F42091BE012F707B
:1031700020612093BE0126E0289FF001299FF00DD9
:103180001124E257FE4F80818F708061808389EB2C
:1031900091E00E94A817CF910C943C18019687707B
:1031A000B8CFCF910895AF92BF92CF92DF92EF92B6
:1031B000FF920F931F93CF93DF93CDB7DEB7619745
:1031C0000FB6F894DEBF0FBECDBF8C0185E0F801CD
:1031D000DE011D9601900D928A95E1F7D8014C9180
:1031E00011965C9111971296EC903091B901609113
:1031F000BA018091BC019091BD01009731F06F3F01
:1032000031F421E03F3F19F403C021E001C020E088
:10321000B22FB170BB2E20FD60C1F801C380D480F5
:10322000A090BB01AA2009F4EEC02091BE01C816EF
:10323000D90628F0D601A81BB90BCD0104C0809592
:1032400090958C0D9D1DFF24F394883C910580F092
:10325000F12C207F09F09CC07C2DD98AC88A6E2D64
:1032600089890E941D1889EB91E00E94A8172DC141
:10327000822F807F09F054C0561314C0431312C02C
:10328000FE2CE1100FC02F7020612093BE010E9420
:103290005D1889EB91E00E94A8178091BE01F801AA
:1032A00085835CC1CD2831F05F3F31F481E04F3F31
:1032B00019F403C081E001C080E080FD03C081E01B
:1032C0008E2502C080E090E0F82FF170FF2E80FF85
:1032D0001CC0809187012091880136E0821709F493
:1032E0001AC190E0389FF001399FF00D1124E75783
:1032F000FE4F6181561306C06081461303C0628190
:10330000E61203C001968770E9CFFE2CEE2009F487
:1033100025C18091BE0181608093BE01F12C1EC148
:10332000561309C0431307C0E11005C08091BE01C8
:10333000F8018583A4C04D875E878D859E850E9498
:103340001818882379F1EE2069F12091BE01822FAF
:1033500082958F7090E0029774F08091B9019091FE
:10336000BA0198878F831986DB86CA862C87CE019F
:1033700007960E94A81786E0F801A9EBB1E001903A
:103380000D928A95E1F70E946B180E945D180DC09E
:10339000561771F04D875E878D859E850E9418189F
:1033A00081111AC0C8010E94A817FF24F394D6C047
:1033B0004313F0CFE110EECF8091BE01F801858379
:1033C000C8010E94A81786E0E9EBF1E0DF011D9239
:1033D0008A95E9F7FA2CC2C0EE2021F32091BE01B4
:1033E000822F82958F7090E002972CF28091B90124
:1033F0009091BA019A8389831B82DD82CC822E83CD
:10340000CE010196B6CFC816D90628F0F601E81B02
:10341000F90BCF0104C0809590958C0D9D1D883CC3
:10342000910548F0F12C7C2DD98AC88A6E2D8989A6
:103430000E941D184AC0FE2CEE2009F4B3CF56138B
:1034400033C0431331C02091BE0120FD24C0822F20
:1034500082958F70482F50E041155105E1F0D80159
:1034600015962C9315974F30510549F08F5F982F83
:103470009295907F822F8F70892B15968C93C8011F
:103480000E94A81786E0F801A9EBB1E001900D9227
:103490008A95E1F73DC086E0F801A9EBB1E0019023
:1034A0000D928A95E1F75AC04D875E878D859E857E
:1034B0000E94181881115FCF8091BE0181608093B6
:1034C000BE01C8010E94A81749C0E9EBF1E086E0FF
:1034D000DF011D928A95E9F71BC0EE2009F462CF47
:1034E0004D875E878D859E850E941818F82E88234B
:1034F00009F458CF86E0F801A9EBB1E001900D92F4
:103500008A95E1F789EB91E00E9486130E946B187F
:103510000E945D1823C04D875E878D859E850E9421
:10352000961D292F22952F70223028F49F7039F094
:10353000811105C00BC0243028F49F7049F4805ECF
:10354000883020F0C8010E94A817BF2CFB2C06C0B1
:10355000D80115969C91907F91F7F8CF8F2D6196A9
:103560000FB6F894DEBF0FBECDBFDF91CF911F9194
:103570000F91FF90EF90DF90CF90BF90AF900895A4
:103580001F93CF93DF93CDB7DEB72C970FB6F89488
:10359000DEBF0FBECDBF4F83588769877A878B8781
:1035A0009C87CE0107960E94D3188823D1F09F8173
:1035B00088852A853B85232B31F08F3F31F481E0CC
:1035C0009F3F19F403C081E001C080E080FD47C047
:1035D0004F81588569857A858B859C850E942C183A
:1035E0003EC086E0FE013796DE01119601900D92F5
:1035F0008A95E1F7FF81E8856A857B85611571050C
:1036000031F0EF3F31F481E0FF3F19F403C081E076
:1036100001C080E080FD23C02091880130E0C90115
:103620000196877099274091870150E0841795078C
:10363000F1F1F983EA837D836C8396E0929FD00158
:10364000939FB00D1124A757BE4FFE0131960190F4
:103650000D929A95E1F7809388010E943C1816E03C
:103660008091870190918801891771F1189FC0019D
:10367000112487579E4F0E94D318882329F1E09187
:1036800087011E9FF0011124E757FE4F40815181B1
:1036900062817381848195810E942C1880918701B9
:1036A00090E001968770992780938701D9CF0E9477
:1036B000F0171092880110928701E9EBF1E086E0A3
:1036C000DF011D928A95E9F72C960FB6F894DEBFBC
:1036D0000FBECDBFDF91CF911F910895EF92FF9262
:1036E0000F931F93CF93DF938C01892B09F46CC048
:1036F000F12CEE24E394E8012196F80184918437BB
:1037000040F4843008F051C0813081F0823019F1EA
:103710005BC0853709F444C0A8F19CE7980F903747
:1037200008F052C08F770E94AA1441C00E5F1F4F4D
:10373000FE01849190E2980F983050F48770FE2D2E
:1037400001C0FF0F8A95EAF78F2F0E94F81D14C061
:103750000E948C132DC00E5F1F4FFE01849190E2DA
:10376000980F983060F48770FE2D01C0FF0F8A9586
:10377000EAF78F2F0E94FE1D0E94231E19C00E948F
:10378000AA1416C00E5F1F4FFE01C491CC2381F016
:103790008FE99FE00197F1F700C00000C150F6CF1C
:1037A0000E5F1F4FFE01F49003C00E948C138E0128
:1037B0008F2D882309F49FCFEFE9FFE03197F1F7D0
:1037C00000C000008150F5CFDF91CF911F910F9184
:1037D000FF90EF900895089508950C94EC1B0C94BD
:1037E000ED1B0E94EF1B6093CD017093CE0180937F
:1037F000CF019093D0010C94D6170C94F11B0F932A
:103800001F930091CD011091CE012091CF013091F5
:10381000D001602B712B822B932B1F910F910C9455
:10382000F11B0F931F930091CD011091CE012091B8
:10383000CF013091D00160237123822393231F9104
:103840000F910C94F11B0F931F930091CD011091D8
:10385000CE012091CF013091D001602771278227BE
:1038600093271F910F910C94F11B0C94EC1B0E9459
:10387000351C6093C9017093CA018093CB0190936A
:10388000CC010C94D61760E070E0CB010C94371C8F
:103890000F931F9341E050E060E070E08A019B01CC
:1038A00004C0000F111F221F331F8A95D2F7C901D0
:1038B000B8011F910F910C94371C0F931F9341E097
:1038C00050E060E070E004C0440F551F661F771F92
:1038D0008A95D2F78091C9019091CA01A091CB013C
:1038E000B091CC018A019B01082B192B2A2B3B2B71
:1038F000C901B8011F910F910C94371C0F931F93AE
:1039000041E050E060E070E004C0440F551F661FC6
:10391000771F8A95D2F74095509560957095809164
:10392000C9019091CA01A091CB01B091CC018A014B
:103930009B01082319232A233B23C901B8011F91A6
:103940000F910C94371C0F931F9341E050E060E0FF
:1039500070E004C0440F551F661F771F8A95D2F789
:103960008091C9019091CA01A091CB01B091CC0185
:103970008A019B01082719272A273B27C901B8017B
:103980001F910F910C94371C0F931F930091C90145
:103990001091CA012091CB013091CC01602B712B89
:1039A000822B932B1F910F910C94371C0F931F9315
:1039B0000091C9011091CA012091CB013091CC0135
:1039C00060237123822393231F910F910C94371C42
:1039D0000F931F930091C9011091CA012091CB014F
:1039E0003091CC0160277127822793271F910F9177
:1039F0000C94371C089524E0929F900D1124890F98
:103A0000E82FE695E695E695877051E001C0550FE1
:103A10008A95EAF785E0E89FF0011124E154FE4F12
:103A200020E030E070E04081CB01022E02C096958C
:103A300087950A94E2F781708195842785238427EE
:103A400081932F5F3F4F2530310569F7089524E0BA
:103A5000929F900D1124890F682F66956695669543
:103A6000982F977085E0689FB001112440E050E0E6
:103A700080E0FB01E40FF51FE154FE4F208130E0B0
:103A8000092E02C0369527950A94E2F72170332754
:103A9000042E01C0220F0A94EAF7822B4F5F5F4F7A
:103AA0004530510531F70895BF92CF92DF92EF92E2
:103AB000FF920F931F93CF93DF938C01C090C901A6
:103AC000D090CA01E090CB01F090CC018091CD0163
:103AD0009091CE01A091CF01B091D001C82AD92AEE
:103AE000EA2AFB2ACFE1D0E0D701C6010C2E04C0A0
:103AF000B695A795979587950A94D2F780FD04C04F
:103B0000219790F7B12C07C0BC2EB8018C2F0E94D2
:103B10008D070197A9F38B2DDF91CF911F910F9105
:103B2000FF90EF90DF90CF90BF900895CF93DF93F9
:103B3000EC010E94541DBE010E948D07DF91CF91C0
:103B400008951F93CF93DF93EB0190918601992302
:103B500021F0CB010E94961D13C0882349F0CB01B0
:103B60000E94541D182F682FCE010E94FB1C04C018
:103B7000CB010E94271D182FBE01812F0E948D07A7
:103B8000DF91CF911F9108958091D1018595859501
:103B9000859508958091D101877008959091D10104
:103BA000977081E009F480E008958091DD01089527
:103BB0009091DD01892B8093DD010895809590918E
:103BC000DD0189238093DD0108951092DD010895C0
:103BD0009091DC01892B8093DC0108958095909170
:103BE000DC0189238093DC0108951092DC010895A3
:103BF0009091DB01892B8093DB0108958095909152
:103C0000DB0189238093DB0108951092DB01089585
:103C10008091D201089508950C940B1E0C940C1EF3
:103C20009091D201981721F08093D2010C940E1E2E
:103C300008958091D201882329F01092D20180E06A
:103C40000C940E1E0895E0911001F09111018091E5
:103C5000DD018083E0911001F0911101908180914C
:103C6000DC01892B8083E0911001F091110190819A
:103C70008091DB01892B80838091D201882381F0A0
:103C8000E0911001F09111019081892B8083809146
:103C90001001909111010E94361F81110E94191E7E
:103CA00080911001909111010C9446120C940B1EFE
:103CB00098E0899F90011124262B2093D1010E9426
:103CC0005D1C8091D1018595859585950C94561E36
:103CD0001092D10180E00C94561E2091D101809564
:103CE00082238093D101982F977079F430E0482F88
:103CF000082E000C550B2417350739F0859585954E
:103D000085950E947E1C0C94681E089580E090E0CA
:103D10000E94312B21E08C3E9E4F09F020E0822F43
:103D2000089582E090E00C94232B83E090E00C94C3
:103D3000232BCF9384E090E00E94232BC82F81E2B5
:103D400090E00E94232B2C2F30E0A901582BCA01B0
:103D5000CF910895CF93C92F682F84E090E00E94FF
:103D6000372B6C2F81E290E0CF910C94372B86E0BB
:103D700090E00C94232B682F86E090E00C94372B76
:103D8000AB01BC018FE090E00C94492BAB01BC016E
:103D900083E190E00C94492B60E070E0CB010C943F
:103DA000C61E60E070E0CB010E94C01E0C94CC1EC9
:103DB0006CEE7EEF80E090E00E94552B60E082E0A8
:103DC00090E00E94372B60E083E090E00E94372B68
:103DD0001092CD011092CE011092CF011092D0011D
:103DE00060E084E090E00E94372B60E081E290E0A8
:103DF0000E94372B60E085E090E00E94372B60E066
:103E000086E090E00E94372B6FEF87E090E00E9401
:103E1000372B40E050E0BA0188E090E00E94492B47
:103E200060E08DE090E00E94372B40E050E0BA0166
:103E300088E190E00E94492B60E087E190E00E94D9
:103E4000372B40E050E0BA018CE190E00E94492B12
:103E500060E080E290E00E94372B0C94D11E0C941D
:103E6000D81E682F8EE090E00C94372BFC01329620
:103E700097E080E0915029F021912223D9F38F5FC0
:103E8000F9CF08959C01FC0132969FEF80E04191AB
:103E9000461789F09F3F19F4411101C0982F8F5F99
:103EA0008630A9F79F3F39F0F901E90FF11D97FD21
:103EB000FA956283089508959C012A5F3F4FFC01A3
:103EC0004281461301C01282019682179307B9F707
:103ED00008950C94421F0C945C1F029626E0FC018E
:103EE00011922A95E9F7089508950C94741F0C9483
:103EF000741F0E94771F0E94910A0E94751F80E024
:103F00000E94570A811108C081E00E94570A91E07F
:103F1000811103C090E001C091E0892F08950C94B5
:103F2000741F0C948F1F0E94911F80911F02843078
:103F300061F11092DF0120E488E190E00FB6F8947F
:103F4000A895809360000FBE2093600080E00E94DF
:103F5000D10380E00E9494040E94911F83B7817F67
:103F6000846083BF83B7816083BF7894889583B76B
:103F70008E7F83BF0FB6F894A8958091600088610A
:103F800080936000109260000FBE08950C94741F1F
:103F90000E94F0170E94AA220E943A120E949404E2
:103FA0000C94C61F1F920F920FB60F9211248F937D
:103FB0009F93AF93BF938091DF01811113C08091D4
:103FC000140290911502A0911602B0911702419629
:103FD000A11DB11D8093140290931502A0931602A7
:103FE000B0931702BF91AF919F918F910F900FBE29
:103FF0000F901F90189582E084BD93E095BD9AEFD5
:1040000097BD80936E0008952FB7F89480911402A5
:1040100090911502A0911602B09117022FBF08953A
:10402000CF92DF92EF92FF920F931F932FB7F894E6
:10403000409114025091150260911602709117027E
:104040002FBF6A017B01EE24FF248C0120E030E0C9
:10405000C016D106E206F30610F4415051099A0148
:10406000281B390BC9011F910F91FF90EF90DF9032
:10407000CF90089578941F920F920FB60F9211244B
:104080008F939F93AF93BF938091140290911502E9
:10409000A0911602B09117020196A11DB11D809347
:1040A000140290931502A0931602B0931702BF91C9
:1040B000AF919F918F910F900FBE0F901F90189509
:1040C00087E797E790930108809300089AE088E1DA
:1040D0000FB6F894A895809360000FBE909360008F
:1040E000FFCF0E94861E811102C00E942F1F0E94D6
:1040F000911E8093DE010E94991E90931902809375
:1041000018020E94951E682F70E080E090E00C94E9
:10411000FD1B8091E30180FF0BC06091150185E0DC
:10412000689FB001112475956795759567952BC0AB
:1041300081FF09C06091150185E0689FB0011124DD
:104140007595679520C082FF07C06091150185E0D5
:10415000689FB001112417C09091E2019923D1F01A
:1041600060911401961788F72091150185E0289F2A
:1041700090011124929FA001939F500D112470E093
:10418000CA010E94C02A6038710540F461157105AA
:1041900019F406C065E070E0862F08958FE7089552
:1041A00081E008958091E30180FF08C060911301D0
:1041B00070E0759567957595679521C081FF06C07C
:1041C0006091130170E07595679519C082FF04C076
:1041D0006091130170E010C09091E201992399F071
:1041E000609112019617A0F780911301899FC00179
:1041F000112470E00E94C02A6038710540F46115F6
:10420000710519F406C061E070E0862F08958FE70C
:10421000089581E00895803F21F40E9489208195CE
:1042200004C0813F29F40E9489208093E70108950A
:10423000823F21F40E948920819504C0833F29F4A4
:104240000E9489208093E6010895893F19F40E9415
:10425000D22005C08A3F31F40E94D22081958093FC
:10426000E80108958B3F21F40E94D220819504C07B
:104270008C3F29F40E94D2208093E9010895843F65
:1042800021F48091E501816017C0853F21F4809180
:10429000E501826011C0863F21F48091E5018460D0
:1042A0000BC0873F21F48091E501886005C0883FFD
:1042B00031F48091E50180618093E50108958D3F9F
:1042C00021F48091E30181600BC08E3F21F4809145
:1042D000E301826005C08F3F29F48091E30184608F
:1042E0008093E3010895803F39F48091E70187FFCF
:1042F0006CC01092E70169C0813F29F48091E70109
:104300001816BCF362C09091E601823F29F497FF32
:104310005CC01092E60159C0833F19F41916CCF322
:1043200054C0893F41F48091E80118160CF04DC04B
:104330001092E8014AC08A3F29F48091E80187FF82
:1043400044C0F6CF8B3F39F48091E90187FF3DC02F
:104350001092E9013AC08C3F29F48091E9011816C6
:10436000BCF333C0843F21F48091E5018E7F17C0F8
:10437000853F21F48091E5018D7F11C0863F21F4B6
:104380008091E5018B7F0BC0873F21F48091E5018F
:10439000877F05C0883F31F48091E5018F7E80934F
:1043A000E50113C08D3F21F48091E3018E7F0BC0A6
:1043B0008E3F21F48091E3018D7F05C08F3F29F46A
:1043C0008091E3018B7F8093E3018091E60181116D
:1043D0000EC08091E70181110AC08091E80181112E
:1043E00006C08091E901811102C01092E201089596
:1043F00084EE91E00E9451120E9404209093E1010A
:104400008093E00108951F93CF93DF938091E001A3
:104410009091E1010E941020AC019091E20199235A
:1044200021F02091160130E006C0209117018AE0AA
:10443000289F900111244217530708F47BC08091F4
:10444000E601C091E701D091E8011091E9018111E5
:1044500007C0C1116BC0D11169C0111167C06AC01A
:104460009F3F19F09F5F9093E201181624F40E9479
:1044700089208093E6018091E60187FF05C00E94B4
:10448000892081958093E6011C1624F40E948920DE
:104490008093E7018091E70187FF05C00E94892092
:1044A00081958093E7013091E6013323E1F020917B
:1044B000E7012223C1F045EB3403C0011124992305
:1044C00019F09093E60103C081E08093E60135EB9B
:1044D0002303C0011124992319F09093E70103C02D
:1044E00081E08093E7011D1624F40E94D22080937E
:1044F000E8018091E80187FF05C00E94D2208195E4
:104500008093E801111624F40E94D2208093E901DF
:104510008091E90187FF05C00E94D2208195809398
:10452000E901DF91CF911F910C94F8219F3F09F091
:1045300099CFAACFDF91CF911F910895E4EEF1E0DA
:1045400086E0DF011D928A95E9F71092E201109250
:10455000E30108950E94861E811102C00E942F1F50
:104560000E94B71E80931A02282F2695269526951D
:1045700030E02430310524F08770886180931A027E
:1045800080911A0280FF04C086958695869501C0A9
:1045900080E00C94D10320911A02822F8695869593
:1045A0008695482F50E04330510554F48F5F982F83
:1045B000990F990F990F822F8770892B80931A0278
:1045C00080911A02816080931A020E94BB1E809122
:1045D0001A028695869586950C94D10380911A02CD
:1045E000982F969596959695A1F0915E990F990FB3
:1045F000990F8770892B80931A02887F91E009F4C4
:1046000090E080911A0290FB80F980931A020E9438
:10461000BB1E80911A028695869586950C94D103CF
:1046200080911A0280FD13C0816080931A0281304C
:1046300019F489E080931A0280911A020E94BB1E2D
:1046400080911A028695869586950C94D1030895DB
:1046500080911A0280FF08C08E7F80931A020E9408
:10466000BB1E80E00C94D103089580911A0280FD56
:104670000C9428230C94102390911A02892F86956C
:10468000869586958F5F8F719770843038F4880F88
:10469000880F880F892B80931A0202C090931A0208
:1046A00080911A02887F91E009F490E080911A02CB
:1046B00090FB80F980931A020E94BB1E80911A021F
:1046C0008695869586950C94D103843008F083E016
:1046D000880F880F880F90911A029770892B80930A
:1046E0001A02887F91E009F490E080911A0290FB11
:1046F00080F980931A020E94BB1E80911A0286954F
:10470000869586950C94D1038091F20108950F93BC
:104710001F93CF93DF9300D01F92CDB7DEB78C01EC
:104720000E94E125823011F0843021F584E08983F4
:104730001B830A8382E08093E9008FEF9091E80069
:10474000815095FD06C095ED9A95F1F70000811115
:10475000F5CF8091E80085FF0DC040E050E063E0B8
:1047600070E0CE0101960E94FE258091E8008E77D0
:104770008093E8000F900F900F90DF91CF911F91E1
:104780000F910895CF93DF9300D01F92CDB7DEB77E
:1047900020911F02243031F523E0298380589109AC
:1047A0009B838A8382E08093E9008FEF9091E800F9
:1047B000815095FD06C095ED9A95F1F700008111A5
:1047C000F5CF8091E80085FF0DC040E050E063E048
:1047D00070E0CE0101960E94FE258091E8008E7760
:1047E0008093E8000F900F900F90DF91CF91089584
:1047F000CF93DF93EC010E94E125823011F08430E9
:10480000F9F482E08093E9008FEF9091E800815005
:1048100095FD06C095ED9A95F1F700008111F5CF51
:104820008091E80085FF0CC040E050E066E070E059
:10483000CE010E94FE258091E8008E778093E800EB
:10484000DF91CF910895CF93DF93EC010E94E12592
:10485000823011F0843039F581E08093E9008FEFE8
:104860009091E800815095FD06C095ED9A95F1F77D
:1048700000008111F5CF8091E80085FF14C040E071
:1048800050E068E070E0CE010E94FE258091E800D3
:104890008E778093E80088E0FE01AAEEB1E00190F7
:1048A0000D928A95E1F7DF91CF91089580911E02D4
:1048B000811109C00E948F270E94EC278091E2009D
:1048C00084608093E200089510921E020895089576
:1048D00008950C94C81F42E061EC81E00E94082713
:1048E00042E261EC82E00C9408278091210283303F
:1048F00009F460C030F4813071F0823009F499C05D
:1049000008958A3009F485C08B3009F46BC0893072
:1049100009F0A7C020C080912002813A09F0A1C00F
:104920008091E800877F8093E80080912402909135
:104930002502892B21F468E08AEE91E003C060E053
:1049400080E090E070E00E9449268091E8008B773B
:104950008093E800089580912002813209F081C09F
:104960008091240290912502029708F07AC08091EC
:10497000E800877F8093E8008091E80082FD05C011
:1049800080911F028111F8CF6CC02091F3008091BB
:10499000F20090E0922B029729F48091F1008B7F36
:1049A000813021F48091F1008093F2018091E80040
:1049B0008B7753C080912002813A09F052C08091D8
:1049C000240290912502892B09F04BC08091E800C8
:1049D000877F8093E8008091E80080FFFCCF809182
:1049E000220136C0809120028132D9F580912402C3
:1049F00090912502892BA9F58091E800877F80930B
:104A0000E8000E943D2780912202809322010C94AD
:104A1000F01780912002813221F58091E800877F94
:104A20008093E8000E943D27809123028093F30148
:104A3000089580912002813AA1F48091E800877F57
:104A40008093E8008091E80080FFFCCF8091F30123
:104A50008093F1008091E8008E778093E8000C94B9
:104A60003D27089584B7877F84BF0FB6F894A89533
:104A700080916000886180936000109260000FBE9A
:104A800080E880936100109261000E949B120E9456
:104A90008F270E94EC278091E20084608093E200DF
:104AA00078940E94812A0E94A31288E191E00E94DA
:104AB000351280911F02853069F40E94931F809106
:104AC0001D028823B1F30E94791F882391F30E946D
:104AD000E825EFCF0E94AF120E945F10EACF0C943E
:104AE0007125292F332723303105C9F060F4213097
:104AF000310581F02230310509F04AC08BE390E0A6
:104B000025E533E049C02132310511F1223231056A
:104B100079F13EC082E190E020E933E03DC0992781
:104B20008130910561F040F08230910559F0039792
:104B300079F5E7E2F3E008C0E1E5F3E005C0EDE375
:104B4000F3E002C0EDE2F3E0849190E09F0124C025
:104B50006115710541F061307105D1F489E090E093
:104B600020E833E019C089E090E027E633E014C084
:104B70006115710541F06130710551F485E890E0EF
:104B800022EA33E009C080E490E027E234E004C088
:104B900080E090E020E030E0FA0131832083089546
:104BA0000895CF93C82F0E94D025C093F401CF91D0
:104BB000089580911F02843011F081E0089582E011
:104BC00008958091F401811102C00C94D9250895B3
:104BD00080E189BD82E189BD09B400FEFDCF8091ED
:104BE000D8008F7D8093D8008091E0008260809310
:104BF000E0008091E00081FDFCCF0895CF92DF922C
:104C0000EF92FF920F931F93CF93DF93EC018B01F1
:104C10007A010E945C27811133C0E114F10439F05C
:104C2000F70180819181081B190BC80FD91FC12C76
:104C3000D12C0115110519F18091E80085FD16C0F0
:104C40008091E8008E778093E800E114F10449F048
:104C5000F70180819181C80ED91ED182C08285E082
:104C60000FC00E945C27882321F30AC0899180939A
:104C7000F10001501109FFEFCF1ADF0ADACF80E00F
:104C8000DF91CF911F910F91FF90EF90DF90CF9028
:104C9000089520912602309127022617370748F001
:104CA0006115710539F42091E8002E772093E80012
:104CB00001C0B901FC0120E06115710579F1809115
:104CC0001F028823F1F18530F1F18091E80083FD26
:104CD0003CC08091E80082FD2EC08091E80080FFFA
:104CE000EBCF2091F3008091F20090E0922B6115C0
:104CF000710551F08830910538F421912093F1002D
:104D0000615071090196F3CF21E0089709F020E086
:104D10008091E8008E778093E800CECF2111CFCF2D
:104D20000AC080911F02882361F0853061F0809174
:104D3000E80083FD0AC08091E80082FFF2CF80E0A6
:104D4000089582E0089583E0089581E00895209118
:104D50002602309127022617370748F061157105A2
:104D600039F42091E8002E772093E80001C0B901C2
:104D7000FC0120E06115710591F180911F028823EB
:104D800009F440C0853009F43FC08091E80083FDFC
:104D90003DC08091E80082FD2FC08091E80080FF37
:104DA000E9CF2091F3008091F20090E0922B611501
:104DB000710559F08830910540F424912093F10059
:104DC0003196615071090196F2CF21E0089709F000
:104DD00020E08091E8008E778093E800CBCF21110E
:104DE000CCCF0AC080911F02882361F0853061F02A
:104DF0008091E80083FD0AC08091E80082FFF2CF35
:104E000080E0089582E0089583E0089581E00895A8
:104E1000982F973068F59093E900981739F07091C2
:104E2000EC002091ED005091F00003C0242F762F6C
:104E300050E021FD02C09F5FECCF3091EB003E7F40
:104E40003093EB003091ED003D7F3093ED003091D9
:104E5000EB0031603093EB007093EC002093ED0099
:104E60005093F0002091EE0027FDE5CF80E00895FB
:104E70008F708093E90081E008958091200287FF80
:104E800011C08091E80082FD05C080911F02811150
:104E9000F8CF11C08091E8008B770BC080911F0282
:104EA000882349F08091E80080FFF8CF8091E800E6
:104EB0008E778093E80008952091E4003091E5001A
:104EC00095E64091EC00842F817040FF23C08091D3
:104ED000E80080FD1DC080911F02882399F0853075
:104EE00099F08091EB0085FD11C04091E400509154
:104EF000E5002417350729F3915011F09A01E1CF0D
:104F000084E0089582E0089583E0089581E00895A3
:104F100080E008954091E80042FFDDCF08950E94AF
:104F2000FD270E940528E0EEF0E08081816080830B
:104F3000E8EDF0E080818F77808319BCA7EDB0E0C9
:104F40008C918E7F8C9380818F7E808310921E0245
:104F500008950F931F93CF93DF930E94FD270E9424
:104F60000528C8EDD0E088818F77888388818068A4
:104F7000888388818F7D888319BC10921F021092CC
:104F80001B0210921D0210921C0200EE10E0F801AC
:104F900080818B7F808388818160888342E060E0AC
:104FA00080E00E940827E1EEF0E080818E7F808320
:104FB000E2EEF0E080818160808380818860808380
:104FC000F80180818E7F8083888180618883DF9172
:104FD000CF911F910F910895E8EDF0E080818F7ED1
:104FE0008083E7EDF0E080818160808384E082BF90
:104FF00081E080931E020C94A927E8EDF0E0808107
:105000008E7F80831092E20008951092DA00109251
:10501000E10008951F920F920FB60F9211242F9363
:105020003F934F935F936F937F938F939F93AF9330
:10503000BF93EF93FF938091E10082FF0BC08091BB
:10504000E20082FF07C08091E1008B7F8093E10046
:105050000E94802A8091DA0080FF1FC08091D800D2
:1050600080FF1BC08091DA008E7F8093DA008091F0
:10507000D90080FF0DC080E189BD82E189BD09B4FE
:1050800000FEFDCF81E080931F020E94562405C0E0
:1050900019BC10921F020E9464248091E10080FFDD
:1050A00019C08091E20080FF15C08091E2008E7FE0
:1050B0008093E2008091E20080618093E200809121
:1050C000D80080628093D80019BC85E080931F02CD
:1050D0000E9468248091E10084FF30C08091E2004A
:1050E00084FF2CC080E189BD82E189BD09B400FE46
:1050F000FDCF8091D8008F7D8093D8008091E10012
:105100008F7E8093E1008091E2008F7E8093E200A9
:105110008091E20081608093E20080911B028823ED
:1051200011F084E007C08091E30087FD02C081E0B8
:1051300001C083E080931F020E9469248091E100F6
:1051400083FF29C08091E20083FF25C08091E100A8
:10515000877F8093E10082E080931F0210921B0200
:105160008091E1008E7F8093E1008091E2008E7F4C
:105170008093E2008091E20080618093E20042E04F
:1051800060E080E00E9408278091F00088608093B2
:10519000F0000E946724FF91EF91BF91AF919F9122
:1051A0008F917F916F915F914F913F912F910F90D0
:1051B0000FBE0F901F9018951F920F920FB60F926F
:1051C00011242F933F934F935F936F937F938F930C
:1051D0009F93AF93BF93CF93DF93EF93FF93C091D0
:1051E000E900CF708091EC00D82FD17080FDD0E81D
:1051F0001092E9008091F000877F8093F00078940E
:105200000E9420291092E9008091F000886080932C
:10521000F000CD2BCF70C093E900FF91EF91DF91AB
:10522000CF91BF91AF919F918F917F916F915F913E
:105230004F913F912F910F900FBE0F901F90189597
:105240001F93CF93DF93CDB7DEB7AA970FB6F8942D
:10525000DEBF0FBECDBFE0E2F2E08091F1008193AE
:1052600022E0E832F207C9F70E9475248091E80035
:1052700083FF2EC18091200290912102492F50E09E
:105280004A30510508F024C1FA01EC58FF4F0C9444
:10529000F62A803821F0823809F01AC108C08091BE
:1052A0001C0290911D02992389F082600FC08091A9
:1052B00024028F70873008F00BC18093E900809141
:1052C000EB0085FB882780F91092E9009091E800B7
:1052D000977F9093E8008093F1001092F100D1C085
:1052E000282F2D7F09F0F4C0882319F0823061F057
:1052F000EFC080912202813009F0EAC0933009F0BA
:1053000080E080931D022EC08091220281112AC06C
:10531000809124028F702FEF280F263008F0D8C01C
:105320008093E9002091EB0020FF1CC0933021F412
:105330008091EB00806214C09091EB00906190939B
:10534000EB0021E030E0A90102C0440F551F8A950F
:10535000E2F74093EA001092EA008091EB00886047
:105360008093EB001092E9008091E800877F8093A2
:10537000E8000E943D27ACC08111AAC01091220212
:105380001F778091E3008078812B8093E3008091E8
:10539000E800877F8093E8000E943D278091E80025
:1053A00080FFFCCF8091E30080688093E3001111BF
:1053B00002C082E001C083E080931F0289C0805850
:1053C000823008F085C080912202909123028C3DAA
:1053D00053E0950779F583E08A838AE289834FB7A2
:1053E000F894DE01139620E03EE051E2E32FF0E076
:1053F00050935700E49120FF03C0E295EF703F5FA8
:10540000EF708E2F90E0EA3010F0C79601C0C09682
:105410008D939D932F5F243149F74FBF8091E80012
:10542000877F8093E8006AE270E0CE0101960E94D7
:10543000492616C06091240270912502AE014F5F8B
:105440005F4F0E946F25BC01892B09F441C09091E8
:10545000E800977F9093E80089819A810E94A726AF
:105460008091E8008B778093E80032C0803881F526
:105470008091E800877F8093E80080911B028093F1
:10548000F1008091E8008E7772CF811121C0809168
:1054900022029091230299270297D4F48091E80088
:1054A000877F8093E8008091220280931B020E94F4
:1054B0003D2780911B02811106C08091E30087FD8A
:1054C00002C081E001C084E080931F020E946B242F
:1054D0008091E80083FF0AC08091E800877F809375
:1054E000E8008091EB0080628093EB00AA960FB6F3
:1054F000F894DEBF0FBECDBFDF91CF911F9108950D
:105500000895CF9380911F028823A1F0C091E900F4
:10551000CF709091EC00892F817090FD80E8C82BAE
:105520001092E9008091E80083FD0E942029CF704D
:10553000C093E900CF910895DB018F939F930E9460
:105540000B2BBF91AF91A29F800D911DA39F900D3A
:10555000B29F900D11240895AA1BBB1B51E107C0F7
:10556000AA1FBB1FA617B70710F0A61BB70B881FF3
:10557000991F5A95A9F780959095BC01CD01089582
:1055800097FB072E16F4009407D077FD09D00E94F0
:10559000AC2A07FC05D03EF4909581959F4F089565
:1055A000709561957F4F0895A1E21A2EAA1BBB1B2F
:1055B000FD010DC0AA1FBB1FEE1FFF1FA217B307DF
:1055C000E407F50720F0A21BB30BE40BF50B661FF5
:1055D000771F881F991F1A9469F7609570958095B9
:1055E00090959B01AC01BD01CF010895EE0FFF1F07
:1055F0000590F491E02D0994A29FB001B39FC001E2
:10560000A39F700D811D1124911DB29F700D811DEE
:105610001124911D08950E94FC2AA59F900DB49F0E
:10562000900DA49F800D911D11240895FC014150FF
:10563000504030F001900616D1F73197CF01089510
:10564000882799270895F999FECF92BD81BDF89AD0
:10565000992780B50895A6E1B0E044E050E00C94AD
:105660005D2BA8E1B0E042E050E00C945D2B262FCA
:10567000F999FECF92BD81BDF89A019700B4021648
:1056800039F01FBA20BD0FB6F894FA9AF99A0FBEF6
:1056900008950396272F0E94382B0E94372B252F21
:1056A0000E94382B242F0C94382B0196272F0E9410
:1056B000382B0C94372BDC01CB01FC01F999FECF80
:1056C00006C0F2BDE1BDF89A319600B40D9241508A
:0A56D0005040B8F70895F894FFCF9A
:1056DA00010208080801191A1B1C1D1E1F2021227D
:1056EA00D3012808140A321E84232324F823C22350
:1056FA0087230166973594F4F5F6C6919000010266
:10570A000202020606060909090909090F0F0F0F05
:10571A000F0F151515181919191919191919191910
:10572A00232400FF0100010000FFFF000001000127
:02573A00FF006E
:00000001FF
