:100000000C943E020C9485020C9485020C9485029B
:100010000C9485020C9485020C9485020C94850244
:100020000C9485020C9485020C94E9280C94BB294D
:100030000C94B1200C9485020C9485020C948502DA
:100040000C9485020C94E2030C9485020C948502B6
:100050000C940D040C9419210C9485020C948502C7
:100060000C9485020C9485020C9485020C948502F4
:100070000C9485020C9485020C9485020C948502E4
:100080000C9485020C9485020C9485020C948502D4
:100090000C9485020C9485020C9485020C948502C4
:1000A0000C9485020C9485020C948502F415F415C9
:1000B00026162616731691160B180B18D3166817EA
:1000C00079177917DA17E3170B1804189118911894
:1000D000A318A3189A18A318A318A3189118911875
:1000E0009F18A318A3189F18282A4F2A472B4F2A76
:1000F000472B9B2ABE2A472B152B242B1601E201E6
:100100000600E20000001D011C012C042C0011500F
:10011000130008000A001000000017031801110363
:100120000801105000047F3F1F64321464321478B9
:100130003C1E1E140A052223252628292A2C2D2F91
:100140003032333536383A3B3D3E404243454749ED
:100150004A4C4E5051535557595A5C5E6062646622
:1001600068696B6D6F71737577797B7D7F8183852E
:1001700087898A8C8E90929496989A9C9E9FA1A330
:10018000A5A7A8AAACAEAFB1B3B4B6B8B9BBBCBE54
:10019000BFC1C2C3C5C6C7C9CACBCCCDCED0D1D2D0
:1001A000D2D3D4D5D6D7D7D8D9D9DADADBDBDBDCD2
:1001B000DCDCDCDCDDDDDDDDDCDCDCDCDCDBDBDB7E
:1001C000DADAD9D9D8D7D7D6D5D4D3D2D2D1D0CEDE
:1001D000CDCCCBCAC9C7C6C5C3C2C1BFBEBCBBB9E3
:1001E000B8B6B4B3B1AFAEACAAA8A7A5A3A19F9E61
:1001F0009C9A98969492908E8C8A89878583817F29
:100200007D7B79777573716F6D6B69686664626009
:100210005E5C5A5957555351504E4C4A49474543D5
:1002200042403E3D3B3A3836353332302F2D2C2A72
:10023000292826252322FFAA7F554000010101011C
:100240000101010101020202020202020202030391
:100250000303030303030404040404040405050561
:100260000505060606060607070707070808080823
:10027000090909090A0A0A0B0B0B0C0C0C0D0D0DD0
:100280000E0E0E0F0F0F1010111111121213131466
:1002900014151516161717181819191A1A1B1B1CDE
:1002A0001D1D1E1E1F202021222223242425262638
:1002B000272829292A2B2C2D2D2E2F30313232336D
:1002C0003435363738393A3B3C3D3E3F4041424376
:1002D0004445464748494A4C4D4E4F50515354555A
:1002E0005658595A5B5D5E5F616264656668696B0A
:1002F0006C6D6F7072737577787A7B7D7E80828388
:100300008587888A8C8E8F91939596989A9C9EA0CB
:10031000A2A3A5A7A9ABADAFB1B3B5B7BABCBEC0D8
:10032000C2C4C6C9CBCDCFD1D4D6D8DBDDDFE2E4A1
:10033000E7E9EBEEF0F3F5F8FAFDFF040330000017
:10034000000E0347005A00520038003900430000F5
:100350000012036B0075007300680069006D006196
:1003600000380000000403090409023B00020100F8
:10037000A0FA090400000103010100092111010094
:10038000012240000705810308000A090401000159
:1003900003000000092111010001228500070582E8
:1003A0000320000A1201100100000008EDFE000009
:1003B00001000102030105010902A10185020901F1
:1003C000A1000509190129051500250195057501EB
:1003D00081029501750381010501093009311581FB
:1003E000257F95027508810609381581257F9501BD
:1003F00075088106050C0A38021581257F9501755F
:10040000088106C0C005010980A10185031A810089
:100410002A8300160100260300950175108100C093
:10042000050C0901A10185041A01002A9C0216018C
:1004300000269C02950175108100C005010906A1E6
:1004400001050719E029E7150025019508750181C7
:10045000029501750881010507190029FF1500267D
:10046000FF00950675088100050819012905950505
:1004700075019102950175039101C00011241FBE01
:10048000CFEFDAE0DEBFCDBF04B603FE27C0809118
:10049000280290912902A0912A02B0912B02873064
:1004A000904BA740B04BD1F4109228021092290231
:1004B00010922A0210922B0214BE84B7877F84BF49
:1004C0000FB6F894A89580916000886180936000D1
:1004D000109260000FBEE0E0F8E3099511E0A0E0A3
:1004E000B1E0E8E9F8E502C005900D92A236B10747
:1004F000D9F722E0A2E6B1E001C01D92A832B2070E
:10050000E1F70E9411260C944A2C0C940000CF9322
:10051000C62F6091C9017091CA018091CB01909161
:10052000CC010E94151F882319F0813049F012C0B8
:10053000CC2319F084E390E00AC08DE290E007C07C
:10054000CC2319F080E390E002C08FE290E0CF91DD
:100550000C947403CF910895CF92DF92EF92FF92A3
:10056000CF93DF936B017C010E94151F8823F1F06C
:10057000813089F52FEF81EE94E02150804090404A
:10058000E1F700C000000E94C60CD82F0E94C30CE7
:10059000C82F0E94C00C4D2F6C2F0E946E0E27E0BA
:1005A0004FEF60E080E00E94740E15C02FEF81EEE7
:1005B00094E0215080409040E1F700C000000E948C
:1005C000C60CD82F0E94C30CC82F0E94C00C4D2F00
:1005D0006C2F0E946E0EC701B601DF91CF91FF9084
:1005E000EF90DF90CF9008950895089508950F93A8
:1005F0001F93CF93DF939C013A9521153F4148F516
:10060000EB018C0190FF03C080EEFB01099511FF07
:1006100003C081EEFE01099512FF03C082EEFE01C8
:10062000099513FF03C083EEFE01099501151041E2
:1006300080F084EEFE01099585EEFE01099586EEB7
:10064000FE01099587EEFE01DF91CF911F910F9179
:100650000994DF91CF911F910F910895877091E0D8
:1006600001C0990F8A95EAF7892F0E94771E0C9492
:10067000B21E0C942E03877091E001C0990F8A95E9
:10068000EAF7892F0E947D1E0C94B21E0C943B0346
:10069000CF93DF93EC01805E9109089710F02097CB
:1006A00019F46EE273E002C069E373E0CE010E94C8
:1006B000F7028C2FDF91CF910C941B14CF93DF9313
:1006C000EC010E943915CE01805E9109089710F067
:1006D000209719F46BE373E002C066E473E0CE0187
:1006E000DF91CF910C94F702CF93DF93EC010E943E
:1006F0004803CE01DF91CF910C945E0381E0089511
:1007000081E008950C9480031F93CF93DF9300D072
:1007100000D01F92CDB7DEB749835A836B832091F7
:10072000860189819A81211112C0662349F00E94B5
:10073000E31D182F682F89819A810E948A1D03C0AA
:100740000E94B61D182F69817A81812F04C00E94F2
:10075000E31D69817A810F900F900F900F900F9099
:10076000DF91CF911F910C94E007FC0140815181F2
:100770006281738184810C9484030E94D2110C9451
:10078000C30AE82FE295EF70F0E032A1282F2F7016
:1007900081E090E001C0880F2A95EAF780958323D5
:1007A00082A30895E82FE295EF70F0E032A1282FA0
:1007B0002F7081E090E001C0880F2A95EAF7832B23
:1007C00082A308951F920F920FB60F9211242F93B8
:1007D0003F934F935F936F937F938F939F93AF93C9
:1007E000BF93EF93FF9386E60E94D20387E90E94AE
:1007F000D20385E30E94D203FF91EF91BF91AF91A5
:100800009F918F917F916F915F914F913F912F9128
:100810000F900FBE0F901F9018951F920F920FB65A
:100820000F9211242F933F934F935F936F937F9376
:100830008F939F93AF93BF93EF93FF938091880023
:10084000909189008130914048F086E60E94C10372
:1008500087E90E94C10385E30E94C103FF91EF91E4
:10086000BF91AF919F918F917F916F915F914F91C8
:100870003F912F910F900FBE0F901F901895CF9220
:10088000DF92EF92FF92CF93C82F8430E0F4811172
:100890001BC08091880090918900892B29F180915B
:1008A0006F008D7F80936F0080916F008E7F8093AB
:1008B0006F0086E60E94D20387E90E94D20385E397
:1008C0000E94D20311C0C3E08091880090918900FA
:1008D000892B51F480916F00826080936F0080912A
:1008E0006F00816080936F002C2F30E0AFEFBFEF7F
:1008F0000E94DB2B23E030E040E050E00E94B32B6D
:10090000C9012C3764E1360728F469E070E00E94E1
:100910008B2B29C0DA01C9018A50974DAF4FBF4FC9
:100920006627782F892F9A2F25EF38E241E050E093
:100930000E94B32B69017A01CA01B9010E947B2B85
:100940009B01AC01C701B6010E947B2BBB27A92FDD
:10095000982F872F009721E0A207B10511F0BC0165
:1009600002C06FEF7FEF7093890060938800CF9192
:10097000FF90EF90DF90CF900895EF92FF920F934A
:100980001F93CF93DF93C3E2D1E006E211E0EE24A0
:10099000E394F12C8991E82FE295EF70F0E091A1BA
:1009A000282F2F70A70102C0440F551F2A95E2F788
:1009B0009A01292B21A30E94C1030C171D0751F78F
:1009C00082E08093800089E1809381008FEF9FEF28
:1009D0009093870080938600DF91CF911F910F91B4
:1009E000FF90EF900C9489230E94651F811102C033
:1009F0000E940E200E94BD040E94BF110C94C10AE7
:100A00000C94F6020C94000508950E947F180E9431
:100A100004052FEF84E39CE0215080409040E1F7F3
:100A200000C0000087E797E79093010880930008D3
:100A30000C943F210F931F93CF93DF938C010E945F
:100A4000B503EC01B8010E948203882309F4AEC209
:100A5000B801CE010E948312882309F4A7C2CB3CBF
:100A6000FCE5DF0741F4F8018281882309F49EC286
:100A70000E949E0C9BC2CC3C8CE5D80708F0D1C1EB
:100A8000C33C9CE5D90761F4F8018281882309F40D
:100A90008DC20E94641E8272F1F00E949E1086C276
:100AA000C43CECE5DE07D0F0F8018281C73CFCE5F0
:100AB000DF0709F48BC108F09BC1C53CECE5DE07FC
:100AC00009F48AC108F08EC1882309F46FC20E941C
:100AD000641E827211F30E94911068C2C631FCE557
:100AE000DF0708F03CC1C2308CE5D80708F413C119
:100AF000F8018281882309F415C10E94651F8111C4
:100B000002C00E940E200E94781F909319028093C9
:100B10001802C031FCE5DF0709F4BFC008F03FC090
:100B2000C8309CE5D90709F496C0F0F4C430FCE560
:100B3000DF0709F483C068F4C2309CE5D90709F4E3
:100B400073C0C330DC4509F0DDC0809118028260BB
:100B500072C0C630FCE5DF0709F46AC008F077C050
:100B600080911802886067C0CC309CE5D90709F4F1
:100B700081C058F4CA30FCE5DF0709F470C008F002
:100B800075C080911802806856C0CE309CE5D907A8
:100B900009F474C008F07DC08091180289C0CB3F71
:100BA000FCE5DF0709F44DC008F5C3319CE5D90722
:100BB00009F47BC068F4C131FCE5DF0709F471C0BA
:100BC000C231DC4509F09EC0809118028F7733C096
:100BD000C5319CE5D90709F472C008F486C0CA3F44
:100BE000DC4509F08FC0809119023EC0CF3F8CE5F3
:100BF000D80709F45FC058F4CD3FECE5DE0709F4EF
:100C000044C008F43FC08091190282602DC0C130F9
:100C10008DE5D80709F473C008F45DC0C230DD4526
:100C200009F070C080E06CC080911802816003C040
:100C30008091180280618093180264C0809118022C
:100C400011C0809119028260809319025BC080916B
:100C500018028062F0CF809118028064ECCF8091FE
:100C6000180288608460E7CF8160EECF809118021F
:100C70008E7FE1CF809118028D7FDDCF80911802A9
:100C8000877FD9CF8091190218C0809119028D7F7A
:100C9000DBCF809118028F7ECECF809118028F7D9E
:100CA000CACF809118028F7BC6CF80911802877FB0
:100CB0008B7FC1CF809119028D7F8E7FC5CF8091B0
:100CC000180282FB222720F991E0922790FB82F9FB
:100CD00090FB83F9B0CF80911902982F9095917075
:100CE0008E7F892B90FB81F9AFCF8091180287FB13
:100CF000222720F991E0922790FB87F99CCF81E091
:100D00000E94102080911802909119020E94891F60
:100D10000E947F184BC1C1159CE5D90751F0C13025
:100D2000DC4579F0C801DF91CF911F910F910C94B0
:100D30007E03F8018281882309F438C10E940505E9
:100D400035C1F8018281882309F430C18091DE0128
:100D5000982F909590FB80F98093DE0127C1C631D2
:100D6000FCE5DF0739F50E94641E982FF8018281A7
:100D70002091100130911101882379F09A7A81E055
:100D800009F480E080936201911102C069E201C020
:100D900065E3C9010E9448200AC080916201811167
:100DA00002C069E201C065E3C9010E944A200E94B5
:100DB000B21EFCC0C23CDC4509F0B4CFF801828110
:100DC000882309F4F3C00E94AC10F0C0882309F412
:100DD000EDC00E943E0EEAC0882309F4E7C00E94DD
:100DE000220EE4C0882309F4E1C00E942F0EDEC069
:100DF000C93C9CE5D90731F4882309F4D7C00E9487
:100E00005C0ED4C0CA3CDC4530F4882309F4CEC063
:100E10000E944D0ECBC0882309F4C8C00E946B0EFF
:100E2000C5C0C33DFCE5DF0749F4F8018281882392
:100E300009F4BCC088E10E94A110B8C0C43D8CE593
:100E4000D80708F069C0F8018281CF3CFCE5DF07D4
:100E500071F4882309F4AAC00E94960C863028F009
:100E60000E94960C883008F436CE86E0E4CFC03D70
:100E70009CE5D90700F5CD3CECE5DE0729F4882395
:100E800009F494C081E0D7CFCE3CDC4530F4882310
:100E900009F48CC00E94AF0C89C0882309F486C075
:100EA0000E94960C823028F00E94960C853008F43F
:100EB00012CE82E0C0CFC13D9CE5D90771F48823F2
:100EC00009F474C00E94960C8F3028F00E94960C92
:100ED000843108F400CE8FE0AECFC23DDC4570F423
:100EE000882309F463C00E94960C893028F00E9480
:100EF000960C8E3008F4EFCD89E09DCF882309F45D
:100F000055C00E94960C853128F00E94960C8731BE
:100F100008F4E1CD85E18FCFCD3DFCE5DF0749F455
:100F2000F8018281882309F441C082E00E94B02642
:100F30003DC0CE3D8CE5D80738F5C53D9CE5D907C9
:100F400031F4F8018281882389F183E274CFC53DB1
:100F5000ECE5DE0778F4F8018281882339F10E94FC
:100F6000960C893128F00E94960C823208F4B3CD99
:100F700089E161CFCC3DDC4509F0D4CEF801828116
:100F80008823A1F080E0D2CFCE3D8CE5D80739F49C
:100F9000F8018281882351F00E940E2007C0CE0103
:100FA0008A5F9C45099708F4A3CDBCCE80E0DF9111
:100FB000CF911F910F91089580E090E008950895DA
:100FC0002AE0829FC0011124FC0125E0729FE00D00
:100FD000F11D1124E60FF11DEE0FFF1FE450FF4F2E
:100FE000859194910895880F991FFC01EC5DFE4F47
:100FF000859194910895CF93DF930E94E0070E941A
:10100000EA09EC01811521E5920708F042C081153B
:1010100040E5940708F02DC1883E910500F5803E1B
:10102000910508F0D3C1883A910570F4853A91058D
:1010300008F0A2C08130910509F4C8C108F479C153
:10104000049708F0C3C175C18F3B910508F49FC098
:10105000803C910508F46DC1805C9109F9C0C1150F
:1010600080E3D80780F4C11520E2D20708F0EEC073
:10107000C03FD10508F45DC1CF3FD10511F008F0A4
:10108000A5C1D065A3C1C11540E4D40708F0EEC0E6
:10109000E3C0C11589E5D80760F5C11528E5D20779
:1010A00008F033C1C11544E5D40778F4C11583E5D0
:1010B000D80708F00FC1C11522E5D20708F0F4C027
:1010C000DC2FCC27C16FD06A81C1C11545E5D4079B
:1010D00008F416C1C11586E5D80708F02AC18C2F7F
:1010E0000E947E0A8F71C82FD0E0DC2FCC27D062FF
:1010F0006DC1CD3B2CE5D20709F412C1E0F4CB3B26
:101100008CE5D80709F406C108F007C1C1154AE506
:10111000D40708F00EC18C2F8F700E947E0A94E0D5
:10112000D695C7959A95E1F7CF70D0E0DC2FCC2704
:10113000D069C82B4BC1C03C8CE5D80709F4F6C078
:1011400060F4CE3B4CE5D40709F4EDC0CF3BDC4561
:1011500009F0EFC0C0E0D2ED39C1CE019056811543
:10116000904208F0E6C08D2F8F710E947E0ADD2725
:10117000D0628F71D82B2AC1853A910509F4DCC061
:10118000863A910509F0DBC0C2E8D0E41FC1883A75
:10119000910509F4D7C0893A910509F4D6C08A3A75
:1011A000910509F4D5C08B3A910509F4D4C08C3A65
:1011B000910509F4D3C08B3B910509F4D2C08C3B57
:1011C000910509F4D1C08D3A910509F4D0C0803B56
:1011D000910509F4CFC08E3A910509F4CEC08F3A3B
:1011E000910509F4CDC0813B910509F4CCC0823B47
:1011F000910509F4CBC0833B910509F4CAC0843B37
:10120000910509F4C9C0853B910509F4C8C0863B26
:10121000910509F4C7C0873B910509F4C6C0883B16
:10122000910509F4C5C0893B910509F4C4C08D3B03
:10123000910509F4C3C08E3B910509F4C2C08A3BF5
:10124000910509F4C1C0C0E0D4E4C0C0CE019F70D4
:101250000E94F307EC01BAC0CE019927D3FF03C067
:10126000EC01D86CB3C0EC01D06CB0C0DF70D06AB8
:10127000ADC074E0969587957A95E1F783709C2FC1
:10128000937021E030E002C0220F331F9A95E2F7FD
:101290003C68382BCF70C695C69540E2C49FE001EC
:1012A0001124C22BD32B92C0CE018370992721E049
:1012B00030E002C0220F331F8A95E2F78C2F86950B
:1012C000869540E2849FC0011124E901C82BD92BE7
:1012D000DC687CC0CE018370992721E030E002C039
:1012E000220F331F8A95E2F78C2F8695869540E270
:1012F000849FC0011124E901C82BD92BDA6866C08C
:10130000DC2FCC27C46FD06A61C0DC2FCC27C06F24
:10131000D06A5CC0C0E0D4ED59C0C0E0D5ED56C085
:10132000C0E0D1ED53C0C0E0D0ED50C0C0E0D3ED7F
:101330004DC0C0E0D0E04AC0C1E8D0E447C0C3E837
:10134000D0E444C0C2EED4E441C0C9EED4E43EC00F
:10135000CAEED4E43BC0C5EBD4E438C0C6EBD4E459
:1013600035C0C3EBD4E432C0C4EBD4E42FC0C7EB28
:10137000D4E42CC0CCECD4E429C0CDECD4E426C019
:10138000C3E8D5E423C0CAE8D5E420C0C2E9D5E467
:101390001DC0C4E9D5E41AC0C1E2D6E417C0C3E257
:1013A000D6E414C0C4E2D6E411C0C5E2D6E40EC04F
:1013B000C6E2D6E40BC0C7E2D6E408C0CFE6D4E468
:1013C00005C0C0E7D4E402C0CAE2D6E4CE01DF9192
:1013D000CF9108958238910569F1B0F48133910578
:1013E00009F46DC048F48932910509F463C08A326A
:1013F000910509F469C008958533910509F455C034
:1014000089339105B9F00895833E910569F138F467
:10141000803E9105B1F0823E910509F10895863E26
:101420009105A9F1873E9105B9F1843E910509F036
:1014300064C023C02091180220FD4FC021FD4DC083
:1014400008958091180280FD44C08091190280FFA8
:1014500044C08091180284FD42C083EE4DC080914B
:10146000180282FF38C0F5CF8091180282FD33C088
:101470008091190280FD31C0ECCF8091190281FF6B
:1014800032C08091180284FD2AC087EE35C0809159
:10149000180283FF26C0F5CF8091180283FD21C07A
:1014A0008091190281FD1FC0ECCF8091180285FD4B
:1014B0001CC01DC08091180285FD19C016C0809106
:1014C000180286FD16C017C08091180286FD13C051
:1014D00010C089E311C082EE0FC080EE0DC080E025
:1014E0000BC086EE09C084EE07C089E205C085E323
:1014F00003C08AE201C081E390E008959091180250
:1015000092FF0DC0282F2871283019F4877F84603E
:1015100006C0282F2471243011F48B7F886093FF3C
:101520000DC0282F2871283119F4877E846106C0E8
:10153000282F2471243111F48B7E886120911902A7
:1015400020FF0DC0382F3871383019F4877F816043
:1015500006C0382F3171313011F48E7F886021FF41
:101560000DC0282F2871283119F4877E816106C0AB
:10157000282F2171213111F48E7E886194FD877EA0
:1015800008950C94F4020C94F502E82FF0E0ED5964
:10159000FE4F808108950895CF93DF935198599A13
:1015A0005098589AA6E2B1E04BE251E061E070E059
:1015B0008D91E82FE295EF70F0E021A18F70EB01A3
:1015C00002C0CC0FDD1F8A95E2F7CE019C2F9095CB
:1015D000922391A392A1892B82A34A175B0741F71B
:1015E00010926501109263011092660110926401DD
:1015F00082E00E948D0BDF91CF910C94F4045F92F6
:101600006F927F928F929F92AF92BF92CF92DF9212
:10161000EF92FF920F931F93CF93DF936BE271E0F2
:10162000A5E6B1E027E6A22E21E0B22E612C01E072
:1016300010E06D015C901C92EB018991BE01E82FD6
:10164000E295EF70F0E021A18F70A80102C0440F75
:10165000551F8A95E2F7CA01242B21A322A1942EBB
:101660009094292122A350EA5A95F1F796E2E92EA7
:1016700091E0F92E40E050E0E70189907E01282DAD
:1016800022952F7030E0E90128A17C9030E0D82D20
:10169000DF7002C035952795DA95E2F720FD08C086
:1016A000302F042E01C0330F0A94EAF7232F01C014
:1016B00020E027292C934F5F5F4F45305105E1F61D
:1016C00091A1992291A292A1892B82A3119681E0E6
:1016D000F6019081951101C080E0682AAA16BB0628
:1016E00009F0A7CF262D42E063E671E085E691E0A0
:1016F0000E948E0B0E94BD03862DDF91CF911F911A
:101700000F91FF90EF90DF90CF90BF90AF909F90A0
:101710008F907F906F905F9008950895FF920F9340
:101720001F93CF93DF938C01F62ED72FC42F222344
:1017300049F081E0809369010E94E3209093680161
:1017400080936701809169018823C1F080916701CE
:10175000909168010E94EF20069780F0EF2DFD2FF9
:10176000D8014C2F50E0CD01801B910B84179507B9
:101770001CF48D918193F7CF10926901DF91CF9185
:101780001F910F91FF900895EF92FF920F931F9377
:10179000CF93DF93F62E472FE82FF0E0711106C0AC
:1017A000E55CFD4F6491762F862F72C0272F30E0C5
:1017B000E55CFD4FE4910E2F10E056E0659FC001FF
:1017C0001124CFEFD0E0BE010E948B2B5BEA5603C1
:1017D000C001579F900D11248F0D911D8F0D911DEC
:1017E000982F990F890F7E01E21AF30AE09ED0012B
:1017F000E19EB00DF09EB00D1124489FA001112470
:10180000452F55277E01E41AF50AE09EA001E19ECE
:10181000500DF09E500D11247E01E81AF108E29E51
:10182000C001E39E900DF29E900D1124892F9927FF
:10183000C81BD90BC09FC001C19F900DD09F900DB8
:1018400011246230710591F048F461157105E1F0E1
:1018500061307105A9F48B2F752F19C064307105A3
:1018600061F038F06630710579F00AC0892F7B2F5E
:101870000EC08E2F7B2FE52F0AC08E2F792F02C02E
:10188000852F7E2FEB2F03C08B2F7E2FE92F6E2FFE
:10189000DF91CF911F910F91FF90EF9008950895E0
:1018A000CF93DF93762FE901682F842F0E94C40B1A
:1018B000798368838A83DF91CF9108958091F501C0
:1018C000282F269530E02115310519F481708260AA
:1018D00005C02532310524F0817088648093F501BC
:1018E000089588E090E00C940A2CCF92DF92EF925A
:1018F000FF926B017C010E945E0CB701A60188E09B
:1019000090E0FF90EF90DF90CF900C94282CE5EFC3
:10191000F1E083E0808311828FEF828383831482DE
:1019200060817181828193810C94750C8091F501A5
:1019300080FF02C08695089580E008958091F901A6
:10194000833018F48F5F8093F9016091F5017091F5
:10195000F6018091F7019091F8010C94750C80913B
:10196000F901882319F081508093F9016091F50104
:101970007091F6018091F7019091F8010C94750C2B
:101980008091F60108958091F70108958091F80102
:1019900008956091040170E08091F50180FF0AC014
:1019A00080916E0123E0829FC001112486509E4FDA
:1019B0000C94BA1180916D0190910301891780F701
:1019C000E82FF0E09F01220F331FE20FF31FE650D4
:1019D000FE4F1182108212828F5FF0CF9091F5013D
:1019E00090FF16C090916D0120910301921770F441
:1019F000E92FF0E0DF01AA0FBB1FEA0FFB1FE65043
:101A0000FE4F8183608342839F5FF0CF0C94C90CAB
:101A10000895CF93DF9300D01F92CDB7DEB790919A
:101A2000F50190FF0AC09E012F5F3F4F0E94500CAE
:101A30004B8169818A810E94EE0C0F900F900F906C
:101A4000DF91CF910895CF93DF93EC01EC81F0E02B
:101A5000EA5CFE4F4491E5EFF1E0628181810E94F2
:101A6000090D8C818F5F8C83DF91CF910895CF9387
:101A7000DF93EC01E5EFF1E0438162818C810E940C
:101A8000090D8C818F5F8C83DF91CF9108950F9327
:101A90001F93CF93DF9300D01F92CDB7DEB78C0199
:101AA00080916A0181110AC09E012F5F3F4F4FEF65
:101AB0006FEF0E94500C8A8180936A01F801848143
:101AC000813051F028F0823061F440916A010AC0FF
:101AD00080916A0140E007C060916A0140E080E0C7
:101AE00003C040E080E060E00E94EE0CF8018481D9
:101AF00090E0019663E070E00E949F2B84830F903A
:101B00000F900F90DF91CF911F910F910895AF9299
:101B1000BF92CF92DF92EF92FF920F931F93CF93DA
:101B2000DF9300D01F92CDB7DEB7182FF62E042F0B
:101B3000E22E9091F50190FF6DC0E92FE695AE2F52
:101B4000B0E0A35DBE4F8C91809376019E7F923072
:101B500061F49E012F5F3F4F812F0E94500C4B81FB
:101B600069818A810E94EE0C43C0823019F4009191
:101B7000F8013EC0863019F41091F60139C0893061
:101B8000D9F38931A9F5E9518E2F8170D82EE695C8
:101B9000F0E0EA5CFD4FA590B490C12CBB246091AD
:101BA0000201C61618F52C2D30E0A29EC001A39E9E
:101BB000900DB29E900D112470E00E948B2B812F0E
:101BC000D11002C0860F01C0861B90916D01290FB4
:101BD000311DA901440F551F240F351F26503E4FBC
:101BE000402F6F2D0E94500CC394D9CF0E94C90C76
:101BF0001093F601F092F7010093F801EE2051F0F6
:101C00006091F5017091F6018091F7019091F801D2
:101C10000E94750C0F900F900F90DF91CF911F9144
:101C20000F91FF90EF90DF90CF90BF90AF9008950D
:101C3000E5EFF1E09181282F4381628188E0890FEF
:101C40000C94870D81E00C94180EE5EFF1E0918182
:101C5000282F4381628188EF890F0C94870D81E0E2
:101C60000C94250EE5EFF1E0628121E1620F08F4AA
:101C70006FEF282F438181810C94870D81E00C94B4
:101C8000320EE5EFF1E0628121E1621B08F460E0D1
:101C9000282F438181810C94870D81E00C94410EA3
:101CA000E5EFF1E0438121E1420F08F44FEF282FE7
:101CB000628181810C94870D81E00C94500EE5EFD8
:101CC000F1E0438121E1421B08F440E0282F6281CA
:101CD00081810C94870D81E00C945F0E21E00C94BF
:101CE000870D20E00C94870D9091F50190FF10C0B6
:101CF000283070F430E0F901EE0FFF1F2E0F3F1F68
:101D0000F901E650FE4F8183608342830C94C90C35
:101D10000895FF920F931F93CF93DF93EC01F12C63
:101D20000FEF10E060910201F616F0F480916D0162
:101D30002F2D30E0280F311DC901880F991F280F62
:101D4000391F26503E4F70E0C8010E949F2B962FEE
:101D50008C814091F8016091F701F99E800D11246A
:101D60000E94500CF394DECF0E94C90C9A818C81A2
:101D700090FF02C08F5F01C081508C83DF91CF91B3
:101D80001F910F91FF900895BF92CF92DF92EF9233
:101D9000FF920F931F93CF93DF93FC01828180FF0B
:101DA00002C00FEF01C001E010E08091020118179E
:101DB000E0F580916D01C12ED12CE601C80FD11D37
:101DC000CE01880F991FC80FD91FC650DE4F198248
:101DD00018821A8234E0E32EF12CB12C80916C0130
:101DE0008B0D87FF03C090910201890F082E000C14
:101DF000990BC816D90691F48091F8018E9DA00127
:101E00008F9D500D112455954795559547959E01E9
:101E10006091F7018091F6010E94500CB00EF1E044
:101E2000EF1AF108D9F61F5FC0CF0E94C90C80914C
:101E30006C01013031F4811102C0809102018150A6
:101E400007C090E001966091020170E00E949F2B14
:101E500080936C01DF91CF911F910F91FF90EF90D4
:101E6000DF90CF90BF900895CF9380916D019091B6
:101E70000301891770F4E82FF0E09F01220F331F50
:101E8000E20FF31FE650FE4F1182108212828F5F25
:101E9000F0CFC0E060910201C617C0F5EC2FF0E072
:101EA00070E0CF010E949F2B20916D01820F209145
:101EB0006B01022E000C330B90E0E217F307CCF01D
:101EC00020910101022E000C330B2E173F078CF0DE
:101ED0009C01220F331F820F931F9C0126503E4FFF
:101EE0004091F8016091F7018091F6010E94500C39
:101EF0000BC0FC01EE0FFF1F8E0F9F1FFC01E65071
:101F0000FE4F118210821282CF5FC4CF0E94C90C93
:101F10002091000180916B01820F80936B01909161
:101F20000101920F9093010119165CF4082E000C28
:101F3000990B4091020150E04150510984179507D7
:101F40001CF0219520930001CF9108950F931F93CA
:101F5000CF93DF938C01FC01848195810196817080
:101F6000992795838483C0E0D5E580910201C81745
:101F700000F580916D012C2F30E0280F311DC90133
:101F8000880F991F280F391F26503E4F4C2F46951A
:101F9000F80184819581840F911D81704091F80131
:101FA0006091F7018D9F802D11240E94500CCF5F0E
:101FB000DCCFDF91CF911F910F910C94C90C0F933F
:101FC0001F93CF93DF93EC0100E010E080910201BA
:101FD000282F30E00217130724F590916D01980126
:101FE000290F311DA901440F551F240F351F2650FD
:101FF0003E4F869590E04C81081719071CF4442346
:1020000031F002C0411103C04091F80101C040E02D
:102010006091F7018091F6010E94500C0F5F1F4FF5
:10202000D5CF0E94C90C8C8190E0019681709927D0
:102030008C83DF91CF911F910F910895E5EFF1E02F
:1020400080818E7F808360817181828193810E94F3
:10205000750C109277012FEF80E792E021508040BD
:102060009040E1F700C000000C94C90C6091F501AC
:10207000669570E04BE050E085E091E00E94F52B22
:10208000892B19F481E0809377010E94E3209093DB
:10209000700180936F0108959091F50190FF35C014
:1020A0009170811102C0926006C0853210F0986470
:1020B00002C0880F982B9093F501662351F0609130
:1020C000F5017091F6018091F7019091F8010E945D
:1020D000750C6091F501669570E04BE050E085E08D
:1020E00091E00E94F52B892B19F01092770102C024
:1020F0000E94361081E0809372014091F801609156
:10210000F7018091F6010C94710E0895682F90915B
:10211000F501969581E0890F853208F081E00C94F5
:102120004C1081E00C948610682F9091F5019695E3
:102130008FEF890F09F484E20C944C1081E00C9429
:10214000941061E00C944C10E5EFF1E08081816027
:10215000808386950C94A1108091F50180FD0C94EC
:102160001E100C94A41060E00C944C10809175012A
:10217000811133C08091DE0181608093DE010E9475
:10218000651F811104C00E940E200E94870C0E94CE
:10219000710C6093F5017093F6018093F7019093B1
:1021A000F8016E7F61F40E94870C0E94710C6093AD
:1021B000F5017093F6018093F7019093F8010E9466
:1021C0005E0C109277018091F50180FF03C0869527
:1021D0000E94B31081E08093750108950F931F93BF
:1021E000CF93DF9380917701882309F48CC080918D
:1021F0007601E091F501E695E81BE09371018230EC
:1022000049F4F0E0EE5CFE4FE491CE2FD0E003E223
:102210001DE049C0863049F4F0E0E15DFE4FE491F5
:10222000CE2FD0E007E31DE03EC0893051F4E695A3
:10223000F0E0E45DFE4FE491CE2FD0E009E81EE02F
:1022400032C08F3051F4E695F0E0E75DFE4FE49147
:10225000CE2FD0E004EC1EE026C0853149F4F0E03A
:10226000EA5DFE4FE491CE2FD0E004E31FE01BC0F7
:10227000883181F0833239F4E4E2F1E0C591D49100
:1022800007E41DE010C0843251F4C4EFD1E00FED3B
:102290001FE009C0C8EED3E006EA1FE004C0C0EDAD
:1022A000D7E00FE41CE080917201882389F010923E
:1022B00072010E94E3209E0120953095820F931FAA
:1022C0009093700180936F011092740110927301CA
:1022D00080916F01909170010E94EF208C179D07F3
:1022E00090F0E0916F01F0917001CE0FDF1FD0935D
:1022F0007001C0936F018FE691E0F801DF91CF91FB
:102300001F910F910994DF91CF911F910F91089523
:102310002BB1342F309523233BB1432B3FB7F89497
:10232000FC01680F791FE617F70789F0819198E0A3
:102330004BB9000000C087FF2BB9880F000000C018
:1023400000C000C02BB900C09A9591F7ECCF3FBFF9
:1023500008952AB1242B2AB99B01220F331F620F43
:10236000731F0E94881187EC90E00197F1F700C07D
:102370000000089548E00C94A9110C9487028798F6
:102380008F9A2198299A8FB190E0880F892F881F02
:10239000990B199902C020E001C022E0822B8093A2
:1023A0007901089520917901220F220F209379015C
:1023B0008FB190E0880F892F881F990B33B131FBC3
:1023C000EE27E0F9F0E031FF02C0E2E0F0E0E82BB8
:1023D000F92BE22BE0937901EF70F0E0EE5AFE4F1B
:1023E000908180917801890F80937801843024F066
:1023F00060E080E00E94BD11809178018D3F24F45F
:1024000061E080E00E94BD1180917801837887FFB0
:1024100003C081508C6F8F5F8093780108950F9374
:102420001F93CF93DF93C62FD42F122FFC018281ED
:102430008823C9F060937C010E94E32090937B0184
:1024400080937A0180E28C0F883008F057C0C77003
:1024500081E001C0880FCA95EAF7DF91CF911F9103
:102460000F910C94B41580917C01681330C0809159
:102470007A0190917B010E94EF20883C910538F50C
:1024800000E20D0FCD17B9F080E28C0F883040F4D8
:10249000C77081E001C0880FCA95EAF70E94BB159A
:1024A000083028F581E09D2F977001C0880F9A951C
:1024B000EAF70E94B415812F0E94A1150830F0F4AC
:1024C000D77081E001C0880FDA95EAF70AC080E290
:1024D0008C0F883098F4C77081E001C0880FCA95CE
:1024E000EAF7DF91CF911F910F910C94BB15812FCB
:1024F000DF91CF911F910F910C94A115DF91CF9196
:102500001F910F9108959C01CB01233F4CE53407A7
:10251000F9F078F4283DFCE53F07B9F0293D4CE59A
:10252000340711F1273D3C4531F526E241EE61EEDD
:102530001EC0253FFCE53F0799F070F0263F3C4563
:10254000D1F427E245EE66EE12C027E245EE0EC05A
:1025500026E241EE60EE0BC027E245EE64EE07C0D6
:1025600026E241EE62EE03C028E241E065EE0E9401
:102570000F1280E00895FC018281882319F01092E7
:102580007C01089581E008959093820180938101F8
:102590000895E0918101F0918201309721F001903E
:1025A000F081E02D099480E00895E0918101F0919F
:1025B0008201309721F00280F381E02D0994089583
:1025C000E0918101F0918201309739F022E0DC0145
:1025D0002C930480F581E02D0994089520917F01CA
:1025E000309180012817390771F090938001809312
:1025F0007F01E0918101F0918201309721F0068006
:10260000F781E02D0994089520917D0130917E019C
:102610002817390771F090937E0180937D01E09136
:102620008101F0918201309721F00084F185E02D45
:102630000994089585B7806885BF85B7806885BF90
:10264000089508950C9421130C9422130C942113D3
:102650000C9421130E941A130E9426130C94241325
:1026600081E008950E94DA200E94CC0A0E94502145
:102670000E9489230E94B6100C942813BF92CF9217
:10268000DF92EF92FF920F931F93CF93DF93CDB71B
:10269000DEB72A970FB6F894DEBF0FBECDBF0E94FB
:1026A000FF0A0E943013811111C08FEF89838A8342
:1026B0001B820E94E3208160782F9D838C83498157
:1026C0005A816B818D810E94E71354C084E8C82E23
:1026D00081E0D82E00E010E0B02E802F0E94C50AC5
:1026E000E82EF60121916F01F82EF22631F40F5FEA
:1026F0001F4F02301105C9F2EFCF8091DE0181FD3D
:102700000E94CB0A80E090E02F2D30E0482FB901E5
:10271000082E02C0759567950A94E2F760FF25C000
:102720008E83BF8281E090E06C0102C0CC0CDD1C86
:102730004A95E2F72E2D30E02C213D21232B09F480
:1027400080E088870E94E3208160782F9A878987BC
:102750004E815F8168858A850E94E713F801EC57F6
:10276000FE4F80818C25808305C0019685309105C0
:1027700069F6BDCF0E94E2220E94C91290918301A6
:102780008917A9F00E94C912809383012A960FB677
:10279000F894DEBF0FBECDBFDF91CF911F910F9197
:1027A000FF90EF90DF90CF90BF900C9402052A9697
:1027B0000FB6F894DEBF0FBECDBFDF91CF911F9152
:1027C0000F91FF90EF90DF90CF90BF900895CF933F
:1027D000DF93CDB7DEB72B970FB6F894DEBF0FBEF1
:1027E000CDBF4F83588769877A878B87DE01119623
:1027F00086E0FD0111928A95E9F785E0FE013796A2
:1028000001900D928A95E1F749815A816B817C8113
:102810008D819E810E944F1B2B960FB6F894DEBFD0
:102820000FBECDBFDF91CF910895FC0180819181D2
:102830000E94251E0895882309F41AC18238C1F424
:102840000E94C91281FD14C169E380911001909129
:1028500011010E9448200E94B21E2FEF81EE94E0E9
:10286000215080409040E1F700C0000069E319C0AA
:102870008338F9F40E94C91280FDFAC063E58091A3
:102880001001909111010E9448200E94B21E2FEF6A
:1028900081EE94E0215080409040E1F700C00000BC
:1028A00063E580911001909111010E944A200C94DF
:1028B000B21E8438C1F40E94C91282FDD9C067E4F7
:1028C00080911001909111010E9448200E94B21E37
:1028D0002FEF81EE94E0215080409040E1F700C05E
:1028E000000067E4DECF9CEF980F913A40F4682F28
:1028F00080911001909111010E944820D8CF90E260
:10290000980F983050F4877091E001C0990F8A9524
:10291000EAF7892F0E94671ECACF9BE5980F933074
:1029200070F4853A29F0863A31F083E890E005C0EA
:1029300081E890E002C082E890E00C94EE1298E505
:10294000980F973108F08EC0883A09F445C0893A4B
:1029500009F445C08A3A09F445C08B3A09F445C0E8
:102960008C3A09F445C08B3B09F445C08C3B09F413
:1029700045C08D3A09F445C0803B09F445C08E3A04
:1029800009F445C08F3A09F445C0813B09F445C0BC
:10299000823B09F445C0833B09F445C0843B09F4FC
:1029A00045C0853B09F445C0863B09F445C0873BDB
:1029B00009F445C0883B09F445C0893B09F445C08A
:1029C0008D3B09F445C08E3B09F445C08A3B09F4B0
:1029D00045C080E090E044C082EE90E041C089EEC6
:1029E00090E03EC08AEE90E03BC085EB90E038C0BE
:1029F00086EB90E035C083EB90E032C084EB90E052
:102A00002FC087EB90E02CC08CEC90E029C08DECBF
:102A100090E026C083E891E023C08AE891E020C0DE
:102A200082E991E01DC084E991E01AC081E292E060
:102A300017C083E292E014C084E292E011C085E204
:102A400092E00EC086E292E00BC087E292E008C0FE
:102A50008FE690E005C080E790E002C08AE292E055
:102A60000C940413803F20F00E94EA210C94D7229A
:102A70000895882309F464C0823879F40E94C91249
:102A800081FF5EC069E380911001909111010E9465
:102A900048200E94B21E69E310C08338B1F40E943E
:102AA000C91280FF4DC063E5809110019091110122
:102AB0000E9448200E94B21E63E58091100190910F
:102AC00011010E944A200C94B21E843879F40E94AD
:102AD000C91282FF35C067E4809110019091110105
:102AE0000E9448200E94B21E67E4E7CF9CEF980F37
:102AF000913A10F4682FE1CF90E2980F983050F49B
:102B0000877091E001C0990F8A95EAF7892F0E949A
:102B10006D1ED9CF9BE5980F933020F480E090E0B4
:102B20000C94EE1298E5980F973120F480E090E035
:102B30000C940413803F20F00E9452220C94D72260
:102B40000895CF93C82F0E941B14C93349F42FEF67
:102B500087EE93E0215080409040E1F700C00000F4
:102B60008C2FCF910C943915882321F00E94671E79
:102B70000C94B21E0895882321F00E946D1E0C94BF
:102B8000B21E0895CF92DF92EF92FF920F931F93A0
:102B9000CF93DF937C01062FC72FFC01158112957F
:102BA0001F70D281D1110E94841E0E945D1E882355
:102BB00079F0DD2369F080E2800F883048F082E010
:102BC0000E94FC1E0E945D1E91E0D82ED92601C0F5
:102BD000D12CCC2EC2948FE0C8228C2D90E0FC0129
:102BE000EA5AFF4F0C94D52B8C2F807FCF7088230F
:102BF00011F0C295C07FDD2399F0CC2309F4C5C143
:102C000080E2800F883010F0011104C08C2F0E94E8
:102C1000671E03C08C2F0E94771E0E94B21EB5C192
:102C2000802F0E943915CC2309F4F5C180E2800F72
:102C3000883010F0011104C08C2F0E946D1E03C05B
:102C40008C2F0E947D1E0E94B21EE5C18C2F807FBA
:102C5000CF70803211F0C295C07F002319F001308F
:102C6000C9F022C0DD2371F0112341F0113031F49D
:102C70000E94971E8C2B0E949F1ECDC10E94971E02
:102C80008C2B1DC0112319F0113009F4C4C10E940E
:102C9000A81E25C0DD2321F0163008F0BCC10EC0EF
:102CA000153008F0B8C11BC0DD2361F0112331F0ED
:102CB000F701858180FF69C18F7085838C2F0E9409
:102CC000B415A9C1112359F0093309F06FC1FFEF01
:102CD00027EE83E0F15020408040E1F765C18C2F62
:102CE0000E94BB1598C18C2F86958695837019F02C
:102CF000813061F090C1DD2321F0802F9C2F9370F3
:102D000002C080E090E00E94EE128DC1DD2321F030
:102D1000802F9C2F937002C080E090E00E940413EB
:102D200082C1DD23F9F0053F51F0063F71F0043F09
:102D3000A9F4809112029091130281600BC08091DE
:102D4000120290911302826005C08091120290914C
:102D5000130284609093130280931202802F0E94CA
:102D6000EA211EC0053F51F0063F71F0043FA9F46F
:102D700080911202909113028E7F0BC080911202FB
:102D8000909113028D7F05C08091120290911302E1
:102D90008B7F9093130280931202802F0E94522205
:102DA0000E94D72240C18C2F837009F045C0D111F9
:102DB00036C1402F429546954770440F440F602F0F
:102DC0006F70862F90E0A0E0B0E0042E04C0880F62
:102DD000991FAA1FBB1F0A94D2F704FF10C00FE06F
:102DE00010E020E030E004C0000F111F221F331F4D
:102DF0004A95D2F7009510952095309503C000E0D4
:102E000010E09801C695C695C370BC01CD01602B3A
:102E1000712B822B932BC23049F058F4C13019F03A
:102E20000E94A01CFCC00E948E1CF9C00E94B21C13
:102E3000F6C00E948C1CF3C0DD2319F08C2F81702A
:102E400001C08695882309F4EAC0402F4295469533
:102E50004770440F440F602F6F70862F90E0A0E002
:102E6000B0E0042E04C0880F991FAA1FBB1F0A944C
:102E7000D2F704FF10C00FE010E020E030E004C003
:102E8000000F111F221F331F4A95D2F7009510958E
:102E90002095309503C000E010E09801C695C695D6
:102EA000C370BC01CD01602B712B822B932BC230E0
:102EB00049F058F4C13019F00E94651DB0C00E945D
:102EC000531DADC00E94771DAAC00E94C61CA7C09A
:102ED000CF70DD2339F08C2F0E94EC1C802F0E94D4
:102EE000B4159DC0802F0E94BB158C2F0E940D1D14
:102EF00096C0023F01F128F4003F41F0013FA1F0EC
:102F000040C0033FF9F0043F39F13BC0DD2341F0FD
:102F1000153008F080C08C2F8F710E94321D7BC04D
:102F2000163008F078C0F7CFDD2339F08C2F8F7181
:102F30000E94EC1C70C0DD23C9F38C2F8F710E949E
:102F40000D1D69C0DD2329F08C2F8F710E94D71CC5
:102F500062C00E94D21C5FC0DD2349F0CF718C2F6C
:102F60000E94EC1C63E08C2F0E94E71E54C081E09D
:102F70000E94FC1E123008F44EC082E00E94FC1E2B
:102F80004AC0DD2331F0112389F2802F0E941B14E7
:102F900042C0112391F2093349F49FEFE7EEF3E0C9
:102FA0009150E040F040E1F700C00000802F0E9407
:102FB000391531C04C2F4F70602FC7010E94DC07BC
:102FC0000E94FD1B30C0D1112EC0CF70C23091F0D5
:102FD00038F4CC2361F0C130F1F40E94CD2323C03A
:102FE000C43071F050F0C530B1F480E00AC00E94E6
:102FF000AA2319C00E94142416C00E941B2413C0C7
:1030000083E00E9444240FC04C2F4F70602FC701F3
:103010000E94DF0708C088EF8C0D843020F40E94E6
:10302000C9120E940205DD20C9F00E94591E80FDD0
:1030300015C0F70112820E94531E0E94EC1CC701AA
:103040000E9437180E94531EDF91CF911F910F915C
:10305000FF90EF90DF90CF900C940D1DDF91CF91FA
:103060001F910F91FF90EF90DF90CF9008950F93F5
:103070001F93CF93DF93EC01988189812B813C8151
:10308000232B31F08F3F31F481E09F3F19F403C0CF
:1030900081E001C080E080FD13C0CE010E941A05CE
:1030A000882371F0688179818A810E94301E8C01A9
:1030B0000E94891D0E947A1CB801CE010E94C2158F
:1030C000DF91CF911F910F9108950E94841E0E945D
:1030D000941E0E94B21E0E947D230E94D72280E08F
:1030E00090E00E94EE1280E090E00C940413809136
:1030F0001001909111010E944C200C9465180E94BF
:10310000741E0C947718E92FE295EF704E2F50E063
:10311000FA013297EE30F105B0F4EA59FF4F0C9402
:10312000D52B803F91F018F4883E68F40EC0843FA0
:1031300051F40BC0883E48F0813F29F406C093FB50
:10314000882780F9089580E0089581E008950E941D
:10315000251E0E9483180895CF93DF9300D000D0DE
:103160001F92CDB7DEB70F900F900F900F900F907A
:10317000DF91CF910895CF93DF9300D000D000D09E
:10318000CDB7DEB726960FB6F894DEBF0FBECDBF23
:10319000DF91CF9108951F93CF93DF93C091870163
:1031A00016E080918801C81799F0D0E01C9FF001CB
:1031B0001D9FF00D1124E757FE4F40815181628120
:1031C0007381848195810E94BB182196C770E9CFD5
:1031D000DF91CF911F9108954091B9015091BA01AB
:1031E0006091BB017091BC018091BD019091BE01C5
:1031F0000C94BB18CF938091BE0182958F7009F01B
:103200005FC08091BB01882309F45AC08091870177
:10321000B09188017091B901A091BA014091BC01AF
:103220005091BD0191E07F3F09F090E0692FC6E029
:103230008B1709F445C04115510521F0AF3F21F02E
:1032400020E003C021E001C0262F90E020FD35C022
:10325000C89FF001C99FF00D1124E757FE4F21814F
:103260002A132BC02081271328C02281211125C0B9
:10327000238134812417350710F421503109241B90
:10328000350B283C3105C8F42091BE012F70206118
:103290002093BE0126E0289FF001299FF00D112404
:1032A000E257FE4F80818F708061808389EB91E0CF
:1032B0000E943718CF910C94CB1801968770B8CF25
:1032C000CF910895AF92BF92CF92DF92EF92FF928B
:1032D0000F931F93CF93DF93CDB7DEB761970FB6F0
:1032E000F894DEBF0FBECDBF8C0185E0F801DE0192
:1032F0001D9601900D928A95E1F7D8014C91119697
:103300005C9111971296EC903091B9016091BA01DD
:103310008091BC019091BD01009731F06F3F31F475
:1033200021E03F3F19F403C021E001C020E0B22FAB
:10333000B170BB2E20FD60C1F801C380D480A09085
:10334000BB01AA2009F4EEC02091BE01C816D9061F
:1033500028F0D601A81BB90BCD0104C0809590952B
:103360008C0D9D1DFF24F394883C910580F0F12C79
:10337000207F09F09CC07C2DD98AC88A6E2D89894E
:103380000E94AC1889EB91E00E9437182DC1822F62
:10339000807F09F054C0561314C0431312C0FE2C92
:1033A000E1100FC02F7020612093BE010E94EC1825
:1033B00089EB91E00E9437188091BE01F801858366
:1033C0005CC1CD2831F05F3F31F481E04F3F19F40B
:1033D00003C081E001C080E080FD03C081E08E2554
:1033E00002C080E090E0F82FF170FF2E80FF1CC03B
:1033F000809187012091880136E0821709F41AC173
:1034000090E0389FF001399FF00D1124E757FE4FEF
:103410006181561306C06081461303C06281E612C3
:1034200003C001968770E9CFFE2CEE2009F425C178
:103430008091BE0181608093BE01F12C1EC15613A4
:1034400009C0431307C0E11005C08091BE01F80117
:103450008583A4C04D875E878D859E850E94A718B1
:10346000882379F1EE2069F12091BE01822F8295A7
:103470008F7090E0029774F08091B9019091BA0139
:1034800098878F831986DB86CA862C87CE0107969C
:103490000E94371886E0F801A9EBB1E001900D9287
:1034A0008A95E1F70E94FA180E94EC180DC0561791
:1034B00071F04D875E878D859E850E94A7188111CA
:1034C0001AC0C8010E943718FF24F394D6C04313D2
:1034D000F0CFE110EECF8091BE01F8018583C801E5
:1034E0000E94371886E0E9EBF1E0DF011D928A9532
:1034F000E9F7FA2CC2C0EE2021F32091BE01822F01
:1035000082958F7090E002972CF28091B901909192
:10351000BA019A8389831B82DD82CC822E83CE01FD
:103520000196B6CFC816D90628F0F601E81BF90BAC
:10353000CF0104C0809590958C0D9D1D883C910510
:1035400048F0F12C7C2DD98AC88A6E2D89890E9479
:10355000AC184AC0FE2CEE2009F4B3CF561333C08A
:10356000431331C02091BE0120FD24C0822F8295DB
:103570008F70482F50E041155105E1F0D8011596A4
:103580002C9315974F30510549F08F5F982F9295E6
:10359000907F822F8F70892B15968C93C8010E9483
:1035A000371886E0F801A9EBB1E001900D928A95F9
:1035B000E1F73DC086E0F801A9EBB1E001900D9282
:1035C0008A95E1F75AC04D875E878D859E850E945A
:1035D000A71881115FCF8091BE0181608093BE01E9
:1035E000C8010E94371849C0E9EBF1E086E0DF012D
:1035F0001D928A95E9F71BC0EE2009F462CF4D8732
:103600005E878D859E850E94A718F82E882309F471
:1036100058CF86E0F801A9EBB1E001900D928A95B0
:10362000E1F789EB91E00E9415140E94FA180E94BC
:10363000EC1823C04D875E878D859E850E94251ED0
:10364000292F22952F70223028F49F7039F0811194
:1036500005C00BC0243028F49F7049F4805E883088
:1036600020F0C8010E943718BF2CFB2C06C0D801DF
:1036700015969C91907F91F7F8CF8F2D61960FB69C
:10368000F894DEBF0FBECDBFDF91CF911F910F9198
:10369000FF90EF90DF90CF90BF90AF9008951F9371
:1036A000CF93DF93CDB7DEB72C970FB6F894DEBF7C
:1036B0000FBECDBF4F83588769877A878B879C87DA
:1036C000CE0107960E9462198823D1F09F818885D8
:1036D0002A853B85232B31F08F3F31F481E09F3FDA
:1036E00019F403C081E001C080E080FD47C04F8134
:1036F000588569857A858B859C850E94BB183EC05C
:1037000086E0FE013796DE01119601900D928A95B2
:10371000E1F7FF81E8856A857B856115710531F0E8
:10372000EF3F31F481E0FF3F19F403C081E001C0B5
:1037300080E080FD23C02091880130E0C90101961E
:10374000877099274091870150E084179507F1F120
:10375000F983EA837D836C8396E0929FD001939FE7
:10376000B00D1124A757BE4FFE01319601900D9266
:103770009A95E1F7809388010E94CB1816E080911A
:10378000870190918801891771F1189FC001112458
:1037900087579E4F0E946219882329F1E091870183
:1037A0001E9FF0011124E757FE4F40815181628135
:1037B0007381848195810E94BB188091870190E07C
:1037C00001968770992780938701D9CF0E947F182F
:1037D0001092880110928701E9EBF1E086E0DF01A9
:1037E0001D928A95E9F72C960FB6F894DEBF0FBEAE
:1037F000CDBFDF91CF911F910895EF92FF920F936C
:103800001F93CF93DF938C01892B09F46CC0F12CAB
:10381000EE24E394E8012196F8018491843740F482
:10382000843008F051C0813081F0823019F15BC0E2
:10383000853709F444C0A8F19CE7980F903708F049
:1038400052C08F770E94391541C00E5F1F4FFE0195
:10385000849190E2980F983050F48770FE2D01C04B
:10386000FF0F8A95EAF78F2F0E94871E14C00E94CF
:103870001B142DC00E5F1F4FFE01849190E2980F24
:10388000983060F48770FE2D01C0FF0F8A95EAF72B
:103890008F2F0E948D1E0E94B21E19C00E943915E2
:1038A00016C00E5F1F4FFE01C491CC2381F08FE93B
:1038B0009FE00197F1F700C00000C150F6CF0E5F06
:1038C0001F4FFE01F49003C00E941B148E018F2D28
:1038D000882309F49FCFEFE9FFE03197F1F700C0AB
:1038E00000008150F5CFDF91CF911F910F91FF9094
:1038F000EF900895089508950C947B1C0C947C1C03
:103900000E947E1C6093CD017093CE018093CF0105
:103910009093D0010C9465180C94801C0F931F9306
:103920000091CD011091CE012091CF013091D001B5
:10393000602B712B822B932B1F910F910C94801C69
:103940000F931F930091CD011091CE012091CF01D3
:103950003091D00160237123822393231F910F9113
:103960000C94801C0F931F930091CD011091CE01F8
:103970002091CF013091D0016027712782279327B2
:103980001F910F910C94801C0C94AC020E94C41CDB
:103990006093C9017093CA018093CB019093CC01CD
:1039A0000C94651860E070E0CB010C94C61C0F937A
:1039B0001F9341E050E060E070E08A019B0104C089
:1039C000000F111F221F331F8A95D2F7C901B801BA
:1039D0001F910F910C94C61C0F931F9341E050E070
:1039E00060E070E004C0440F551F661F771F8A9582
:1039F000D2F78091C9019091CA01A091CB01B091F9
:103A0000CC018A019B01082B192B2A2B3B2BC901C6
:103A1000B8011F910F910C94C61C0F931F9341E0A6
:103A200050E060E070E004C0440F551F661F771F30
:103A30008A95D2F740955095609570958091C9010F
:103A40009091CA01A091CB01B091CC018A019B0158
:103A5000082319232A233B23C901B8011F910F9181
:103A60000C94C61C0F931F9341E050E060E070E09F
:103A700004C0440F551F661F771F8A95D2F78091A7
:103A8000C9019091CA01A091CB01B091CC018A01EA
:103A90009B01082719272A273B27C901B8011F9135
:103AA0000F910C94C61C0F931F930091C9011091A4
:103AB000CA012091CB013091CC01602B712B822B5C
:103AC000932B1F910F910C94C61C0F931F93009181
:103AD000C9011091CA012091CB013091CC01602322
:103AE0007123822393231F910F910C94C61C0F9373
:103AF0001F930091C9011091CA012091CB0130910F
:103B0000CC0160277127822793271F910F910C9476
:103B1000C61C089524E0929F900D1124890FE82F70
:103B2000E695E695E695877051E001C0550F8A95B8
:103B3000EAF785E0E89FF0011124E154FE4F20E010
:103B400030E070E04081CB01022E02C0969587954F
:103B50000A94E2F7817081958427852384278193D5
:103B60002F5F3F4F2530310569F7089524E0929F7C
:103B7000900D1124890F682F669566956695982F8C
:103B8000977085E0689FB001112440E050E080E02C
:103B9000FB01E40FF51FE154FE4F208130E0092EB8
:103BA00002C0369527950A94E2F721703327042E38
:103BB00001C0220F0A94EAF7822B4F5F5F4F453016
:103BC000510531F70895BF92CF92DF92EF92FF92A5
:103BD0000F931F93CF93DF938C01C090C901D090B6
:103BE000CA01E090CB01F090CC018091CD01909181
:103BF000CE01A091CF01B091D001C82AD92AEA2ADA
:103C0000FB2ACFE1D0E0D701C6010C2E04C0B69547
:103C1000A795979587950A94D2F780FD04C02197C0
:103C200090F7B12C07C0BC2EB8018C2F0E94FB0767
:103C30000197A9F38B2DDF91CF911F910F91FF90E9
:103C4000EF90DF90CF90BF900895CF93DF93EC017A
:103C50000E94E31DBE010E94FB07DF91CF910895F2
:103C60001F93CF93DF93EB0190918601992321F06D
:103C7000CB010E94251E13C0882349F0CB010E946E
:103C8000E31D182F682FCE010E948A1D04C0CB01AE
:103C90000E94B61D182FBE01812F0E94FB07DF91E5
:103CA000CF911F9108958091D10185958595859536
:103CB00008958091D101877008959091D1019770F6
:103CC00081E009F480E008958091DD0108959091EC
:103CD000DD01892B8093DD01089580959091DD01B0
:103CE00089238093DD0108951092DD01089590915C
:103CF000DC01892B8093DC01089580959091DC0193
:103D000089238093DC0108951092DC01089590913D
:103D1000DB01892B8093DB01089580959091DB0175
:103D200089238093DB0108951092DB01089580912F
:103D3000D201089508950C949A1E0C949B1E9091A4
:103D4000D201981721F08093D2010C949D1E089502
:103D50008091D201882329F01092D20180E00C9446
:103D60009D1E0895E0911001F09111018091DD01F7
:103D70008083E0911001F091110190818091DC012C
:103D8000892B8083E0911001F09111019081809145
:103D9000DB01892B80838091D201882381F0E0911F
:103DA0001001F09111019081892B80838091100185
:103DB000909111010E94152081110E94A81E8091EE
:103DC0001001909111010C94D5120C949A1E98E058
:103DD000899F90011124262B2093D1010E94EC1C75
:103DE0008091D1018595859585950C94E51E10925D
:103DF000D10180E00C94E51E2091D10180958223B1
:103E00008093D101982F977079F430E0482F082ED5
:103E1000000C550B2417350739F085958595859548
:103E20000E940D1D0C94F71E0895CF92DF92EF9221
:103E3000FF926C01EE24FF24C114D104E104F104CB
:103E400021F0C701B60120E101C020E0C72ED82E25
:103E5000E92EFF24C114D104E104F10419F0285F14
:103E6000C701B6016B017C0154E0F694E794D79446
:103E7000C7945A95D1F7C114D104E104F10419F0A3
:103E80002C5FC701B6016B017C0142E0F694E79418
:103E9000D794C7944A95D1F7C114D104E104F10431
:103EA00019F02E5FC701B601DC01CB01B695A795CD
:103EB00097958795892B8A2B8B2B09F02F5F822F63
:103EC000FF90EF90DF90CF90089580E090E00E9407
:103ED000102C21E08C3E9E4F09F020E0822F0895A7
:103EE00082E090E00C94022C83E090E00C94022C91
:103EF000CF9384E090E00E94022CC82F81E290E0F2
:103F00000E94022C2C2F30E0A901582BCA01CF911E
:103F10000895CF93C92F682F84E090E00E94162C5B
:103F20006C2F81E290E0CF910C94162C86E090E00B
:103F30000C94022C682F86E090E00C94162CAB01B8
:103F4000BC018FE090E00C94282CAB01BC0183E114
:103F500090E00C94282C60E070E0CB010C94A51F3D
:103F600060E070E0CB010E949F1F0C94AB1F6CEED1
:103F70007EEF80E090E00E94342C60E082E090E0F0
:103F80000E94162C60E083E090E00E94162C1092B4
:103F9000CD011092CE011092CF011092D00160E0BD
:103FA00084E090E00E94162C60E081E290E00E94A4
:103FB000162C60E085E090E00E94162C60E086E020
:103FC00090E00E94162C6FEF87E090E00E94162C84
:103FD00040E050E0BA0188E090E00E94282C60E0C8
:103FE0008DE090E00E94162C40E050E0BA0188E19C
:103FF00090E00E94282C60E087E190E00E94162C5F
:1040000040E050E0BA018CE190E00E94282C60E092
:1040100080E290E00E94162C0C94B01F0C94B71F05
:10402000682F8EE090E00C94162CFC01329697E0FD
:1040300080E0915029F021912223D9F38F5FF9CFAD
:1040400008959C01FC0132969FEF80E04191461754
:1040500089F09F3F19F4411101C0982F8F5F86307E
:10406000A9F79F3F39F0F901E90FF11D97FDFA9586
:104070006283089508959C012A5F3F4FFC014281AD
:10408000461301C01282019682179307B9F708956B
:104090000C9421200C943B20029626E0FC01119206
:1040A0002A95E9F7089508950C9453200C94532011
:1040B0000E9456200E94FF0A0E94542080E00E9425
:1040C000C50A811108C081E00E94C50A91E08111F2
:1040D00003C090E001C091E0892F08950C94532013
:1040E0000C946E200E94702080911F02843061F138
:1040F0001092DF0120E488E190E00FB6F894A895D3
:10410000809360000FBE2093600080E00E943F0417
:1041100080E00E9402050E94702083B7817F846046
:1041200083BF83B7816083BF7894889583B78E7F80
:1041300083BF0FB6F894A895809160008861809342
:104140006000109260000FBE08950C9453200E94EE
:104150007F180E9489230E94C9120E9402050C94B4
:10416000A5201F920F920FB60F9211248F939F9349
:10417000AF93BF938091DF01811113C0809114022E
:1041800090911502A0911602B09117024196A11DBF
:10419000B11D8093140290931502A0931602B09360
:1041A0001702BF91AF919F918F910F900FBE0F900B
:1041B0001F90189582E084BD93E095BD9AEF97BD5E
:1041C00080936E0008952FB7F89480911402909117
:1041D0001502A0911602B09117022FBF0895CF9239
:1041E000DF92EF92FF920F931F932FB7F8944091B5
:1041F00014025091150260911602709117022FBFA0
:104200006A017B01EE24FF248C0120E030E0C0161F
:10421000D106E206F30610F4415051099A01281B19
:10422000390BC9011F910F91FF90EF90DF90CF9054
:10423000089578941F920F920FB60F9211248F93C6
:104240009F93AF93BF938091140290911502A09118
:104250001602B09117020196A11DB11D80931402A0
:1042600090931502A0931602B0931702BF91AF91DD
:104270009F918F910F900FBE0F901F90189587E719
:1042800097E790930108809300089AE088E10FB6C1
:10429000F894A895809360000FBE90936000FFCFC4
:1042A0000E94651F811102C00E940E200E94701F93
:1042B0008093DE010E94781F909319028093180268
:1042C0000E94741F682F70E080E090E00C948C1CBA
:1042D0008091E30180FF0BC06091150185E0689F2C
:1042E000B001112475956795759567952BC081FF71
:1042F00009C06091150185E0689FB0011124759592
:10430000679520C082FF07C06091150185E0689F16
:10431000B001112417C09091E2019923D1F060916E
:104320001401961788F72091150185E0289F9001C8
:104330001124929FA001939F500D112470E0CA0197
:104340000E949F2B6038710540F46115710519F4C6
:1043500006C065E070E0862F08958FE7089581E03C
:1043600008958091E30180FF08C06091130170E01F
:10437000759567957595679521C081FF06C0609119
:10438000130170E07595679519C082FF04C06091B4
:10439000130170E010C09091E201992399F06091AF
:1043A00012019617A0F780911301899FC001112473
:1043B00070E00E949F2B6038710540F46115710513
:1043C00019F406C061E070E0862F08958FE7089524
:1043D00081E00895803F21F40E946821819504C006
:1043E000813F29F40E9468218093E7010895823F6C
:1043F00021F40E946821819504C0833F29F40E9422
:1044000068218093E6010895893F19F40E94B12143
:1044100005C08A3F31F40E94B12181958093E80163
:1044200008958B3F21F40E94B121819504C08C3FF7
:1044300029F40E94B1218093E9010895843F21F479
:104440008091E501816017C0853F21F48091E501ED
:10445000826011C0863F21F48091E50184600BC029
:10446000873F21F48091E501886005C0883F31F4E1
:104470008091E50180618093E50108958D3F21F4ED
:104480008091E30181600BC08E3F21F48091E301B4
:10449000826005C08F3F29F48091E301846080939E
:1044A000E3010895803F39F48091E70187FF6CC0F4
:1044B0001092E70169C0813F29F48091E701181645
:1044C000BCF362C09091E601823F29F497FF5CC083
:1044D0001092E60159C0833F19F41916CCF354C069
:1044E000893F41F48091E80118160CF04DC01092FC
:1044F000E8014AC08A3F29F48091E80187FF44C05F
:10450000F6CF8B3F39F48091E90187FF3DC01092CF
:10451000E9013AC08C3F29F48091E9011816BCF3F7
:1045200033C0843F21F48091E5018E7F17C0853F21
:1045300021F48091E5018D7F11C0863F21F48091A7
:10454000E5018B7F0BC0873F21F48091E501877FD8
:1045500005C0883F31F48091E5018F7E8093E501AD
:1045600013C08D3F21F48091E3018E7F0BC08E3FFD
:1045700021F48091E3018D7F05C08F3F29F4809164
:10458000E3018B7F8093E3018091E60181110EC0EE
:104590008091E70181110AC08091E801811106C074
:1045A0008091E901811102C01092E201089584EE28
:1045B00091E00E94E0120E94E3209093E101809339
:1045C000E00108951F93CF93DF938091E0019091D4
:1045D000E1010E94EF20AC019091E201992321F0CA
:1045E0002091160130E006C0209117018AE0289F33
:1045F000900111244217530708F47BC08091E60113
:10460000C091E701D091E8011091E901811107C043
:10461000C1116BC0D11169C0111167C06AC09F3F41
:1046200019F09F5F9093E201181624F40E9468210C
:104630008093E6018091E60187FF05C00E94682112
:1046400081958093E6011C1624F40E9468218093D2
:10465000E7018091E70187FF05C00E9468218195ED
:104660008093E7013091E6013323E1F02091E701E7
:104670002223C1F045EB3403C0011124992319F022
:104680009093E60103C081E08093E60135EB2303BC
:10469000C0011124992319F09093E70103C081E030
:1046A0008093E7011D1624F40E94B1218093E80154
:1046B0008091E80187FF05C00E94B1218195809318
:1046C000E801111624F40E94B1218093E901809140
:1046D000E90187FF05C00E94B12181958093E9011E
:1046E000DF91CF911F910C94D7229F3F09F099CF72
:1046F000AACFDF91CF911F910895E4EEF1E086E01B
:10470000DF011D928A95E9F71092E2011092E30110
:1047100008950E94651F811102C00E940E200E9410
:10472000961F80931A02282F26952695269530E00D
:104730002430310524F08770886180931A028091BB
:104740001A0280FF04C086958695869501C080E098
:104750000C943F0420911A02822F869586958695A7
:10476000482F50E04330510554F48F5F982F990F34
:10477000990F990F822F8770892B80931A0280914D
:104780001A02816080931A020E949A1F80911A0275
:104790008695869586950C943F0480911A02982FF1
:1047A000969596959695A1F0915E990F990F990F10
:1047B0008770892B80931A02887F91E009F490E03A
:1047C00080911A0290FB80F980931A020E949A1F2E
:1047D00080911A028695869586950C943F04809167
:1047E0001A0280FD13C0816080931A02813019F48F
:1047F00089E080931A0280911A020E949A1F809188
:104800001A028695869586950C943F0408958091AA
:104810001A0280FF08C08E7F80931A020E949A1F9E
:1048200080E00C943F04089580911A0280FD0C945E
:1048300007240C94EF2390911A02892F8695869570
:1048400086958F5F8F719770843038F4880F880F4A
:10485000880F892B80931A0202C090931A028091CC
:104860001A02887F91E009F490E080911A0290FB8F
:1048700080F980931A020E949A1F80911A028695ED
:10488000869586950C943F04843008F083E0880F69
:10489000880F880F90911A029770892B80931A02C3
:1048A000887F91E009F490E080911A0290FB80F9F2
:1048B00080931A020E949A1F80911A02869586950B
:1048C00086950C943F048091F20108950F931F93F5
:1048D000CF93DF9300D01F92CDB7DEB78C010E943B
:1048E000C026823011F0843021F584E089831B8357
:1048F0000A8382E08093E9008FEF9091E800815075
:1049000095FD06C095ED9A95F1F700008111F5CF60
:104910008091E80085FF0DC040E050E063E070E06A
:10492000CE0101960E94DD268091E8008E7780936B
:10493000E8000F900F900F90DF91CF911F910F9192
:104940000895CF93DF9300D01F92CDB7DEB72091AB
:104950001F02243031F523E02983805891099B837D
:104960008A8382E08093E9008FEF9091E800815084
:1049700095FD06C095ED9A95F1F700008111F5CFF0
:104980008091E80085FF0DC040E050E063E070E0FA
:10499000CE0101960E94DD268091E8008E778093FB
:1049A000E8000F900F900F90DF91CF910895CF9373
:1049B000DF93EC010E94C026823011F08430F9F4BC
:1049C00082E08093E9008FEF9091E800815095FD9F
:1049D00006C095ED9A95F1F700008111F5CF809111
:1049E000E80085FF0CC040E050E066E070E0CE01DA
:1049F0000E94DD268091E8008E778093E800DF91A9
:104A0000CF910895CF93DF93EC010E94C0268230AE
:104A100011F0843039F581E08093E9008FEF9091B7
:104A2000E800815095FD06C095ED9A95F1F70000DC
:104A30008111F5CF8091E80085FF14C040E050E07F
:104A400068E070E0CE010E94DD268091E8008E775C
:104A50008093E80088E0FE01AAEEB1E001900D929B
:104A60008A95E1F7DF91CF91089580911E0281111F
:104A700009C00E946E280E94CB288091E2008460C9
:104A80008093E200089510921E02089508950895FB
:104A90000C94A72042E061EC81E00E94E72742E20B
:104AA00061EC82E00C94E72780912102833009F4C5
:104AB00060C030F4813071F0823009F499C00895FB
:104AC0008A3009F485C08B3009F46BC0893009F055
:104AD000A7C020C080912002813A09F0A1C0809136
:104AE000E800877F8093E80080912402909125025E
:104AF000892B21F468E08AEE91E003C060E080E059
:104B000090E070E00E9428278091E8008B778093E6
:104B1000E800089580912002813209F081C08091DF
:104B2000240290912502029708F07AC08091E80053
:104B3000877F8093E8008091E80082FD05C0809126
:104B40001F028111F8CF6CC02091F3008091F20018
:104B500090E0922B029729F48091F1008B7F8130B5
:104B600021F48091F1008093F2018091E8008B772D
:104B700053C080912002813A09F052C080912402F2
:104B800090912502892B09F04BC08091E800877F26
:104B90008093E8008091E80080FFFCCF80912201A3
:104BA00036C0809120028132D9F580912402909103
:104BB0002502892BA9F58091E800877F8093E80082
:104BC0000E941C2880912202809322010C947F185D
:104BD00080912002813221F58091E800877F8093C7
:104BE000E8000E941C28809123028093F30108951D
:104BF00080912002813AA1F48091E800877F809320
:104C0000E8008091E80080FFFCCF8091F301809361
:104C1000F1008091E8008E778093E8000C941C28C6
:104C2000089584B7877F84BF0FB6F894A8958091C4
:104C30006000886180936000109260000FBE80E881
:104C400080936100109261000E942A130E946E28D6
:104C50000E94CB288091E20084608093E2007894E7
:104C60000E94602B0E94321388E191E00E94C412DE
:104C700080911F02853069F40E94722080911D028C
:104C80008823B1F30E945820882391F30E94C726FD
:104C9000EFCF0E943E130E94EE10EACF0C945026F4
:104CA000292F332723303105C9F060F42130310535
:104CB00081F02230310509F04AC08BE390E029E60B
:104CC00033E049C02132310511F12232310579F149
:104CD0003EC082E190E024EA33E03DC09927813074
:104CE000910561F040F08230910559F0039779F514
:104CF000EBE3F3E008C0E5E6F3E005C0E1E5F3E04F
:104D000002C0E1E4F3E0849190E09F0124C06115CA
:104D1000710541F061307105D1F489E090E024E93A
:104D200033E019C089E090E02BE733E014C061154F
:104D3000710541F06130710551F485E890E026EB92
:104D400033E009C080E490E02BE334E004C080E06D
:104D500090E020E030E0FA01318320830895089547
:104D6000CF93C82F0E94AF26C093F401CF9108952E
:104D700080911F02843011F081E0089582E008954F
:104D80008091F401811102C00C94B826089580E14D
:104D900089BD82E189BD09B400FEFDCF8091D800B4
:104DA0008F7D8093D8008091E00082608093E00046
:104DB0008091E00081FDFCCF0895CF92DF92EF92C9
:104DC000FF920F931F93CF93DF93EC018B017A0136
:104DD0000E943B28811133C0E114F10439F0F7013E
:104DE00080819181081B190BC80FD91FC12CD12CB0
:104DF0000115110519F18091E80085FD16C080911B
:104E0000E8008E778093E800E114F10449F0F7019F
:104E100080819181C80ED91ED182C08285E00FC0E9
:104E20000E943B28882321F30AC089918093F100D6
:104E300001501109FFEFCF1ADF0ADACF80E0DF91CE
:104E4000CF911F910F91FF90EF90DF90CF90089539
:104E500020912602309127022617370748F0611566
:104E6000710539F42091E8002E772093E80001C005
:104E7000B901FC0120E06115710579F180911F02F3
:104E80008823F1F18530F1F18091E80083FD3CC089
:104E90008091E80082FD2EC08091E80080FFEBCF7A
:104EA0002091F3008091F20090E0922B6115710542
:104EB00051F08830910538F421912093F100615030
:104EC00071090196F3CF21E0089709F020E0809165
:104ED000E8008E778093E800CECF2111CFCF0AC0B3
:104EE00080911F02882361F0853061F08091E80095
:104EF00083FD0AC08091E80082FFF2CF80E0089530
:104F000082E0089583E0089581E0089520912602CB
:104F1000309127022617370748F06115710539F4DB
:104F20002091E8002E772093E80001C0B901FC0130
:104F300020E06115710591F180911F02882309F429
:104F400040C0853009F43FC08091E80083FD3DC03A
:104F50008091E80082FD2FC08091E80080FFE9CFBA
:104F60002091F3008091F20090E0922B6115710581
:104F700059F08830910540F424912093F100319646
:104F8000615071090196F2CF21E0089709F020E005
:104F90008091E8008E778093E800CBCF2111CCCFB1
:104FA0000AC080911F02882361F0853061F08091F2
:104FB000E80083FD0AC08091E80082FFF2CF80E024
:104FC000089582E0089583E0089581E00895982F80
:104FD000973068F59093E900981739F07091EC00DC
:104FE0002091ED005091F00003C0242F762F50E067
:104FF00021FD02C09F5FECCF3091EB003E7F3093EC
:10500000EB003091ED003D7F3093ED003091EB00EF
:1050100031603093EB007093EC002093ED005093DF
:10502000F0002091EE0027FDE5CF80E008958F701D
:105030008093E90081E008958091200287FF11C0EC
:105040008091E80082FD05C080911F028111F8CF98
:1050500011C08091E8008B770BC080911F028823DC
:1050600049F08091E80080FFF8CF8091E8008E77CA
:105070008093E80008952091E4003091E50095E6E2
:105080004091EC00842F817040FF23C08091E800A4
:1050900080FD1DC080911F02882399F0853099F012
:1050A0008091EB0085FD11C04091E4005091E50036
:1050B0002417350729F3915011F09A01E1CF84E0CC
:1050C000089582E0089583E0089581E0089580E0E6
:1050D00008954091E80042FFDDCF08950E94DC284A
:1050E0000E94E428E0EEF0E0808181608083E8EDBA
:1050F000F0E080818F77808319BCA7EDB0E08C91C0
:105100008E7F8C9380818F7E808310921E02089503
:105110000F931F93CF93DF930E94DC280E94E42813
:10512000C8EDD0E088818F77888388818068888304
:1051300088818F7D888319BC10921F0210921B02F8
:1051400010921D0210921C0200EE10E0F801808106
:105150008B7F808388818160888342E060E080E08B
:105160000E94E727E1EEF0E080818E7F8083E2EE0F
:10517000F0E0808181608083808188608083F80195
:1051800080818E7F8083888180618883DF91CF9149
:105190001F910F910895E8EDF0E080818F7E80836C
:1051A000E7EDF0E080818160808384E082BF81E070
:1051B00080931E020C948828E8EDF0E080818E7FB9
:1051C00080831092E20008951092DA001092E100BC
:1051D00008951F920F920FB60F9211242F933F93B1
:1051E0004F935F936F937F938F939F93AF93BF93EF
:1051F000EF93FF938091E10082FF0BC08091E2006A
:1052000082FF07C08091E1008B7F8093E1000E94C4
:105210005F2B8091DA0080FF1FC08091D80080FF53
:105220001BC08091DA008E7F8093DA008091D900D4
:1052300080FF0DC080E189BD82E189BD09B400FE17
:10524000FDCF81E080931F020E94352505C019BC67
:1052500010921F020E9443258091E10080FF19C037
:105260008091E20080FF15C08091E2008E7F8093E4
:10527000E2008091E20080618093E2008091D8009A
:1052800080628093D80019BC85E080931F020E9441
:1052900047258091E10084FF30C08091E20084FFC7
:1052A0002CC080E189BD82E189BD09B400FEFDCF3B
:1052B0008091D8008F7D8093D8008091E1008F7E0F
:1052C0008093E1008091E2008F7E8093E2008091E4
:1052D000E20081608093E20080911B02882311F03C
:1052E00084E007C08091E30087FD02C081E001C037
:1052F00083E080931F020E9448258091E10083FF94
:1053000029C08091E20083FF25C08091E100877F62
:105310008093E10082E080931F0210921B02809133
:10532000E1008E7F8093E1008091E2008E7F809388
:10533000E2008091E20080618093E20042E060E060
:1053400080E00E94E7278091F00088608093F00061
:105350000E944625FF91EF91BF91AF919F918F9150
:105360007F916F915F914F913F912F910F900FBE61
:105370000F901F9018951F920F920FB60F92112445
:105380002F933F934F935F936F937F938F939F934D
:10539000AF93BF93CF93DF93EF93FF93C091E90057
:1053A000CF708091EC00D82FD17080FDD0E81092A2
:1053B000E9008091F000877F8093F00078940E944C
:1053C000FF291092E9008091F00088608093F0003E
:1053D000CD2BCF70C093E900FF91EF91DF91CF917A
:1053E000BF91AF919F918F917F916F915F914F91FD
:1053F0003F912F910F900FBE0F901F9018951F9304
:10540000CF93DF93CDB7DEB7AA970FB6F894DEBF80
:105410000FBECDBFE0E2F2E08091F100819322E087
:10542000E832F207C9F70E9454258091E80083FF13
:105430002EC18091200290912102492F50E04A30E4
:10544000510508F024C1FA01EC58FF4F0C94D52BFC
:10545000803821F0823809F01AC108C080911C02FE
:1054600090911D02992389F082600FC080912402DF
:105470008F70873008F00BC18093E9008091EB00BA
:1054800085FB882780F91092E9009091E800977FCA
:105490009093E8008093F1001092F100D1C0282F82
:1054A0002D7F09F0F4C0882319F0823061F0EFC03D
:1054B00080912202813009F0EAC0933009F080E047
:1054C00080931D022EC08091220281112AC08091FA
:1054D00024028F702FEF280F263008F0D8C0809359
:1054E000E9002091EB0020FF1CC0933021F4809153
:1054F000EB00806214C09091EB0090619093EB0000
:1055000021E030E0A90102C0440F551F8A95E2F75F
:105510004093EA001092EA008091EB00886080934B
:10552000EB001092E9008091E800877F8093E8000B
:105530000E941C28ACC08111AAC0109122021F77C2
:105540008091E3008078812B8093E3008091E800D4
:10555000877F8093E8000E941C288091E80080FFEC
:10556000FCCF8091E30080688093E300111102C0BA
:1055700082E001C083E080931F0289C0805882309E
:1055800008F085C080912202909123028C3D53E067
:10559000950779F583E08A838AE289834FB7F89487
:1055A000DE01139620E03EE051E2E32FF0E050935D
:1055B0005700E49120FF03C0E295EF703F5FEF706A
:1055C0008E2F90E0EA3010F0C79601C0C0968D9300
:1055D0009D932F5F243149F74FBF8091E800877F6B
:1055E0008093E8006AE270E0CE0101960E942827CD
:1055F00016C06091240270912502AE014F5F5F4F8B
:105600000E944E26BC01892B09F441C09091E8000C
:10561000977F9093E80089819A810E9486278091E4
:10562000E8008B778093E80032C0803881F5809164
:10563000E800877F8093E80080911B028093F1004F
:105640008091E8008E7772CF811121C08091220273
:105650009091230299270297D4F48091E800877FE4
:105660008093E8008091220280931B020E941C28F4
:1056700080911B02811106C08091E30087FD02C06A
:1056800081E001C084E080931F020E944A2580913E
:10569000E80083FF0AC08091E800877F8093E800DC
:1056A0008091EB0080628093EB00AA960FB6F8948D
:1056B000DEBF0FBECDBFDF91CF911F91089508953A
:1056C000CF9380911F028823A1F0C091E900CF7091
:1056D0009091EC00892F817090FD80E8C82B10928A
:1056E000E9008091E80083FD0E94FF29CF70C093FC
:1056F000E900CF910895DB018F939F930E94EA2BDD
:10570000BF91AF91A29F800D911DA39F900DB29F5D
:10571000900D11240895AA1BBB1B51E107C0AA1FBD
:10572000BB1FA617B70710F0A61BB70B881F991F42
:105730005A95A9F780959095BC01CD01089597FBE6
:10574000072E16F4009407D077FD09D00E948B2B0A
:1057500007FC05D03EF4909581959F4F0895709574
:1057600061957F4F0895A1E21A2EAA1BBB1BFD0174
:105770000DC0AA1FBB1FEE1FFF1FA217B307E40730
:10578000F50720F0A21BB30BE40BF50B661F771F88
:10579000881F991F1A9469F7609570958095909568
:1057A0009B01AC01BD01CF010895EE0FFF1F0590D5
:1057B000F491E02D0994A29FB001B39FC001A39F73
:1057C000700D811D1124911DB29F700D811D11243A
:1057D000911D08950E94DB2BA59F900DB49F900D05
:1057E000A49F800D911D11240895FC01415050404B
:1057F00030F001900616D1F73197CF010895882730
:1058000099270895F999FECF92BD81BDF89A9927FD
:1058100080B50895A6E1B0E044E050E00C943C2C43
:10582000A8E1B0E042E050E00C943C2C262FF9991E
:10583000FECF92BD81BDF89A019700B4021639F0EF
:105840001FBA20BD0FB6F894FA9AF99A0FBE0895C0
:105850000396272F0E94172C0E94162C252F0E949A
:10586000172C242F0C94172C0196272F0E94172CED
:105870000C94162CDC01CB01FC01F999FECF06C07B
:10588000F2BDE1BDF89A319600B40D9241505040FE
:08589000B8F70895F894FFCF6A
:10589800010208080801191A1B1C1D1E1F202122BD
:1058A800D3012808140A321E63240225D724A12410
:1058B80066240166973594F4F5F6C69190000102C6
:1058C8000202020606060909090909090F0F0F0F46
:1058D8000F0F151515181919191919191919191951
:1058E800232400FF0100010000FFFF000001000168
:0258F800FF00AF
:00000001FF
